{
	"contracts/1_Storage.sol": {
		"CertificateManagement": {
			"abi": [
				{
					"inputs": [
						{
							"internalType": "uint256",
							"name": "_id",
							"type": "uint256"
						},
						{
							"internalType": "address",
							"name": "_collaborator",
							"type": "address"
						}
					],
					"name": "addCollaborator",
					"outputs": [],
					"stateMutability": "nonpayable",
					"type": "function"
				},
				{
					"inputs": [
						{
							"internalType": "uint256",
							"name": "_id",
							"type": "uint256"
						},
						{
							"internalType": "address",
							"name": "_nominee",
							"type": "address"
						}
					],
					"name": "addNominee",
					"outputs": [],
					"stateMutability": "nonpayable",
					"type": "function"
				},
				{
					"inputs": [
						{
							"internalType": "uint256",
							"name": "_id",
							"type": "uint256"
						},
						{
							"internalType": "uint256",
							"name": "_changeId",
							"type": "uint256"
						}
					],
					"name": "approveChanges",
					"outputs": [],
					"stateMutability": "nonpayable",
					"type": "function"
				},
				{
					"inputs": [
						{
							"internalType": "uint256",
							"name": "",
							"type": "uint256"
						}
					],
					"name": "certificates",
					"outputs": [
						{
							"internalType": "uint256",
							"name": "id",
							"type": "uint256"
						},
						{
							"internalType": "address",
							"name": "carrier",
							"type": "address"
						},
						{
							"internalType": "address",
							"name": "recipient",
							"type": "address"
						},
						{
							"internalType": "uint256",
							"name": "changesCount",
							"type": "uint256"
						},
						{
							"internalType": "string",
							"name": "data",
							"type": "string"
						},
						{
							"internalType": "bool",
							"name": "isFinalized",
							"type": "bool"
						},
						{
							"internalType": "uint256",
							"name": "manufacturingDate",
							"type": "uint256"
						},
						{
							"internalType": "uint256",
							"name": "expiryDate",
							"type": "uint256"
						}
					],
					"stateMutability": "view",
					"type": "function"
				},
				{
					"inputs": [
						{
							"internalType": "uint256",
							"name": "",
							"type": "uint256"
						},
						{
							"internalType": "address",
							"name": "",
							"type": "address"
						}
					],
					"name": "collaborators",
					"outputs": [
						{
							"internalType": "bool",
							"name": "hasViewAccess",
							"type": "bool"
						},
						{
							"internalType": "bool",
							"name": "hasOwnership",
							"type": "bool"
						}
					],
					"stateMutability": "view",
					"type": "function"
				},
				{
					"inputs": [
						{
							"internalType": "address",
							"name": "_recipient",
							"type": "address"
						},
						{
							"internalType": "string",
							"name": "_data",
							"type": "string"
						},
						{
							"internalType": "uint256",
							"name": "_manufacturingDate",
							"type": "uint256"
						},
						{
							"internalType": "uint256",
							"name": "_expiryDate",
							"type": "uint256"
						}
					],
					"name": "createCertificate",
					"outputs": [],
					"stateMutability": "nonpayable",
					"type": "function"
				},
				{
					"inputs": [
						{
							"internalType": "uint256",
							"name": "_id",
							"type": "uint256"
						}
					],
					"name": "getCertificate",
					"outputs": [
						{
							"internalType": "address",
							"name": "",
							"type": "address"
						},
						{
							"internalType": "string",
							"name": "",
							"type": "string"
						},
						{
							"internalType": "bool",
							"name": "",
							"type": "bool"
						}
					],
					"stateMutability": "view",
					"type": "function"
				},
				{
					"inputs": [
						{
							"internalType": "uint256",
							"name": "_id",
							"type": "uint256"
						},
						{
							"internalType": "address",
							"name": "_collaborator",
							"type": "address"
						}
					],
					"name": "getCollaboratorDetails",
					"outputs": [
						{
							"internalType": "bool",
							"name": "",
							"type": "bool"
						},
						{
							"internalType": "bool",
							"name": "",
							"type": "bool"
						}
					],
					"stateMutability": "view",
					"type": "function"
				},
				{
					"inputs": [
						{
							"internalType": "uint256",
							"name": "_id",
							"type": "uint256"
						},
						{
							"internalType": "address",
							"name": "_address",
							"type": "address"
						}
					],
					"name": "isNominee",
					"outputs": [
						{
							"internalType": "bool",
							"name": "",
							"type": "bool"
						}
					],
					"stateMutability": "view",
					"type": "function"
				},
				{
					"inputs": [],
					"name": "nextCertificateId",
					"outputs": [
						{
							"internalType": "uint256",
							"name": "",
							"type": "uint256"
						}
					],
					"stateMutability": "view",
					"type": "function"
				},
				{
					"inputs": [
						{
							"internalType": "uint256",
							"name": "_id",
							"type": "uint256"
						},
						{
							"internalType": "address",
							"name": "_collaborator",
							"type": "address"
						}
					],
					"name": "removeCollaborator",
					"outputs": [],
					"stateMutability": "nonpayable",
					"type": "function"
				},
				{
					"inputs": [
						{
							"internalType": "uint256",
							"name": "_id",
							"type": "uint256"
						},
						{
							"internalType": "address",
							"name": "_nominee",
							"type": "address"
						}
					],
					"name": "removeNominee",
					"outputs": [],
					"stateMutability": "nonpayable",
					"type": "function"
				},
				{
					"inputs": [
						{
							"internalType": "uint256",
							"name": "_id",
							"type": "uint256"
						},
						{
							"internalType": "string",
							"name": "_updatedData",
							"type": "string"
						}
					],
					"name": "requestChanges",
					"outputs": [],
					"stateMutability": "nonpayable",
					"type": "function"
				},
				{
					"inputs": [
						{
							"internalType": "uint256",
							"name": "_id",
							"type": "uint256"
						},
						{
							"internalType": "address",
							"name": "_newOwner",
							"type": "address"
						}
					],
					"name": "transferOwnership",
					"outputs": [],
					"stateMutability": "nonpayable",
					"type": "function"
				}
			],
			"devdoc": {
				"kind": "dev",
				"methods": {},
				"version": 1
			},
			"evm": {
				"assembly": "    /* \"contracts/1_Storage.sol\":57:7311  contract CertificateManagement {... */\n  mstore(0x40, 0x80)\n  callvalue\n  dup1\n  iszero\n  tag_1\n  jumpi\n  0x00\n  dup1\n  revert\ntag_1:\n  pop\n  dataSize(sub_0)\n  dup1\n  dataOffset(sub_0)\n  0x00\n  codecopy\n  0x00\n  return\nstop\n\nsub_0: assembly {\n        /* \"contracts/1_Storage.sol\":57:7311  contract CertificateManagement {... */\n      mstore(0x40, 0x80)\n      callvalue\n      dup1\n      iszero\n      tag_1\n      jumpi\n      0x00\n      dup1\n      revert\n    tag_1:\n      pop\n      jumpi(tag_2, lt(calldatasize, 0x04))\n      shr(0xe0, calldataload(0x00))\n      dup1\n      0x663b3e22\n      gt\n      tag_17\n      jumpi\n      dup1\n      0xa0bdb003\n      gt\n      tag_18\n      jumpi\n      dup1\n      0xa0bdb003\n      eq\n      tag_13\n      jumpi\n      dup1\n      0xc0af6cc6\n      eq\n      tag_14\n      jumpi\n      dup1\n      0xd4bd5a0d\n      eq\n      tag_15\n      jumpi\n      dup1\n      0xf5bdaa18\n      eq\n      tag_16\n      jumpi\n      jump(tag_2)\n    tag_18:\n      dup1\n      0x663b3e22\n      eq\n      tag_10\n      jumpi\n      dup1\n      0x776b28b7\n      eq\n      tag_11\n      jumpi\n      dup1\n      0x7d60af91\n      eq\n      tag_12\n      jumpi\n      jump(tag_2)\n    tag_17:\n      dup1\n      0x3ce2d7fa\n      gt\n      tag_19\n      jumpi\n      dup1\n      0x3ce2d7fa\n      eq\n      tag_6\n      jumpi\n      dup1\n      0x4f916fb0\n      eq\n      tag_7\n      jumpi\n      dup1\n      0x51640fee\n      eq\n      tag_8\n      jumpi\n      dup1\n      0x601b349c\n      eq\n      tag_9\n      jumpi\n      jump(tag_2)\n    tag_19:\n      dup1\n      0x1368e7c3\n      eq\n      tag_3\n      jumpi\n      dup1\n      0x20e2bef7\n      eq\n      tag_4\n      jumpi\n      dup1\n      0x29507f73\n      eq\n      tag_5\n      jumpi\n    tag_2:\n      0x00\n      dup1\n      revert\n        /* \"contracts/1_Storage.sol\":995:1068  mapping(uint256 => mapping(address => Collaborator)) public collaborators */\n    tag_3:\n      tag_20\n      0x04\n      dup1\n      calldatasize\n      sub\n      dup2\n      add\n      swap1\n      tag_21\n      swap2\n      swap1\n      tag_22\n      jump\t// in\n    tag_21:\n      tag_23\n      jump\t// in\n    tag_20:\n      mload(0x40)\n      tag_24\n      swap3\n      swap2\n      swap1\n      tag_25\n      jump\t// in\n    tag_24:\n      mload(0x40)\n      dup1\n      swap2\n      sub\n      swap1\n      return\n        /* \"contracts/1_Storage.sol\":1158:1952  function createCertificate(... */\n    tag_4:\n      tag_26\n      0x04\n      dup1\n      calldatasize\n      sub\n      dup2\n      add\n      swap1\n      tag_27\n      swap2\n      swap1\n      tag_28\n      jump\t// in\n    tag_27:\n      tag_29\n      jump\t// in\n    tag_26:\n      stop\n        /* \"contracts/1_Storage.sol\":3292:3876  function transferOwnership(uint256 _id, address _newOwner) public {... */\n    tag_5:\n      tag_30\n      0x04\n      dup1\n      calldatasize\n      sub\n      dup2\n      add\n      swap1\n      tag_31\n      swap2\n      swap1\n      tag_22\n      jump\t// in\n    tag_31:\n      tag_32\n      jump\t// in\n    tag_30:\n      stop\n        /* \"contracts/1_Storage.sol\":2010:2549  function requestChanges(uint256 _id, string memory _updatedData) public {... */\n    tag_6:\n      tag_33\n      0x04\n      dup1\n      calldatasize\n      sub\n      dup2\n      add\n      swap1\n      tag_34\n      swap2\n      swap1\n      tag_35\n      jump\t// in\n    tag_34:\n      tag_36\n      jump\t// in\n    tag_33:\n      stop\n        /* \"contracts/1_Storage.sol\":5961:6350  function removeNominee(uint256 _id, address _nominee) public {... */\n    tag_7:\n      tag_37\n      0x04\n      dup1\n      calldatasize\n      sub\n      dup2\n      add\n      swap1\n      tag_38\n      swap2\n      swap1\n      tag_22\n      jump\t// in\n    tag_38:\n      tag_39\n      jump\t// in\n    tag_37:\n      stop\n        /* \"contracts/1_Storage.sol\":6404:6693  function getCertificate(uint256 _id) public view returns (address, string memory, bool) {... */\n    tag_8:\n      tag_40\n      0x04\n      dup1\n      calldatasize\n      sub\n      dup2\n      add\n      swap1\n      tag_41\n      swap2\n      swap1\n      tag_42\n      jump\t// in\n    tag_41:\n      tag_43\n      jump\t// in\n    tag_40:\n      mload(0x40)\n      tag_44\n      swap4\n      swap3\n      swap2\n      swap1\n      tag_45\n      jump\t// in\n    tag_44:\n      mload(0x40)\n      dup1\n      swap2\n      sub\n      swap1\n      return\n        /* \"contracts/1_Storage.sol\":4618:5503  function removeCollaborator(uint256 _id, address _collaborator) public {... */\n    tag_9:\n      tag_46\n      0x04\n      dup1\n      calldatasize\n      sub\n      dup2\n      add\n      swap1\n      tag_47\n      swap2\n      swap1\n      tag_22\n      jump\t// in\n    tag_47:\n      tag_48\n      jump\t// in\n    tag_46:\n      stop\n        /* \"contracts/1_Storage.sol\":930:989  mapping(uint256 => CertificateCreation) public certificates */\n    tag_10:\n      tag_49\n      0x04\n      dup1\n      calldatasize\n      sub\n      dup2\n      add\n      swap1\n      tag_50\n      swap2\n      swap1\n      tag_42\n      jump\t// in\n    tag_50:\n      tag_51\n      jump\t// in\n    tag_49:\n      mload(0x40)\n      tag_52\n      swap9\n      swap8\n      swap7\n      swap6\n      swap5\n      swap4\n      swap3\n      swap2\n      swap1\n      tag_53\n      jump\t// in\n    tag_52:\n      mload(0x40)\n      dup1\n      swap2\n      sub\n      swap1\n      return\n        /* \"contracts/1_Storage.sol\":2607:3229  function approveChanges(uint256 _id, uint256 _changeId) public {... */\n    tag_11:\n      tag_54\n      0x04\n      dup1\n      calldatasize\n      sub\n      dup2\n      add\n      swap1\n      tag_55\n      swap2\n      swap1\n      tag_56\n      jump\t// in\n    tag_55:\n      tag_57\n      jump\t// in\n    tag_54:\n      stop\n        /* \"contracts/1_Storage.sol\":7112:7309  function isNominee(uint256 _id, address _address) public view returns (bool) {... */\n    tag_12:\n      tag_58\n      0x04\n      dup1\n      calldatasize\n      sub\n      dup2\n      add\n      swap1\n      tag_59\n      swap2\n      swap1\n      tag_22\n      jump\t// in\n    tag_59:\n      tag_60\n      jump\t// in\n    tag_58:\n      mload(0x40)\n      tag_61\n      swap2\n      swap1\n      tag_62\n      jump\t// in\n    tag_61:\n      mload(0x40)\n      dup1\n      swap2\n      sub\n      swap1\n      return\n        /* \"contracts/1_Storage.sol\":1075:1107  uint256 public nextCertificateId */\n    tag_13:\n      tag_63\n      tag_64\n      jump\t// in\n    tag_63:\n      mload(0x40)\n      tag_65\n      swap2\n      swap1\n      tag_66\n      jump\t// in\n    tag_65:\n      mload(0x40)\n      dup1\n      swap2\n      sub\n      swap1\n      return\n        /* \"contracts/1_Storage.sol\":6748:7042  function getCollaboratorDetails(uint256 _id, address _collaborator) public view returns (bool, bool) {... */\n    tag_14:\n      tag_67\n      0x04\n      dup1\n      calldatasize\n      sub\n      dup2\n      add\n      swap1\n      tag_68\n      swap2\n      swap1\n      tag_22\n      jump\t// in\n    tag_68:\n      tag_69\n      jump\t// in\n    tag_67:\n      mload(0x40)\n      tag_70\n      swap3\n      swap2\n      swap1\n      tag_25\n      jump\t// in\n    tag_70:\n      mload(0x40)\n      dup1\n      swap2\n      sub\n      swap1\n      return\n        /* \"contracts/1_Storage.sol\":3937:4571  function addCollaborator(uint256 _id, address _collaborator) public {... */\n    tag_15:\n      tag_71\n      0x04\n      dup1\n      calldatasize\n      sub\n      dup2\n      add\n      swap1\n      tag_72\n      swap2\n      swap1\n      tag_22\n      jump\t// in\n    tag_72:\n      tag_73\n      jump\t// in\n    tag_71:\n      stop\n        /* \"contracts/1_Storage.sol\":5541:5919  function addNominee(uint256 _id, address _nominee) public {... */\n    tag_16:\n      tag_74\n      0x04\n      dup1\n      calldatasize\n      sub\n      dup2\n      add\n      swap1\n      tag_75\n      swap2\n      swap1\n      tag_22\n      jump\t// in\n    tag_75:\n      tag_76\n      jump\t// in\n    tag_74:\n      stop\n        /* \"contracts/1_Storage.sol\":995:1068  mapping(uint256 => mapping(address => Collaborator)) public collaborators */\n    tag_23:\n      mstore(0x20, 0x01)\n      dup2\n      0x00\n      mstore\n      mstore(0x20, keccak256(0x00, 0x40))\n      dup1\n      0x00\n      mstore\n      keccak256(0x00, 0x40)\n      0x00\n      swap2\n      pop\n      swap2\n      pop\n      pop\n      dup1\n      0x00\n      add\n      0x00\n      swap1\n      sload\n      swap1\n      0x0100\n      exp\n      swap1\n      div\n      0xff\n      and\n      swap1\n      dup1\n      0x00\n      add\n      0x01\n      swap1\n      sload\n      swap1\n      0x0100\n      exp\n      swap1\n      div\n      0xff\n      and\n      swap1\n      pop\n      dup3\n      jump\t// out\n        /* \"contracts/1_Storage.sol\":1158:1952  function createCertificate(... */\n    tag_29:\n        /* \"contracts/1_Storage.sol\":1330:1343  uint256 newId */\n      0x00\n        /* \"contracts/1_Storage.sol\":1346:1363  nextCertificateId */\n      sload(0x02)\n        /* \"contracts/1_Storage.sol\":1330:1363  uint256 newId = nextCertificateId */\n      swap1\n      pop\n        /* \"contracts/1_Storage.sol\":1373:1415  CertificateCreation storage newCertificate */\n      0x00\n        /* \"contracts/1_Storage.sol\":1418:1430  certificates */\n      dup1\n        /* \"contracts/1_Storage.sol\":1418:1437  certificates[newId] */\n      0x00\n        /* \"contracts/1_Storage.sol\":1431:1436  newId */\n      dup4\n        /* \"contracts/1_Storage.sol\":1418:1437  certificates[newId] */\n      dup2\n      mstore\n      0x20\n      add\n      swap1\n      dup2\n      mstore\n      0x20\n      add\n      0x00\n      keccak256\n        /* \"contracts/1_Storage.sol\":1373:1437  CertificateCreation storage newCertificate = certificates[newId] */\n      swap1\n      pop\n        /* \"contracts/1_Storage.sol\":1467:1472  newId */\n      dup2\n        /* \"contracts/1_Storage.sol\":1447:1461  newCertificate */\n      dup2\n        /* \"contracts/1_Storage.sol\":1447:1464  newCertificate.id */\n      0x00\n      add\n        /* \"contracts/1_Storage.sol\":1447:1472  newCertificate.id = newId */\n      dup2\n      swap1\n      sstore\n      pop\n        /* \"contracts/1_Storage.sol\":1507:1517  msg.sender */\n      caller\n        /* \"contracts/1_Storage.sol\":1482:1496  newCertificate */\n      dup2\n        /* \"contracts/1_Storage.sol\":1482:1504  newCertificate.carrier */\n      0x01\n      add\n      0x00\n        /* \"contracts/1_Storage.sol\":1482:1517  newCertificate.carrier = msg.sender */\n      0x0100\n      exp\n      dup2\n      sload\n      dup2\n      0xffffffffffffffffffffffffffffffffffffffff\n      mul\n      not\n      and\n      swap1\n      dup4\n      0xffffffffffffffffffffffffffffffffffffffff\n      and\n      mul\n      or\n      swap1\n      sstore\n      pop\n        /* \"contracts/1_Storage.sol\":1554:1564  _recipient */\n      dup6\n        /* \"contracts/1_Storage.sol\":1527:1541  newCertificate */\n      dup2\n        /* \"contracts/1_Storage.sol\":1527:1551  newCertificate.recipient */\n      0x02\n      add\n      0x00\n        /* \"contracts/1_Storage.sol\":1527:1564  newCertificate.recipient = _recipient */\n      0x0100\n      exp\n      dup2\n      sload\n      dup2\n      0xffffffffffffffffffffffffffffffffffffffff\n      mul\n      not\n      and\n      swap1\n      dup4\n      0xffffffffffffffffffffffffffffffffffffffff\n      and\n      mul\n      or\n      swap1\n      sstore\n      pop\n        /* \"contracts/1_Storage.sol\":1596:1601  _data */\n      dup5\n        /* \"contracts/1_Storage.sol\":1574:1588  newCertificate */\n      dup2\n        /* \"contracts/1_Storage.sol\":1574:1593  newCertificate.data */\n      0x06\n      add\n        /* \"contracts/1_Storage.sol\":1574:1601  newCertificate.data = _data */\n      swap1\n      dup2\n      tag_78\n      swap2\n      swap1\n      tag_79\n      jump\t// in\n    tag_78:\n      pop\n        /* \"contracts/1_Storage.sol\":1640:1645  false */\n      0x00\n        /* \"contracts/1_Storage.sol\":1611:1625  newCertificate */\n      dup2\n        /* \"contracts/1_Storage.sol\":1611:1637  newCertificate.isFinalized */\n      0x07\n      add\n      0x00\n        /* \"contracts/1_Storage.sol\":1611:1645  newCertificate.isFinalized = false */\n      0x0100\n      exp\n      dup2\n      sload\n      dup2\n      0xff\n      mul\n      not\n      and\n      swap1\n      dup4\n      iszero\n      iszero\n      mul\n      or\n      swap1\n      sstore\n      pop\n        /* \"contracts/1_Storage.sol\":1655:1669  newCertificate */\n      dup1\n        /* \"contracts/1_Storage.sol\":1655:1685  newCertificate.collaboratorIds */\n      0x09\n      add\n        /* \"contracts/1_Storage.sol\":1691:1696  newId */\n      dup3\n        /* \"contracts/1_Storage.sol\":1655:1697  newCertificate.collaboratorIds.push(newId) */\n      swap1\n      dup1\n      0x01\n      dup2\n      sload\n      add\n      dup1\n      dup3\n      sstore\n      dup1\n      swap2\n      pop\n      pop\n      0x01\n      swap1\n      sub\n      swap1\n      0x00\n      mstore\n      keccak256(0x00, 0x20)\n      add\n      0x00\n      swap1\n      swap2\n      swap1\n      swap2\n      swap1\n      swap2\n      pop\n      sstore\n        /* \"contracts/1_Storage.sol\":1800:1804  true */\n      0x01\n        /* \"contracts/1_Storage.sol\":1752:1765  collaborators */\n      dup1\n        /* \"contracts/1_Storage.sol\":1752:1772  collaborators[newId] */\n      0x00\n        /* \"contracts/1_Storage.sol\":1766:1771  newId */\n      dup5\n        /* \"contracts/1_Storage.sol\":1752:1772  collaborators[newId] */\n      dup2\n      mstore\n      0x20\n      add\n      swap1\n      dup2\n      mstore\n      0x20\n      add\n      0x00\n      keccak256\n        /* \"contracts/1_Storage.sol\":1752:1784  collaborators[newId][msg.sender] */\n      0x00\n        /* \"contracts/1_Storage.sol\":1773:1783  msg.sender */\n      caller\n        /* \"contracts/1_Storage.sol\":1752:1784  collaborators[newId][msg.sender] */\n      0xffffffffffffffffffffffffffffffffffffffff\n      and\n      0xffffffffffffffffffffffffffffffffffffffff\n      and\n      dup2\n      mstore\n      0x20\n      add\n      swap1\n      dup2\n      mstore\n      0x20\n      add\n      0x00\n      keccak256\n        /* \"contracts/1_Storage.sol\":1752:1797  collaborators[newId][msg.sender].hasOwnership */\n      0x00\n      add\n      0x01\n        /* \"contracts/1_Storage.sol\":1752:1804  collaborators[newId][msg.sender].hasOwnership = true */\n      0x0100\n      exp\n      dup2\n      sload\n      dup2\n      0xff\n      mul\n      not\n      and\n      swap1\n      dup4\n      iszero\n      iszero\n      mul\n      or\n      swap1\n      sstore\n      pop\n        /* \"contracts/1_Storage.sol\":1849:1867  _manufacturingDate */\n      dup4\n        /* \"contracts/1_Storage.sol\":1814:1828  newCertificate */\n      dup2\n        /* \"contracts/1_Storage.sol\":1814:1846  newCertificate.manufacturingDate */\n      0x0a\n      add\n        /* \"contracts/1_Storage.sol\":1814:1867  newCertificate.manufacturingDate = _manufacturingDate */\n      dup2\n      swap1\n      sstore\n      pop\n        /* \"contracts/1_Storage.sol\":1905:1916  _expiryDate */\n      dup3\n        /* \"contracts/1_Storage.sol\":1877:1891  newCertificate */\n      dup2\n        /* \"contracts/1_Storage.sol\":1877:1902  newCertificate.expiryDate */\n      0x0b\n      add\n        /* \"contracts/1_Storage.sol\":1877:1916  newCertificate.expiryDate = _expiryDate */\n      dup2\n      swap1\n      sstore\n      pop\n        /* \"contracts/1_Storage.sol\":1926:1943  nextCertificateId */\n      0x02\n      0x00\n        /* \"contracts/1_Storage.sol\":1926:1945  nextCertificateId++ */\n      dup2\n      sload\n      dup1\n      swap3\n      swap2\n      swap1\n      tag_81\n      swap1\n      tag_82\n      jump\t// in\n    tag_81:\n      swap2\n      swap1\n      pop\n      sstore\n      pop\n        /* \"contracts/1_Storage.sol\":1320:1952  {... */\n      pop\n      pop\n        /* \"contracts/1_Storage.sol\":1158:1952  function createCertificate(... */\n      pop\n      pop\n      pop\n      pop\n      jump\t// out\n        /* \"contracts/1_Storage.sol\":3292:3876  function transferOwnership(uint256 _id, address _newOwner) public {... */\n    tag_32:\n        /* \"contracts/1_Storage.sol\":3382:3399  nextCertificateId */\n      sload(0x02)\n        /* \"contracts/1_Storage.sol\":3376:3379  _id */\n      dup3\n        /* \"contracts/1_Storage.sol\":3376:3399  _id < nextCertificateId */\n      lt\n        /* \"contracts/1_Storage.sol\":3368:3430  require(_id < nextCertificateId, \"Certificate does not exist\") */\n      tag_84\n      jumpi\n      mload(0x40)\n      0x08c379a000000000000000000000000000000000000000000000000000000000\n      dup2\n      mstore\n      0x04\n      add\n      tag_85\n      swap1\n      tag_86\n      jump\t// in\n    tag_85:\n      mload(0x40)\n      dup1\n      swap2\n      sub\n      swap1\n      revert\n    tag_84:\n        /* \"contracts/1_Storage.sol\":3440:3472  CertificateCreation storage cert */\n      0x00\n        /* \"contracts/1_Storage.sol\":3475:3487  certificates */\n      dup1\n        /* \"contracts/1_Storage.sol\":3475:3492  certificates[_id] */\n      0x00\n        /* \"contracts/1_Storage.sol\":3488:3491  _id */\n      dup5\n        /* \"contracts/1_Storage.sol\":3475:3492  certificates[_id] */\n      dup2\n      mstore\n      0x20\n      add\n      swap1\n      dup2\n      mstore\n      0x20\n      add\n      0x00\n      keccak256\n        /* \"contracts/1_Storage.sol\":3440:3492  CertificateCreation storage cert = certificates[_id] */\n      swap1\n      pop\n        /* \"contracts/1_Storage.sol\":3524:3528  cert */\n      dup1\n        /* \"contracts/1_Storage.sol\":3524:3536  cert.carrier */\n      0x01\n      add\n      0x00\n      swap1\n      sload\n      swap1\n      0x0100\n      exp\n      swap1\n      div\n      0xffffffffffffffffffffffffffffffffffffffff\n      and\n        /* \"contracts/1_Storage.sol\":3510:3536  msg.sender == cert.carrier */\n      0xffffffffffffffffffffffffffffffffffffffff\n      and\n        /* \"contracts/1_Storage.sol\":3510:3520  msg.sender */\n      caller\n        /* \"contracts/1_Storage.sol\":3510:3536  msg.sender == cert.carrier */\n      0xffffffffffffffffffffffffffffffffffffffff\n      and\n      eq\n        /* \"contracts/1_Storage.sol\":3502:3586  require(msg.sender == cert.carrier, \"Only the current owner can transfer ownership\") */\n      tag_87\n      jumpi\n      mload(0x40)\n      0x08c379a000000000000000000000000000000000000000000000000000000000\n      dup2\n      mstore\n      0x04\n      add\n      tag_88\n      swap1\n      tag_89\n      jump\t// in\n    tag_88:\n      mload(0x40)\n      dup1\n      swap2\n      sub\n      swap1\n      revert\n    tag_87:\n        /* \"contracts/1_Storage.sol\":3685:3694  _newOwner */\n      dup2\n        /* \"contracts/1_Storage.sol\":3670:3674  cert */\n      dup2\n        /* \"contracts/1_Storage.sol\":3670:3682  cert.carrier */\n      0x01\n      add\n      0x00\n        /* \"contracts/1_Storage.sol\":3670:3694  cert.carrier = _newOwner */\n      0x0100\n      exp\n      dup2\n      sload\n      dup2\n      0xffffffffffffffffffffffffffffffffffffffff\n      mul\n      not\n      and\n      swap1\n      dup4\n      0xffffffffffffffffffffffffffffffffffffffff\n      and\n      mul\n      or\n      swap1\n      sstore\n      pop\n        /* \"contracts/1_Storage.sol\":3792:3805  collaborators */\n      0x01\n        /* \"contracts/1_Storage.sol\":3792:3810  collaborators[_id] */\n      0x00\n        /* \"contracts/1_Storage.sol\":3806:3809  _id */\n      dup5\n        /* \"contracts/1_Storage.sol\":3792:3810  collaborators[_id] */\n      dup2\n      mstore\n      0x20\n      add\n      swap1\n      dup2\n      mstore\n      0x20\n      add\n      0x00\n      keccak256\n        /* \"contracts/1_Storage.sol\":3792:3822  collaborators[_id][msg.sender] */\n      0x00\n        /* \"contracts/1_Storage.sol\":3811:3821  msg.sender */\n      caller\n        /* \"contracts/1_Storage.sol\":3792:3822  collaborators[_id][msg.sender] */\n      0xffffffffffffffffffffffffffffffffffffffff\n      and\n      0xffffffffffffffffffffffffffffffffffffffff\n      and\n      dup2\n      mstore\n      0x20\n      add\n      swap1\n      dup2\n      mstore\n      0x20\n      add\n      0x00\n      keccak256\n        /* \"contracts/1_Storage.sol\":3760:3773  collaborators */\n      0x01\n        /* \"contracts/1_Storage.sol\":3760:3778  collaborators[_id] */\n      0x00\n        /* \"contracts/1_Storage.sol\":3774:3777  _id */\n      dup6\n        /* \"contracts/1_Storage.sol\":3760:3778  collaborators[_id] */\n      dup2\n      mstore\n      0x20\n      add\n      swap1\n      dup2\n      mstore\n      0x20\n      add\n      0x00\n      keccak256\n        /* \"contracts/1_Storage.sol\":3760:3789  collaborators[_id][_newOwner] */\n      0x00\n        /* \"contracts/1_Storage.sol\":3779:3788  _newOwner */\n      dup5\n        /* \"contracts/1_Storage.sol\":3760:3789  collaborators[_id][_newOwner] */\n      0xffffffffffffffffffffffffffffffffffffffff\n      and\n      0xffffffffffffffffffffffffffffffffffffffff\n      and\n      dup2\n      mstore\n      0x20\n      add\n      swap1\n      dup2\n      mstore\n      0x20\n      add\n      0x00\n      keccak256\n        /* \"contracts/1_Storage.sol\":3760:3822  collaborators[_id][_newOwner] = collaborators[_id][msg.sender] */\n      0x00\n      dup3\n      add\n      0x00\n      swap1\n      sload\n      swap1\n      0x0100\n      exp\n      swap1\n      div\n      0xff\n      and\n      dup2\n      0x00\n      add\n      exp(0x0100, 0x00)\n      dup2\n      sload\n      dup2\n      0xff\n      mul\n      not\n      and\n      swap1\n      dup4\n      iszero\n      iszero\n      mul\n      or\n      swap1\n      sstore\n      pop\n      0x00\n      dup3\n      add\n      0x01\n      swap1\n      sload\n      swap1\n      0x0100\n      exp\n      swap1\n      div\n      0xff\n      and\n      dup2\n      0x00\n      add\n      exp(0x0100, 0x01)\n      dup2\n      sload\n      dup2\n      0xff\n      mul\n      not\n      and\n      swap1\n      dup4\n      iszero\n      iszero\n      mul\n      or\n      swap1\n      sstore\n      pop\n      swap1\n      pop\n      pop\n        /* \"contracts/1_Storage.sol\":3839:3852  collaborators */\n      0x01\n        /* \"contracts/1_Storage.sol\":3839:3857  collaborators[_id] */\n      0x00\n        /* \"contracts/1_Storage.sol\":3853:3856  _id */\n      dup5\n        /* \"contracts/1_Storage.sol\":3839:3857  collaborators[_id] */\n      dup2\n      mstore\n      0x20\n      add\n      swap1\n      dup2\n      mstore\n      0x20\n      add\n      0x00\n      keccak256\n        /* \"contracts/1_Storage.sol\":3839:3869  collaborators[_id][msg.sender] */\n      0x00\n        /* \"contracts/1_Storage.sol\":3858:3868  msg.sender */\n      caller\n        /* \"contracts/1_Storage.sol\":3839:3869  collaborators[_id][msg.sender] */\n      0xffffffffffffffffffffffffffffffffffffffff\n      and\n      0xffffffffffffffffffffffffffffffffffffffff\n      and\n      dup2\n      mstore\n      0x20\n      add\n      swap1\n      dup2\n      mstore\n      0x20\n      add\n      0x00\n      keccak256\n      0x00\n        /* \"contracts/1_Storage.sol\":3832:3869  delete collaborators[_id][msg.sender] */\n      dup1\n      dup3\n      add\n      exp(0x0100, 0x00)\n      dup2\n      sload\n      swap1\n      0xff\n      mul\n      not\n      and\n      swap1\n      sstore\n      0x00\n      dup3\n      add\n      exp(0x0100, 0x01)\n      dup2\n      sload\n      swap1\n      0xff\n      mul\n      not\n      and\n      swap1\n      sstore\n      pop\n      pop\n        /* \"contracts/1_Storage.sol\":3358:3876  {... */\n      pop\n        /* \"contracts/1_Storage.sol\":3292:3876  function transferOwnership(uint256 _id, address _newOwner) public {... */\n      pop\n      pop\n      jump\t// out\n        /* \"contracts/1_Storage.sol\":2010:2549  function requestChanges(uint256 _id, string memory _updatedData) public {... */\n    tag_36:\n        /* \"contracts/1_Storage.sol\":2106:2123  nextCertificateId */\n      sload(0x02)\n        /* \"contracts/1_Storage.sol\":2100:2103  _id */\n      dup3\n        /* \"contracts/1_Storage.sol\":2100:2123  _id < nextCertificateId */\n      lt\n        /* \"contracts/1_Storage.sol\":2092:2154  require(_id < nextCertificateId, \"Certificate does not exist\") */\n      tag_91\n      jumpi\n      mload(0x40)\n      0x08c379a000000000000000000000000000000000000000000000000000000000\n      dup2\n      mstore\n      0x04\n      add\n      tag_92\n      swap1\n      tag_86\n      jump\t// in\n    tag_92:\n      mload(0x40)\n      dup1\n      swap2\n      sub\n      swap1\n      revert\n    tag_91:\n        /* \"contracts/1_Storage.sol\":2164:2196  CertificateCreation storage cert */\n      0x00\n        /* \"contracts/1_Storage.sol\":2199:2211  certificates */\n      dup1\n        /* \"contracts/1_Storage.sol\":2199:2216  certificates[_id] */\n      0x00\n        /* \"contracts/1_Storage.sol\":2212:2215  _id */\n      dup5\n        /* \"contracts/1_Storage.sol\":2199:2216  certificates[_id] */\n      dup2\n      mstore\n      0x20\n      add\n      swap1\n      dup2\n      mstore\n      0x20\n      add\n      0x00\n      keccak256\n        /* \"contracts/1_Storage.sol\":2164:2216  CertificateCreation storage cert = certificates[_id] */\n      swap1\n      pop\n        /* \"contracts/1_Storage.sol\":2250:2260  msg.sender */\n      caller\n        /* \"contracts/1_Storage.sol\":2234:2260  cert.carrier != msg.sender */\n      0xffffffffffffffffffffffffffffffffffffffff\n      and\n        /* \"contracts/1_Storage.sol\":2234:2238  cert */\n      dup2\n        /* \"contracts/1_Storage.sol\":2234:2246  cert.carrier */\n      0x01\n      add\n      0x00\n      swap1\n      sload\n      swap1\n      0x0100\n      exp\n      swap1\n      div\n      0xffffffffffffffffffffffffffffffffffffffff\n      and\n        /* \"contracts/1_Storage.sol\":2234:2260  cert.carrier != msg.sender */\n      0xffffffffffffffffffffffffffffffffffffffff\n      and\n      sub\n        /* \"contracts/1_Storage.sol\":2226:2302  require(cert.carrier != msg.sender, \"Only non-carriers can request changes\") */\n      tag_93\n      jumpi\n      mload(0x40)\n      0x08c379a000000000000000000000000000000000000000000000000000000000\n      dup2\n      mstore\n      0x04\n      add\n      tag_94\n      swap1\n      tag_95\n      jump\t// in\n    tag_94:\n      mload(0x40)\n      dup1\n      swap2\n      sub\n      swap1\n      revert\n    tag_93:\n        /* \"contracts/1_Storage.sol\":2321:2325  cert */\n      dup1\n        /* \"contracts/1_Storage.sol\":2321:2338  cert.changesCount */\n      0x05\n      add\n      0x00\n        /* \"contracts/1_Storage.sol\":2321:2340  cert.changesCount++ */\n      dup2\n      sload\n      dup1\n      swap3\n      swap2\n      swap1\n      tag_96\n      swap1\n      tag_82\n      jump\t// in\n    tag_96:\n      swap2\n      swap1\n      pop\n      sstore\n      pop\n        /* \"contracts/1_Storage.sol\":2497:2509  _updatedData */\n      dup2\n        /* \"contracts/1_Storage.sol\":2485:2489  cert */\n      dup2\n        /* \"contracts/1_Storage.sol\":2485:2494  cert.data */\n      0x06\n      add\n        /* \"contracts/1_Storage.sol\":2485:2509  cert.data = _updatedData */\n      swap1\n      dup2\n      tag_97\n      swap2\n      swap1\n      tag_79\n      jump\t// in\n    tag_97:\n      pop\n        /* \"contracts/1_Storage.sol\":2538:2542  true */\n      0x01\n        /* \"contracts/1_Storage.sol\":2519:2523  cert */\n      dup2\n        /* \"contracts/1_Storage.sol\":2519:2535  cert.isFinalized */\n      0x07\n      add\n      0x00\n        /* \"contracts/1_Storage.sol\":2519:2542  cert.isFinalized = true */\n      0x0100\n      exp\n      dup2\n      sload\n      dup2\n      0xff\n      mul\n      not\n      and\n      swap1\n      dup4\n      iszero\n      iszero\n      mul\n      or\n      swap1\n      sstore\n      pop\n        /* \"contracts/1_Storage.sol\":2082:2549  {... */\n      pop\n        /* \"contracts/1_Storage.sol\":2010:2549  function requestChanges(uint256 _id, string memory _updatedData) public {... */\n      pop\n      pop\n      jump\t// out\n        /* \"contracts/1_Storage.sol\":5961:6350  function removeNominee(uint256 _id, address _nominee) public {... */\n    tag_39:\n        /* \"contracts/1_Storage.sol\":6046:6063  nextCertificateId */\n      sload(0x02)\n        /* \"contracts/1_Storage.sol\":6040:6043  _id */\n      dup3\n        /* \"contracts/1_Storage.sol\":6040:6063  _id < nextCertificateId */\n      lt\n        /* \"contracts/1_Storage.sol\":6032:6094  require(_id < nextCertificateId, \"Certificate does not exist\") */\n      tag_99\n      jumpi\n      mload(0x40)\n      0x08c379a000000000000000000000000000000000000000000000000000000000\n      dup2\n      mstore\n      0x04\n      add\n      tag_100\n      swap1\n      tag_86\n      jump\t// in\n    tag_100:\n      mload(0x40)\n      dup1\n      swap2\n      sub\n      swap1\n      revert\n    tag_99:\n        /* \"contracts/1_Storage.sol\":6104:6136  CertificateCreation storage cert */\n      0x00\n        /* \"contracts/1_Storage.sol\":6139:6151  certificates */\n      dup1\n        /* \"contracts/1_Storage.sol\":6139:6156  certificates[_id] */\n      0x00\n        /* \"contracts/1_Storage.sol\":6152:6155  _id */\n      dup5\n        /* \"contracts/1_Storage.sol\":6139:6156  certificates[_id] */\n      dup2\n      mstore\n      0x20\n      add\n      swap1\n      dup2\n      mstore\n      0x20\n      add\n      0x00\n      keccak256\n        /* \"contracts/1_Storage.sol\":6104:6156  CertificateCreation storage cert = certificates[_id] */\n      swap1\n      pop\n        /* \"contracts/1_Storage.sol\":6192:6202  msg.sender */\n      caller\n        /* \"contracts/1_Storage.sol\":6174:6202  cert.recipient == msg.sender */\n      0xffffffffffffffffffffffffffffffffffffffff\n      and\n        /* \"contracts/1_Storage.sol\":6174:6178  cert */\n      dup2\n        /* \"contracts/1_Storage.sol\":6174:6188  cert.recipient */\n      0x02\n      add\n      0x00\n      swap1\n      sload\n      swap1\n      0x0100\n      exp\n      swap1\n      div\n      0xffffffffffffffffffffffffffffffffffffffff\n      and\n        /* \"contracts/1_Storage.sol\":6174:6202  cert.recipient == msg.sender */\n      0xffffffffffffffffffffffffffffffffffffffff\n      and\n      eq\n        /* \"contracts/1_Storage.sol\":6166:6246  require(cert.recipient == msg.sender, \"Only the main owner can remove nominees\") */\n      tag_101\n      jumpi\n      mload(0x40)\n      0x08c379a000000000000000000000000000000000000000000000000000000000\n      dup2\n      mstore\n      0x04\n      add\n      tag_102\n      swap1\n      tag_103\n      jump\t// in\n    tag_102:\n      mload(0x40)\n      dup1\n      swap2\n      sub\n      swap1\n      revert\n    tag_101:\n        /* \"contracts/1_Storage.sol\":6320:6324  cert */\n      dup1\n        /* \"contracts/1_Storage.sol\":6320:6333  cert.nominees */\n      0x03\n      add\n        /* \"contracts/1_Storage.sol\":6320:6343  cert.nominees[_nominee] */\n      0x00\n        /* \"contracts/1_Storage.sol\":6334:6342  _nominee */\n      dup4\n        /* \"contracts/1_Storage.sol\":6320:6343  cert.nominees[_nominee] */\n      0xffffffffffffffffffffffffffffffffffffffff\n      and\n      0xffffffffffffffffffffffffffffffffffffffff\n      and\n      dup2\n      mstore\n      0x20\n      add\n      swap1\n      dup2\n      mstore\n      0x20\n      add\n      0x00\n      keccak256\n      0x00\n        /* \"contracts/1_Storage.sol\":6313:6343  delete cert.nominees[_nominee] */\n      0x0100\n      exp\n      dup2\n      sload\n      swap1\n      0xff\n      mul\n      not\n      and\n      swap1\n      sstore\n        /* \"contracts/1_Storage.sol\":6022:6350  {... */\n      pop\n        /* \"contracts/1_Storage.sol\":5961:6350  function removeNominee(uint256 _id, address _nominee) public {... */\n      pop\n      pop\n      jump\t// out\n        /* \"contracts/1_Storage.sol\":6404:6693  function getCertificate(uint256 _id) public view returns (address, string memory, bool) {... */\n    tag_43:\n        /* \"contracts/1_Storage.sol\":6462:6469  address */\n      0x00\n        /* \"contracts/1_Storage.sol\":6471:6484  string memory */\n      0x60\n        /* \"contracts/1_Storage.sol\":6486:6490  bool */\n      0x00\n        /* \"contracts/1_Storage.sol\":6516:6533  nextCertificateId */\n      sload(0x02)\n        /* \"contracts/1_Storage.sol\":6510:6513  _id */\n      dup5\n        /* \"contracts/1_Storage.sol\":6510:6533  _id < nextCertificateId */\n      lt\n        /* \"contracts/1_Storage.sol\":6502:6564  require(_id < nextCertificateId, \"Certificate does not exist\") */\n      tag_105\n      jumpi\n      mload(0x40)\n      0x08c379a000000000000000000000000000000000000000000000000000000000\n      dup2\n      mstore\n      0x04\n      add\n      tag_106\n      swap1\n      tag_86\n      jump\t// in\n    tag_106:\n      mload(0x40)\n      dup1\n      swap2\n      sub\n      swap1\n      revert\n    tag_105:\n        /* \"contracts/1_Storage.sol\":6574:6606  CertificateCreation storage cert */\n      0x00\n        /* \"contracts/1_Storage.sol\":6609:6621  certificates */\n      dup1\n        /* \"contracts/1_Storage.sol\":6609:6626  certificates[_id] */\n      0x00\n        /* \"contracts/1_Storage.sol\":6622:6625  _id */\n      dup7\n        /* \"contracts/1_Storage.sol\":6609:6626  certificates[_id] */\n      dup2\n      mstore\n      0x20\n      add\n      swap1\n      dup2\n      mstore\n      0x20\n      add\n      0x00\n      keccak256\n        /* \"contracts/1_Storage.sol\":6574:6626  CertificateCreation storage cert = certificates[_id] */\n      swap1\n      pop\n        /* \"contracts/1_Storage.sol\":6644:6648  cert */\n      dup1\n        /* \"contracts/1_Storage.sol\":6644:6656  cert.carrier */\n      0x01\n      add\n      0x00\n      swap1\n      sload\n      swap1\n      0x0100\n      exp\n      swap1\n      div\n      0xffffffffffffffffffffffffffffffffffffffff\n      and\n        /* \"contracts/1_Storage.sol\":6658:6662  cert */\n      dup2\n        /* \"contracts/1_Storage.sol\":6658:6667  cert.data */\n      0x06\n      add\n        /* \"contracts/1_Storage.sol\":6669:6673  cert */\n      dup3\n        /* \"contracts/1_Storage.sol\":6669:6685  cert.isFinalized */\n      0x07\n      add\n      0x00\n      swap1\n      sload\n      swap1\n      0x0100\n      exp\n      swap1\n      div\n      0xff\n      and\n        /* \"contracts/1_Storage.sol\":6636:6686  return (cert.carrier, cert.data, cert.isFinalized) */\n      dup2\n      dup1\n      sload\n      tag_107\n      swap1\n      tag_108\n      jump\t// in\n    tag_107:\n      dup1\n      0x1f\n      add\n      0x20\n      dup1\n      swap2\n      div\n      mul\n      0x20\n      add\n      mload(0x40)\n      swap1\n      dup2\n      add\n      0x40\n      mstore\n      dup1\n      swap3\n      swap2\n      swap1\n      dup2\n      dup2\n      mstore\n      0x20\n      add\n      dup3\n      dup1\n      sload\n      tag_109\n      swap1\n      tag_108\n      jump\t// in\n    tag_109:\n      dup1\n      iszero\n      tag_110\n      jumpi\n      dup1\n      0x1f\n      lt\n      tag_111\n      jumpi\n      0x0100\n      dup1\n      dup4\n      sload\n      div\n      mul\n      dup4\n      mstore\n      swap2\n      0x20\n      add\n      swap2\n      jump(tag_110)\n    tag_111:\n      dup3\n      add\n      swap2\n      swap1\n      0x00\n      mstore\n      keccak256(0x00, 0x20)\n      swap1\n    tag_112:\n      dup2\n      sload\n      dup2\n      mstore\n      swap1\n      0x01\n      add\n      swap1\n      0x20\n      add\n      dup1\n      dup4\n      gt\n      tag_112\n      jumpi\n      dup3\n      swap1\n      sub\n      0x1f\n      and\n      dup3\n      add\n      swap2\n    tag_110:\n      pop\n      pop\n      pop\n      pop\n      pop\n      swap2\n      pop\n      swap4\n      pop\n      swap4\n      pop\n      swap4\n      pop\n      pop\n        /* \"contracts/1_Storage.sol\":6404:6693  function getCertificate(uint256 _id) public view returns (address, string memory, bool) {... */\n      swap2\n      swap4\n      swap1\n      swap3\n      pop\n      jump\t// out\n        /* \"contracts/1_Storage.sol\":4618:5503  function removeCollaborator(uint256 _id, address _collaborator) public {... */\n    tag_48:\n        /* \"contracts/1_Storage.sol\":4713:4730  nextCertificateId */\n      sload(0x02)\n        /* \"contracts/1_Storage.sol\":4707:4710  _id */\n      dup3\n        /* \"contracts/1_Storage.sol\":4707:4730  _id < nextCertificateId */\n      lt\n        /* \"contracts/1_Storage.sol\":4699:4761  require(_id < nextCertificateId, \"Certificate does not exist\") */\n      tag_114\n      jumpi\n      mload(0x40)\n      0x08c379a000000000000000000000000000000000000000000000000000000000\n      dup2\n      mstore\n      0x04\n      add\n      tag_115\n      swap1\n      tag_86\n      jump\t// in\n    tag_115:\n      mload(0x40)\n      dup1\n      swap2\n      sub\n      swap1\n      revert\n    tag_114:\n        /* \"contracts/1_Storage.sol\":4771:4803  CertificateCreation storage cert */\n      0x00\n        /* \"contracts/1_Storage.sol\":4806:4818  certificates */\n      dup1\n        /* \"contracts/1_Storage.sol\":4806:4823  certificates[_id] */\n      0x00\n        /* \"contracts/1_Storage.sol\":4819:4822  _id */\n      dup5\n        /* \"contracts/1_Storage.sol\":4806:4823  certificates[_id] */\n      dup2\n      mstore\n      0x20\n      add\n      swap1\n      dup2\n      mstore\n      0x20\n      add\n      0x00\n      keccak256\n        /* \"contracts/1_Storage.sol\":4771:4823  CertificateCreation storage cert = certificates[_id] */\n      swap1\n      pop\n        /* \"contracts/1_Storage.sol\":4855:4859  cert */\n      dup1\n        /* \"contracts/1_Storage.sol\":4855:4867  cert.carrier */\n      0x01\n      add\n      0x00\n      swap1\n      sload\n      swap1\n      0x0100\n      exp\n      swap1\n      div\n      0xffffffffffffffffffffffffffffffffffffffff\n      and\n        /* \"contracts/1_Storage.sol\":4841:4867  msg.sender == cert.carrier */\n      0xffffffffffffffffffffffffffffffffffffffff\n      and\n        /* \"contracts/1_Storage.sol\":4841:4851  msg.sender */\n      caller\n        /* \"contracts/1_Storage.sol\":4841:4867  msg.sender == cert.carrier */\n      0xffffffffffffffffffffffffffffffffffffffff\n      and\n      eq\n        /* \"contracts/1_Storage.sol\":4841:4914  msg.sender == cert.carrier || collaborators[_id][msg.sender].hasOwnership */\n      dup1\n      tag_116\n      jumpi\n      pop\n        /* \"contracts/1_Storage.sol\":4871:4884  collaborators */\n      0x01\n        /* \"contracts/1_Storage.sol\":4871:4889  collaborators[_id] */\n      0x00\n        /* \"contracts/1_Storage.sol\":4885:4888  _id */\n      dup5\n        /* \"contracts/1_Storage.sol\":4871:4889  collaborators[_id] */\n      dup2\n      mstore\n      0x20\n      add\n      swap1\n      dup2\n      mstore\n      0x20\n      add\n      0x00\n      keccak256\n        /* \"contracts/1_Storage.sol\":4871:4901  collaborators[_id][msg.sender] */\n      0x00\n        /* \"contracts/1_Storage.sol\":4890:4900  msg.sender */\n      caller\n        /* \"contracts/1_Storage.sol\":4871:4901  collaborators[_id][msg.sender] */\n      0xffffffffffffffffffffffffffffffffffffffff\n      and\n      0xffffffffffffffffffffffffffffffffffffffff\n      and\n      dup2\n      mstore\n      0x20\n      add\n      swap1\n      dup2\n      mstore\n      0x20\n      add\n      0x00\n      keccak256\n        /* \"contracts/1_Storage.sol\":4871:4914  collaborators[_id][msg.sender].hasOwnership */\n      0x00\n      add\n      0x01\n      swap1\n      sload\n      swap1\n      0x0100\n      exp\n      swap1\n      div\n      0xff\n      and\n        /* \"contracts/1_Storage.sol\":4841:4914  msg.sender == cert.carrier || collaborators[_id][msg.sender].hasOwnership */\n    tag_116:\n        /* \"contracts/1_Storage.sol\":4833:4991  require(msg.sender == cert.carrier || collaborators[_id][msg.sender].hasOwnership, \"Only the carrier or collaborator with ownership can remove collaborators\") */\n      tag_117\n      jumpi\n      mload(0x40)\n      0x08c379a000000000000000000000000000000000000000000000000000000000\n      dup2\n      mstore\n      0x04\n      add\n      tag_118\n      swap1\n      tag_119\n      jump\t// in\n    tag_118:\n      mload(0x40)\n      dup1\n      swap2\n      sub\n      swap1\n      revert\n    tag_117:\n        /* \"contracts/1_Storage.sol\":5074:5087  collaborators */\n      0x01\n        /* \"contracts/1_Storage.sol\":5074:5092  collaborators[_id] */\n      0x00\n        /* \"contracts/1_Storage.sol\":5088:5091  _id */\n      dup5\n        /* \"contracts/1_Storage.sol\":5074:5092  collaborators[_id] */\n      dup2\n      mstore\n      0x20\n      add\n      swap1\n      dup2\n      mstore\n      0x20\n      add\n      0x00\n      keccak256\n        /* \"contracts/1_Storage.sol\":5074:5107  collaborators[_id][_collaborator] */\n      0x00\n        /* \"contracts/1_Storage.sol\":5093:5106  _collaborator */\n      dup4\n        /* \"contracts/1_Storage.sol\":5074:5107  collaborators[_id][_collaborator] */\n      0xffffffffffffffffffffffffffffffffffffffff\n      and\n      0xffffffffffffffffffffffffffffffffffffffff\n      and\n      dup2\n      mstore\n      0x20\n      add\n      swap1\n      dup2\n      mstore\n      0x20\n      add\n      0x00\n      keccak256\n      0x00\n        /* \"contracts/1_Storage.sol\":5067:5107  delete collaborators[_id][_collaborator] */\n      dup1\n      dup3\n      add\n      exp(0x0100, 0x00)\n      dup2\n      sload\n      swap1\n      0xff\n      mul\n      not\n      and\n      swap1\n      sstore\n      0x00\n      dup3\n      add\n      exp(0x0100, 0x01)\n      dup2\n      sload\n      swap1\n      0xff\n      mul\n      not\n      and\n      swap1\n      sstore\n      pop\n      pop\n        /* \"contracts/1_Storage.sol\":5205:5214  uint256 i */\n      0x00\n        /* \"contracts/1_Storage.sol\":5200:5497  for (uint256 i = 0; i < cert.collaboratorIds.length; i++) {... */\n    tag_120:\n        /* \"contracts/1_Storage.sol\":5224:5228  cert */\n      dup2\n        /* \"contracts/1_Storage.sol\":5224:5244  cert.collaboratorIds */\n      0x09\n      add\n        /* \"contracts/1_Storage.sol\":5224:5251  cert.collaboratorIds.length */\n      dup1\n      sload\n      swap1\n      pop\n        /* \"contracts/1_Storage.sol\":5220:5221  i */\n      dup2\n        /* \"contracts/1_Storage.sol\":5220:5251  i < cert.collaboratorIds.length */\n      lt\n        /* \"contracts/1_Storage.sol\":5200:5497  for (uint256 i = 0; i < cert.collaboratorIds.length; i++) {... */\n      iszero\n      tag_121\n      jumpi\n        /* \"contracts/1_Storage.sol\":5303:5306  _id */\n      dup4\n        /* \"contracts/1_Storage.sol\":5276:5280  cert */\n      dup3\n        /* \"contracts/1_Storage.sol\":5276:5296  cert.collaboratorIds */\n      0x09\n      add\n        /* \"contracts/1_Storage.sol\":5297:5298  i */\n      dup3\n        /* \"contracts/1_Storage.sol\":5276:5299  cert.collaboratorIds[i] */\n      dup2\n      sload\n      dup2\n      lt\n      tag_123\n      jumpi\n      tag_124\n      tag_125\n      jump\t// in\n    tag_124:\n    tag_123:\n      swap1\n      0x00\n      mstore\n      keccak256(0x00, 0x20)\n      add\n      sload\n        /* \"contracts/1_Storage.sol\":5276:5306  cert.collaboratorIds[i] == _id */\n      sub\n        /* \"contracts/1_Storage.sol\":5272:5487  if (cert.collaboratorIds[i] == _id) {... */\n      tag_127\n      jumpi\n        /* \"contracts/1_Storage.sol\":5352:5356  cert */\n      dup2\n        /* \"contracts/1_Storage.sol\":5352:5372  cert.collaboratorIds */\n      0x09\n      add\n        /* \"contracts/1_Storage.sol\":5403:5404  1 */\n      0x01\n        /* \"contracts/1_Storage.sol\":5373:5377  cert */\n      dup4\n        /* \"contracts/1_Storage.sol\":5373:5393  cert.collaboratorIds */\n      0x09\n      add\n        /* \"contracts/1_Storage.sol\":5373:5400  cert.collaboratorIds.length */\n      dup1\n      sload\n      swap1\n      pop\n        /* \"contracts/1_Storage.sol\":5373:5404  cert.collaboratorIds.length - 1 */\n      tag_128\n      swap2\n      swap1\n      tag_129\n      jump\t// in\n    tag_128:\n        /* \"contracts/1_Storage.sol\":5352:5405  cert.collaboratorIds[cert.collaboratorIds.length - 1] */\n      dup2\n      sload\n      dup2\n      lt\n      tag_130\n      jumpi\n      tag_131\n      tag_125\n      jump\t// in\n    tag_131:\n    tag_130:\n      swap1\n      0x00\n      mstore\n      keccak256(0x00, 0x20)\n      add\n      sload\n        /* \"contracts/1_Storage.sol\":5326:5330  cert */\n      dup3\n        /* \"contracts/1_Storage.sol\":5326:5346  cert.collaboratorIds */\n      0x09\n      add\n        /* \"contracts/1_Storage.sol\":5347:5348  i */\n      dup3\n        /* \"contracts/1_Storage.sol\":5326:5349  cert.collaboratorIds[i] */\n      dup2\n      sload\n      dup2\n      lt\n      tag_133\n      jumpi\n      tag_134\n      tag_125\n      jump\t// in\n    tag_134:\n    tag_133:\n      swap1\n      0x00\n      mstore\n      keccak256(0x00, 0x20)\n      add\n        /* \"contracts/1_Storage.sol\":5326:5405  cert.collaboratorIds[i] = cert.collaboratorIds[cert.collaboratorIds.length - 1] */\n      dup2\n      swap1\n      sstore\n      pop\n        /* \"contracts/1_Storage.sol\":5423:5427  cert */\n      dup2\n        /* \"contracts/1_Storage.sol\":5423:5443  cert.collaboratorIds */\n      0x09\n      add\n        /* \"contracts/1_Storage.sol\":5423:5449  cert.collaboratorIds.pop() */\n      dup1\n      sload\n      dup1\n      tag_136\n      jumpi\n      tag_137\n      tag_138\n      jump\t// in\n    tag_137:\n    tag_136:\n      0x01\n      swap1\n      sub\n      dup2\n      dup2\n      swap1\n      0x00\n      mstore\n      keccak256(0x00, 0x20)\n      add\n      0x00\n      swap1\n      sstore\n      swap1\n      sstore\n        /* \"contracts/1_Storage.sol\":5467:5472  break */\n      jump(tag_121)\n        /* \"contracts/1_Storage.sol\":5272:5487  if (cert.collaboratorIds[i] == _id) {... */\n    tag_127:\n        /* \"contracts/1_Storage.sol\":5253:5256  i++ */\n      dup1\n      dup1\n      0x01\n      add\n      swap2\n      pop\n      pop\n        /* \"contracts/1_Storage.sol\":5200:5497  for (uint256 i = 0; i < cert.collaboratorIds.length; i++) {... */\n      jump(tag_120)\n    tag_121:\n      pop\n        /* \"contracts/1_Storage.sol\":4689:5503  {... */\n      pop\n        /* \"contracts/1_Storage.sol\":4618:5503  function removeCollaborator(uint256 _id, address _collaborator) public {... */\n      pop\n      pop\n      jump\t// out\n        /* \"contracts/1_Storage.sol\":930:989  mapping(uint256 => CertificateCreation) public certificates */\n    tag_51:\n      mstore(0x20, 0x00)\n      dup1\n      0x00\n      mstore\n      keccak256(0x00, 0x40)\n      0x00\n      swap2\n      pop\n      swap1\n      pop\n      dup1\n      0x00\n      add\n      sload\n      swap1\n      dup1\n      0x01\n      add\n      0x00\n      swap1\n      sload\n      swap1\n      0x0100\n      exp\n      swap1\n      div\n      0xffffffffffffffffffffffffffffffffffffffff\n      and\n      swap1\n      dup1\n      0x02\n      add\n      0x00\n      swap1\n      sload\n      swap1\n      0x0100\n      exp\n      swap1\n      div\n      0xffffffffffffffffffffffffffffffffffffffff\n      and\n      swap1\n      dup1\n      0x05\n      add\n      sload\n      swap1\n      dup1\n      0x06\n      add\n      dup1\n      sload\n      tag_140\n      swap1\n      tag_108\n      jump\t// in\n    tag_140:\n      dup1\n      0x1f\n      add\n      0x20\n      dup1\n      swap2\n      div\n      mul\n      0x20\n      add\n      mload(0x40)\n      swap1\n      dup2\n      add\n      0x40\n      mstore\n      dup1\n      swap3\n      swap2\n      swap1\n      dup2\n      dup2\n      mstore\n      0x20\n      add\n      dup3\n      dup1\n      sload\n      tag_141\n      swap1\n      tag_108\n      jump\t// in\n    tag_141:\n      dup1\n      iszero\n      tag_142\n      jumpi\n      dup1\n      0x1f\n      lt\n      tag_143\n      jumpi\n      0x0100\n      dup1\n      dup4\n      sload\n      div\n      mul\n      dup4\n      mstore\n      swap2\n      0x20\n      add\n      swap2\n      jump(tag_142)\n    tag_143:\n      dup3\n      add\n      swap2\n      swap1\n      0x00\n      mstore\n      keccak256(0x00, 0x20)\n      swap1\n    tag_144:\n      dup2\n      sload\n      dup2\n      mstore\n      swap1\n      0x01\n      add\n      swap1\n      0x20\n      add\n      dup1\n      dup4\n      gt\n      tag_144\n      jumpi\n      dup3\n      swap1\n      sub\n      0x1f\n      and\n      dup3\n      add\n      swap2\n    tag_142:\n      pop\n      pop\n      pop\n      pop\n      pop\n      swap1\n      dup1\n      0x07\n      add\n      0x00\n      swap1\n      sload\n      swap1\n      0x0100\n      exp\n      swap1\n      div\n      0xff\n      and\n      swap1\n      dup1\n      0x0a\n      add\n      sload\n      swap1\n      dup1\n      0x0b\n      add\n      sload\n      swap1\n      pop\n      dup9\n      jump\t// out\n        /* \"contracts/1_Storage.sol\":2607:3229  function approveChanges(uint256 _id, uint256 _changeId) public {... */\n    tag_57:\n        /* \"contracts/1_Storage.sol\":2694:2711  nextCertificateId */\n      sload(0x02)\n        /* \"contracts/1_Storage.sol\":2688:2691  _id */\n      dup3\n        /* \"contracts/1_Storage.sol\":2688:2711  _id < nextCertificateId */\n      lt\n        /* \"contracts/1_Storage.sol\":2680:2742  require(_id < nextCertificateId, \"Certificate does not exist\") */\n      tag_146\n      jumpi\n      mload(0x40)\n      0x08c379a000000000000000000000000000000000000000000000000000000000\n      dup2\n      mstore\n      0x04\n      add\n      tag_147\n      swap1\n      tag_86\n      jump\t// in\n    tag_147:\n      mload(0x40)\n      dup1\n      swap2\n      sub\n      swap1\n      revert\n    tag_146:\n        /* \"contracts/1_Storage.sol\":2752:2784  CertificateCreation storage cert */\n      0x00\n        /* \"contracts/1_Storage.sol\":2787:2799  certificates */\n      dup1\n        /* \"contracts/1_Storage.sol\":2787:2804  certificates[_id] */\n      0x00\n        /* \"contracts/1_Storage.sol\":2800:2803  _id */\n      dup5\n        /* \"contracts/1_Storage.sol\":2787:2804  certificates[_id] */\n      dup2\n      mstore\n      0x20\n      add\n      swap1\n      dup2\n      mstore\n      0x20\n      add\n      0x00\n      keccak256\n        /* \"contracts/1_Storage.sol\":2752:2804  CertificateCreation storage cert = certificates[_id] */\n      swap1\n      pop\n        /* \"contracts/1_Storage.sol\":2838:2848  msg.sender */\n      caller\n        /* \"contracts/1_Storage.sol\":2822:2848  cert.carrier == msg.sender */\n      0xffffffffffffffffffffffffffffffffffffffff\n      and\n        /* \"contracts/1_Storage.sol\":2822:2826  cert */\n      dup2\n        /* \"contracts/1_Storage.sol\":2822:2834  cert.carrier */\n      0x01\n      add\n      0x00\n      swap1\n      sload\n      swap1\n      0x0100\n      exp\n      swap1\n      div\n      0xffffffffffffffffffffffffffffffffffffffff\n      and\n        /* \"contracts/1_Storage.sol\":2822:2848  cert.carrier == msg.sender */\n      0xffffffffffffffffffffffffffffffffffffffff\n      and\n      eq\n        /* \"contracts/1_Storage.sol\":2822:2895  cert.carrier == msg.sender || collaborators[_id][msg.sender].hasOwnership */\n      dup1\n      tag_148\n      jumpi\n      pop\n        /* \"contracts/1_Storage.sol\":2852:2865  collaborators */\n      0x01\n        /* \"contracts/1_Storage.sol\":2852:2870  collaborators[_id] */\n      0x00\n        /* \"contracts/1_Storage.sol\":2866:2869  _id */\n      dup5\n        /* \"contracts/1_Storage.sol\":2852:2870  collaborators[_id] */\n      dup2\n      mstore\n      0x20\n      add\n      swap1\n      dup2\n      mstore\n      0x20\n      add\n      0x00\n      keccak256\n        /* \"contracts/1_Storage.sol\":2852:2882  collaborators[_id][msg.sender] */\n      0x00\n        /* \"contracts/1_Storage.sol\":2871:2881  msg.sender */\n      caller\n        /* \"contracts/1_Storage.sol\":2852:2882  collaborators[_id][msg.sender] */\n      0xffffffffffffffffffffffffffffffffffffffff\n      and\n      0xffffffffffffffffffffffffffffffffffffffff\n      and\n      dup2\n      mstore\n      0x20\n      add\n      swap1\n      dup2\n      mstore\n      0x20\n      add\n      0x00\n      keccak256\n        /* \"contracts/1_Storage.sol\":2852:2895  collaborators[_id][msg.sender].hasOwnership */\n      0x00\n      add\n      0x01\n      swap1\n      sload\n      swap1\n      0x0100\n      exp\n      swap1\n      div\n      0xff\n      and\n        /* \"contracts/1_Storage.sol\":2822:2895  cert.carrier == msg.sender || collaborators[_id][msg.sender].hasOwnership */\n    tag_148:\n        /* \"contracts/1_Storage.sol\":2814:2967  require(cert.carrier == msg.sender || collaborators[_id][msg.sender].hasOwnership, \"Only the carrier or collaborator with ownership can approve changes\") */\n      tag_149\n      jumpi\n      mload(0x40)\n      0x08c379a000000000000000000000000000000000000000000000000000000000\n      dup2\n      mstore\n      0x04\n      add\n      tag_150\n      swap1\n      tag_151\n      jump\t// in\n    tag_150:\n      mload(0x40)\n      dup1\n      swap2\n      sub\n      swap1\n      revert\n    tag_149:\n        /* \"contracts/1_Storage.sol\":3039:3043  cert */\n      dup1\n        /* \"contracts/1_Storage.sol\":3039:3056  cert.changesCount */\n      0x05\n      add\n      sload\n        /* \"contracts/1_Storage.sol\":3027:3036  _changeId */\n      dup3\n        /* \"contracts/1_Storage.sol\":3027:3056  _changeId < cert.changesCount */\n      lt\n        /* \"contracts/1_Storage.sol\":3019:3078  require(_changeId < cert.changesCount, \"Invalid change ID\") */\n      tag_152\n      jumpi\n      mload(0x40)\n      0x08c379a000000000000000000000000000000000000000000000000000000000\n      dup2\n      mstore\n      0x04\n      add\n      tag_153\n      swap1\n      tag_154\n      jump\t// in\n    tag_153:\n      mload(0x40)\n      dup1\n      swap2\n      sub\n      swap1\n      revert\n    tag_152:\n        /* \"contracts/1_Storage.sol\":3167:3171  true */\n      0x01\n        /* \"contracts/1_Storage.sol\":3119:3123  cert */\n      dup2\n        /* \"contracts/1_Storage.sol\":3119:3131  cert.changes */\n      0x04\n      add\n        /* \"contracts/1_Storage.sol\":3119:3142  cert.changes[_changeId] */\n      0x00\n        /* \"contracts/1_Storage.sol\":3132:3141  _changeId */\n      dup5\n        /* \"contracts/1_Storage.sol\":3119:3142  cert.changes[_changeId] */\n      dup2\n      mstore\n      0x20\n      add\n      swap1\n      dup2\n      mstore\n      0x20\n      add\n      0x00\n      keccak256\n        /* \"contracts/1_Storage.sol\":3119:3152  cert.changes[_changeId].approvals */\n      0x03\n      add\n        /* \"contracts/1_Storage.sol\":3119:3164  cert.changes[_changeId].approvals[msg.sender] */\n      0x00\n        /* \"contracts/1_Storage.sol\":3153:3163  msg.sender */\n      caller\n        /* \"contracts/1_Storage.sol\":3119:3164  cert.changes[_changeId].approvals[msg.sender] */\n      0xffffffffffffffffffffffffffffffffffffffff\n      and\n      0xffffffffffffffffffffffffffffffffffffffff\n      and\n      dup2\n      mstore\n      0x20\n      add\n      swap1\n      dup2\n      mstore\n      0x20\n      add\n      0x00\n      keccak256\n      0x00\n        /* \"contracts/1_Storage.sol\":3119:3171  cert.changes[_changeId].approvals[msg.sender] = true */\n      0x0100\n      exp\n      dup2\n      sload\n      dup2\n      0xff\n      mul\n      not\n      and\n      swap1\n      dup4\n      iszero\n      iszero\n      mul\n      or\n      swap1\n      sstore\n      pop\n        /* \"contracts/1_Storage.sol\":3218:3222  true */\n      0x01\n        /* \"contracts/1_Storage.sol\":3181:3185  cert */\n      dup2\n        /* \"contracts/1_Storage.sol\":3181:3193  cert.changes */\n      0x04\n      add\n        /* \"contracts/1_Storage.sol\":3181:3204  cert.changes[_changeId] */\n      0x00\n        /* \"contracts/1_Storage.sol\":3194:3203  _changeId */\n      dup5\n        /* \"contracts/1_Storage.sol\":3181:3204  cert.changes[_changeId] */\n      dup2\n      mstore\n      0x20\n      add\n      swap1\n      dup2\n      mstore\n      0x20\n      add\n      0x00\n      keccak256\n        /* \"contracts/1_Storage.sol\":3181:3215  cert.changes[_changeId].isApproved */\n      0x04\n      add\n      0x00\n        /* \"contracts/1_Storage.sol\":3181:3222  cert.changes[_changeId].isApproved = true */\n      0x0100\n      exp\n      dup2\n      sload\n      dup2\n      0xff\n      mul\n      not\n      and\n      swap1\n      dup4\n      iszero\n      iszero\n      mul\n      or\n      swap1\n      sstore\n      pop\n        /* \"contracts/1_Storage.sol\":2670:3229  {... */\n      pop\n        /* \"contracts/1_Storage.sol\":2607:3229  function approveChanges(uint256 _id, uint256 _changeId) public {... */\n      pop\n      pop\n      jump\t// out\n        /* \"contracts/1_Storage.sol\":7112:7309  function isNominee(uint256 _id, address _address) public view returns (bool) {... */\n    tag_60:\n        /* \"contracts/1_Storage.sol\":7183:7187  bool */\n      0x00\n        /* \"contracts/1_Storage.sol\":7209:7226  nextCertificateId */\n      sload(0x02)\n        /* \"contracts/1_Storage.sol\":7203:7206  _id */\n      dup4\n        /* \"contracts/1_Storage.sol\":7203:7226  _id < nextCertificateId */\n      lt\n        /* \"contracts/1_Storage.sol\":7195:7257  require(_id < nextCertificateId, \"Certificate does not exist\") */\n      tag_156\n      jumpi\n      mload(0x40)\n      0x08c379a000000000000000000000000000000000000000000000000000000000\n      dup2\n      mstore\n      0x04\n      add\n      tag_157\n      swap1\n      tag_86\n      jump\t// in\n    tag_157:\n      mload(0x40)\n      dup1\n      swap2\n      sub\n      swap1\n      revert\n    tag_156:\n        /* \"contracts/1_Storage.sol\":7270:7282  certificates */\n      0x00\n        /* \"contracts/1_Storage.sol\":7270:7287  certificates[_id] */\n      dup1\n        /* \"contracts/1_Storage.sol\":7283:7286  _id */\n      dup5\n        /* \"contracts/1_Storage.sol\":7270:7287  certificates[_id] */\n      dup2\n      mstore\n      0x20\n      add\n      swap1\n      dup2\n      mstore\n      0x20\n      add\n      0x00\n      keccak256\n        /* \"contracts/1_Storage.sol\":7270:7296  certificates[_id].nominees */\n      0x03\n      add\n        /* \"contracts/1_Storage.sol\":7270:7306  certificates[_id].nominees[_address] */\n      0x00\n        /* \"contracts/1_Storage.sol\":7297:7305  _address */\n      dup4\n        /* \"contracts/1_Storage.sol\":7270:7306  certificates[_id].nominees[_address] */\n      0xffffffffffffffffffffffffffffffffffffffff\n      and\n      0xffffffffffffffffffffffffffffffffffffffff\n      and\n      dup2\n      mstore\n      0x20\n      add\n      swap1\n      dup2\n      mstore\n      0x20\n      add\n      0x00\n      keccak256\n      0x00\n      swap1\n      sload\n      swap1\n      0x0100\n      exp\n      swap1\n      div\n      0xff\n      and\n        /* \"contracts/1_Storage.sol\":7263:7306  return certificates[_id].nominees[_address] */\n      swap1\n      pop\n        /* \"contracts/1_Storage.sol\":7112:7309  function isNominee(uint256 _id, address _address) public view returns (bool) {... */\n      swap3\n      swap2\n      pop\n      pop\n      jump\t// out\n        /* \"contracts/1_Storage.sol\":1075:1107  uint256 public nextCertificateId */\n    tag_64:\n      sload(0x02)\n      dup2\n      jump\t// out\n        /* \"contracts/1_Storage.sol\":6748:7042  function getCollaboratorDetails(uint256 _id, address _collaborator) public view returns (bool, bool) {... */\n    tag_69:\n        /* \"contracts/1_Storage.sol\":6837:6841  bool */\n      0x00\n        /* \"contracts/1_Storage.sol\":6843:6847  bool */\n      dup1\n        /* \"contracts/1_Storage.sol\":6873:6890  nextCertificateId */\n      sload(0x02)\n        /* \"contracts/1_Storage.sol\":6867:6870  _id */\n      dup5\n        /* \"contracts/1_Storage.sol\":6867:6890  _id < nextCertificateId */\n      lt\n        /* \"contracts/1_Storage.sol\":6859:6921  require(_id < nextCertificateId, \"Certificate does not exist\") */\n      tag_159\n      jumpi\n      mload(0x40)\n      0x08c379a000000000000000000000000000000000000000000000000000000000\n      dup2\n      mstore\n      0x04\n      add\n      tag_160\n      swap1\n      tag_86\n      jump\t// in\n    tag_160:\n      mload(0x40)\n      dup1\n      swap2\n      sub\n      swap1\n      revert\n    tag_159:\n        /* \"contracts/1_Storage.sol\":6939:6952  collaborators */\n      0x01\n        /* \"contracts/1_Storage.sol\":6939:6957  collaborators[_id] */\n      0x00\n        /* \"contracts/1_Storage.sol\":6953:6956  _id */\n      dup6\n        /* \"contracts/1_Storage.sol\":6939:6957  collaborators[_id] */\n      dup2\n      mstore\n      0x20\n      add\n      swap1\n      dup2\n      mstore\n      0x20\n      add\n      0x00\n      keccak256\n        /* \"contracts/1_Storage.sol\":6939:6972  collaborators[_id][_collaborator] */\n      0x00\n        /* \"contracts/1_Storage.sol\":6958:6971  _collaborator */\n      dup5\n        /* \"contracts/1_Storage.sol\":6939:6972  collaborators[_id][_collaborator] */\n      0xffffffffffffffffffffffffffffffffffffffff\n      and\n      0xffffffffffffffffffffffffffffffffffffffff\n      and\n      dup2\n      mstore\n      0x20\n      add\n      swap1\n      dup2\n      mstore\n      0x20\n      add\n      0x00\n      keccak256\n        /* \"contracts/1_Storage.sol\":6939:6986  collaborators[_id][_collaborator].hasViewAccess */\n      0x00\n      add\n      0x00\n      swap1\n      sload\n      swap1\n      0x0100\n      exp\n      swap1\n      div\n      0xff\n      and\n        /* \"contracts/1_Storage.sol\":6988:7001  collaborators */\n      0x01\n        /* \"contracts/1_Storage.sol\":6988:7006  collaborators[_id] */\n      0x00\n        /* \"contracts/1_Storage.sol\":7002:7005  _id */\n      dup7\n        /* \"contracts/1_Storage.sol\":6988:7006  collaborators[_id] */\n      dup2\n      mstore\n      0x20\n      add\n      swap1\n      dup2\n      mstore\n      0x20\n      add\n      0x00\n      keccak256\n        /* \"contracts/1_Storage.sol\":6988:7021  collaborators[_id][_collaborator] */\n      0x00\n        /* \"contracts/1_Storage.sol\":7007:7020  _collaborator */\n      dup6\n        /* \"contracts/1_Storage.sol\":6988:7021  collaborators[_id][_collaborator] */\n      0xffffffffffffffffffffffffffffffffffffffff\n      and\n      0xffffffffffffffffffffffffffffffffffffffff\n      and\n      dup2\n      mstore\n      0x20\n      add\n      swap1\n      dup2\n      mstore\n      0x20\n      add\n      0x00\n      keccak256\n        /* \"contracts/1_Storage.sol\":6988:7034  collaborators[_id][_collaborator].hasOwnership */\n      0x00\n      add\n      0x01\n      swap1\n      sload\n      swap1\n      0x0100\n      exp\n      swap1\n      div\n      0xff\n      and\n        /* \"contracts/1_Storage.sol\":6931:7035  return (collaborators[_id][_collaborator].hasViewAccess, collaborators[_id][_collaborator].hasOwnership) */\n      swap2\n      pop\n      swap2\n      pop\n        /* \"contracts/1_Storage.sol\":6748:7042  function getCollaboratorDetails(uint256 _id, address _collaborator) public view returns (bool, bool) {... */\n      swap3\n      pop\n      swap3\n      swap1\n      pop\n      jump\t// out\n        /* \"contracts/1_Storage.sol\":3937:4571  function addCollaborator(uint256 _id, address _collaborator) public {... */\n    tag_73:\n        /* \"contracts/1_Storage.sol\":4029:4046  nextCertificateId */\n      sload(0x02)\n        /* \"contracts/1_Storage.sol\":4023:4026  _id */\n      dup3\n        /* \"contracts/1_Storage.sol\":4023:4046  _id < nextCertificateId */\n      lt\n        /* \"contracts/1_Storage.sol\":4015:4077  require(_id < nextCertificateId, \"Certificate does not exist\") */\n      tag_162\n      jumpi\n      mload(0x40)\n      0x08c379a000000000000000000000000000000000000000000000000000000000\n      dup2\n      mstore\n      0x04\n      add\n      tag_163\n      swap1\n      tag_86\n      jump\t// in\n    tag_163:\n      mload(0x40)\n      dup1\n      swap2\n      sub\n      swap1\n      revert\n    tag_162:\n        /* \"contracts/1_Storage.sol\":4087:4119  CertificateCreation storage cert */\n      0x00\n        /* \"contracts/1_Storage.sol\":4122:4134  certificates */\n      dup1\n        /* \"contracts/1_Storage.sol\":4122:4139  certificates[_id] */\n      0x00\n        /* \"contracts/1_Storage.sol\":4135:4138  _id */\n      dup5\n        /* \"contracts/1_Storage.sol\":4122:4139  certificates[_id] */\n      dup2\n      mstore\n      0x20\n      add\n      swap1\n      dup2\n      mstore\n      0x20\n      add\n      0x00\n      keccak256\n        /* \"contracts/1_Storage.sol\":4087:4139  CertificateCreation storage cert = certificates[_id] */\n      swap1\n      pop\n        /* \"contracts/1_Storage.sol\":4171:4175  cert */\n      dup1\n        /* \"contracts/1_Storage.sol\":4171:4183  cert.carrier */\n      0x01\n      add\n      0x00\n      swap1\n      sload\n      swap1\n      0x0100\n      exp\n      swap1\n      div\n      0xffffffffffffffffffffffffffffffffffffffff\n      and\n        /* \"contracts/1_Storage.sol\":4157:4183  msg.sender == cert.carrier */\n      0xffffffffffffffffffffffffffffffffffffffff\n      and\n        /* \"contracts/1_Storage.sol\":4157:4167  msg.sender */\n      caller\n        /* \"contracts/1_Storage.sol\":4157:4183  msg.sender == cert.carrier */\n      0xffffffffffffffffffffffffffffffffffffffff\n      and\n      eq\n        /* \"contracts/1_Storage.sol\":4157:4230  msg.sender == cert.carrier || collaborators[_id][msg.sender].hasOwnership */\n      dup1\n      tag_164\n      jumpi\n      pop\n        /* \"contracts/1_Storage.sol\":4187:4200  collaborators */\n      0x01\n        /* \"contracts/1_Storage.sol\":4187:4205  collaborators[_id] */\n      0x00\n        /* \"contracts/1_Storage.sol\":4201:4204  _id */\n      dup5\n        /* \"contracts/1_Storage.sol\":4187:4205  collaborators[_id] */\n      dup2\n      mstore\n      0x20\n      add\n      swap1\n      dup2\n      mstore\n      0x20\n      add\n      0x00\n      keccak256\n        /* \"contracts/1_Storage.sol\":4187:4217  collaborators[_id][msg.sender] */\n      0x00\n        /* \"contracts/1_Storage.sol\":4206:4216  msg.sender */\n      caller\n        /* \"contracts/1_Storage.sol\":4187:4217  collaborators[_id][msg.sender] */\n      0xffffffffffffffffffffffffffffffffffffffff\n      and\n      0xffffffffffffffffffffffffffffffffffffffff\n      and\n      dup2\n      mstore\n      0x20\n      add\n      swap1\n      dup2\n      mstore\n      0x20\n      add\n      0x00\n      keccak256\n        /* \"contracts/1_Storage.sol\":4187:4230  collaborators[_id][msg.sender].hasOwnership */\n      0x00\n      add\n      0x01\n      swap1\n      sload\n      swap1\n      0x0100\n      exp\n      swap1\n      div\n      0xff\n      and\n        /* \"contracts/1_Storage.sol\":4157:4230  msg.sender == cert.carrier || collaborators[_id][msg.sender].hasOwnership */\n    tag_164:\n        /* \"contracts/1_Storage.sol\":4149:4304  require(msg.sender == cert.carrier || collaborators[_id][msg.sender].hasOwnership, \"Only the carrier or collaborator with ownership can add collaborators\") */\n      tag_165\n      jumpi\n      mload(0x40)\n      0x08c379a000000000000000000000000000000000000000000000000000000000\n      dup2\n      mstore\n      0x04\n      add\n      tag_166\n      swap1\n      tag_167\n      jump\t// in\n    tag_166:\n      mload(0x40)\n      dup1\n      swap2\n      sub\n      swap1\n      revert\n    tag_165:\n        /* \"contracts/1_Storage.sol\":4442:4446  true */\n      0x01\n        /* \"contracts/1_Storage.sol\":4392:4405  collaborators */\n      dup1\n        /* \"contracts/1_Storage.sol\":4392:4410  collaborators[_id] */\n      0x00\n        /* \"contracts/1_Storage.sol\":4406:4409  _id */\n      dup6\n        /* \"contracts/1_Storage.sol\":4392:4410  collaborators[_id] */\n      dup2\n      mstore\n      0x20\n      add\n      swap1\n      dup2\n      mstore\n      0x20\n      add\n      0x00\n      keccak256\n        /* \"contracts/1_Storage.sol\":4392:4425  collaborators[_id][_collaborator] */\n      0x00\n        /* \"contracts/1_Storage.sol\":4411:4424  _collaborator */\n      dup5\n        /* \"contracts/1_Storage.sol\":4392:4425  collaborators[_id][_collaborator] */\n      0xffffffffffffffffffffffffffffffffffffffff\n      and\n      0xffffffffffffffffffffffffffffffffffffffff\n      and\n      dup2\n      mstore\n      0x20\n      add\n      swap1\n      dup2\n      mstore\n      0x20\n      add\n      0x00\n      keccak256\n        /* \"contracts/1_Storage.sol\":4392:4439  collaborators[_id][_collaborator].hasViewAccess */\n      0x00\n      add\n      0x00\n        /* \"contracts/1_Storage.sol\":4392:4446  collaborators[_id][_collaborator].hasViewAccess = true */\n      0x0100\n      exp\n      dup2\n      sload\n      dup2\n      0xff\n      mul\n      not\n      and\n      swap1\n      dup4\n      iszero\n      iszero\n      mul\n      or\n      swap1\n      sstore\n      pop\n        /* \"contracts/1_Storage.sol\":4534:4538  cert */\n      dup1\n        /* \"contracts/1_Storage.sol\":4534:4554  cert.collaboratorIds */\n      0x09\n      add\n        /* \"contracts/1_Storage.sol\":4560:4563  _id */\n      dup4\n        /* \"contracts/1_Storage.sol\":4534:4564  cert.collaboratorIds.push(_id) */\n      swap1\n      dup1\n      0x01\n      dup2\n      sload\n      add\n      dup1\n      dup3\n      sstore\n      dup1\n      swap2\n      pop\n      pop\n      0x01\n      swap1\n      sub\n      swap1\n      0x00\n      mstore\n      keccak256(0x00, 0x20)\n      add\n      0x00\n      swap1\n      swap2\n      swap1\n      swap2\n      swap1\n      swap2\n      pop\n      sstore\n        /* \"contracts/1_Storage.sol\":4005:4571  {... */\n      pop\n        /* \"contracts/1_Storage.sol\":3937:4571  function addCollaborator(uint256 _id, address _collaborator) public {... */\n      pop\n      pop\n      jump\t// out\n        /* \"contracts/1_Storage.sol\":5541:5919  function addNominee(uint256 _id, address _nominee) public {... */\n    tag_76:\n        /* \"contracts/1_Storage.sol\":5623:5640  nextCertificateId */\n      sload(0x02)\n        /* \"contracts/1_Storage.sol\":5617:5620  _id */\n      dup3\n        /* \"contracts/1_Storage.sol\":5617:5640  _id < nextCertificateId */\n      lt\n        /* \"contracts/1_Storage.sol\":5609:5671  require(_id < nextCertificateId, \"Certificate does not exist\") */\n      tag_170\n      jumpi\n      mload(0x40)\n      0x08c379a000000000000000000000000000000000000000000000000000000000\n      dup2\n      mstore\n      0x04\n      add\n      tag_171\n      swap1\n      tag_86\n      jump\t// in\n    tag_171:\n      mload(0x40)\n      dup1\n      swap2\n      sub\n      swap1\n      revert\n    tag_170:\n        /* \"contracts/1_Storage.sol\":5681:5713  CertificateCreation storage cert */\n      0x00\n        /* \"contracts/1_Storage.sol\":5716:5728  certificates */\n      dup1\n        /* \"contracts/1_Storage.sol\":5716:5733  certificates[_id] */\n      0x00\n        /* \"contracts/1_Storage.sol\":5729:5732  _id */\n      dup5\n        /* \"contracts/1_Storage.sol\":5716:5733  certificates[_id] */\n      dup2\n      mstore\n      0x20\n      add\n      swap1\n      dup2\n      mstore\n      0x20\n      add\n      0x00\n      keccak256\n        /* \"contracts/1_Storage.sol\":5681:5733  CertificateCreation storage cert = certificates[_id] */\n      swap1\n      pop\n        /* \"contracts/1_Storage.sol\":5769:5779  msg.sender */\n      caller\n        /* \"contracts/1_Storage.sol\":5751:5779  cert.recipient == msg.sender */\n      0xffffffffffffffffffffffffffffffffffffffff\n      and\n        /* \"contracts/1_Storage.sol\":5751:5755  cert */\n      dup2\n        /* \"contracts/1_Storage.sol\":5751:5765  cert.recipient */\n      0x02\n      add\n      0x00\n      swap1\n      sload\n      swap1\n      0x0100\n      exp\n      swap1\n      div\n      0xffffffffffffffffffffffffffffffffffffffff\n      and\n        /* \"contracts/1_Storage.sol\":5751:5779  cert.recipient == msg.sender */\n      0xffffffffffffffffffffffffffffffffffffffff\n      and\n      eq\n        /* \"contracts/1_Storage.sol\":5743:5820  require(cert.recipient == msg.sender, \"Only the main owner can add nominees\") */\n      tag_172\n      jumpi\n      mload(0x40)\n      0x08c379a000000000000000000000000000000000000000000000000000000000\n      dup2\n      mstore\n      0x04\n      add\n      tag_173\n      swap1\n      tag_174\n      jump\t// in\n    tag_173:\n      mload(0x40)\n      dup1\n      swap2\n      sub\n      swap1\n      revert\n    tag_172:\n        /* \"contracts/1_Storage.sol\":5908:5912  true */\n      0x01\n        /* \"contracts/1_Storage.sol\":5882:5886  cert */\n      dup2\n        /* \"contracts/1_Storage.sol\":5882:5895  cert.nominees */\n      0x03\n      add\n        /* \"contracts/1_Storage.sol\":5882:5905  cert.nominees[_nominee] */\n      0x00\n        /* \"contracts/1_Storage.sol\":5896:5904  _nominee */\n      dup5\n        /* \"contracts/1_Storage.sol\":5882:5905  cert.nominees[_nominee] */\n      0xffffffffffffffffffffffffffffffffffffffff\n      and\n      0xffffffffffffffffffffffffffffffffffffffff\n      and\n      dup2\n      mstore\n      0x20\n      add\n      swap1\n      dup2\n      mstore\n      0x20\n      add\n      0x00\n      keccak256\n      0x00\n        /* \"contracts/1_Storage.sol\":5882:5912  cert.nominees[_nominee] = true */\n      0x0100\n      exp\n      dup2\n      sload\n      dup2\n      0xff\n      mul\n      not\n      and\n      swap1\n      dup4\n      iszero\n      iszero\n      mul\n      or\n      swap1\n      sstore\n      pop\n        /* \"contracts/1_Storage.sol\":5599:5919  {... */\n      pop\n        /* \"contracts/1_Storage.sol\":5541:5919  function addNominee(uint256 _id, address _nominee) public {... */\n      pop\n      pop\n      jump\t// out\n        /* \"#utility.yul\":7:82   */\n    tag_175:\n        /* \"#utility.yul\":40:46   */\n      0x00\n        /* \"#utility.yul\":73:75   */\n      0x40\n        /* \"#utility.yul\":67:76   */\n      mload\n        /* \"#utility.yul\":57:76   */\n      swap1\n      pop\n        /* \"#utility.yul\":7:82   */\n      swap1\n      jump\t// out\n        /* \"#utility.yul\":88:205   */\n    tag_176:\n        /* \"#utility.yul\":197:198   */\n      0x00\n        /* \"#utility.yul\":194:195   */\n      dup1\n        /* \"#utility.yul\":187:199   */\n      revert\n        /* \"#utility.yul\":211:328   */\n    tag_177:\n        /* \"#utility.yul\":320:321   */\n      0x00\n        /* \"#utility.yul\":317:318   */\n      dup1\n        /* \"#utility.yul\":310:322   */\n      revert\n        /* \"#utility.yul\":334:411   */\n    tag_178:\n        /* \"#utility.yul\":371:378   */\n      0x00\n        /* \"#utility.yul\":400:405   */\n      dup2\n        /* \"#utility.yul\":389:405   */\n      swap1\n      pop\n        /* \"#utility.yul\":334:411   */\n      swap2\n      swap1\n      pop\n      jump\t// out\n        /* \"#utility.yul\":417:539   */\n    tag_179:\n        /* \"#utility.yul\":490:514   */\n      tag_244\n        /* \"#utility.yul\":508:513   */\n      dup2\n        /* \"#utility.yul\":490:514   */\n      tag_178\n      jump\t// in\n    tag_244:\n        /* \"#utility.yul\":483:488   */\n      dup2\n        /* \"#utility.yul\":480:515   */\n      eq\n        /* \"#utility.yul\":470:533   */\n      tag_245\n      jumpi\n        /* \"#utility.yul\":529:530   */\n      0x00\n        /* \"#utility.yul\":526:527   */\n      dup1\n        /* \"#utility.yul\":519:531   */\n      revert\n        /* \"#utility.yul\":470:533   */\n    tag_245:\n        /* \"#utility.yul\":417:539   */\n      pop\n      jump\t// out\n        /* \"#utility.yul\":545:684   */\n    tag_180:\n        /* \"#utility.yul\":591:596   */\n      0x00\n        /* \"#utility.yul\":629:635   */\n      dup2\n        /* \"#utility.yul\":616:636   */\n      calldataload\n        /* \"#utility.yul\":607:636   */\n      swap1\n      pop\n        /* \"#utility.yul\":645:678   */\n      tag_247\n        /* \"#utility.yul\":672:677   */\n      dup2\n        /* \"#utility.yul\":645:678   */\n      tag_179\n      jump\t// in\n    tag_247:\n        /* \"#utility.yul\":545:684   */\n      swap3\n      swap2\n      pop\n      pop\n      jump\t// out\n        /* \"#utility.yul\":690:816   */\n    tag_181:\n        /* \"#utility.yul\":727:734   */\n      0x00\n        /* \"#utility.yul\":767:809   */\n      0xffffffffffffffffffffffffffffffffffffffff\n        /* \"#utility.yul\":760:765   */\n      dup3\n        /* \"#utility.yul\":756:810   */\n      and\n        /* \"#utility.yul\":745:810   */\n      swap1\n      pop\n        /* \"#utility.yul\":690:816   */\n      swap2\n      swap1\n      pop\n      jump\t// out\n        /* \"#utility.yul\":822:918   */\n    tag_182:\n        /* \"#utility.yul\":859:866   */\n      0x00\n        /* \"#utility.yul\":888:912   */\n      tag_250\n        /* \"#utility.yul\":906:911   */\n      dup3\n        /* \"#utility.yul\":888:912   */\n      tag_181\n      jump\t// in\n    tag_250:\n        /* \"#utility.yul\":877:912   */\n      swap1\n      pop\n        /* \"#utility.yul\":822:918   */\n      swap2\n      swap1\n      pop\n      jump\t// out\n        /* \"#utility.yul\":924:1046   */\n    tag_183:\n        /* \"#utility.yul\":997:1021   */\n      tag_252\n        /* \"#utility.yul\":1015:1020   */\n      dup2\n        /* \"#utility.yul\":997:1021   */\n      tag_182\n      jump\t// in\n    tag_252:\n        /* \"#utility.yul\":990:995   */\n      dup2\n        /* \"#utility.yul\":987:1022   */\n      eq\n        /* \"#utility.yul\":977:1040   */\n      tag_253\n      jumpi\n        /* \"#utility.yul\":1036:1037   */\n      0x00\n        /* \"#utility.yul\":1033:1034   */\n      dup1\n        /* \"#utility.yul\":1026:1038   */\n      revert\n        /* \"#utility.yul\":977:1040   */\n    tag_253:\n        /* \"#utility.yul\":924:1046   */\n      pop\n      jump\t// out\n        /* \"#utility.yul\":1052:1191   */\n    tag_184:\n        /* \"#utility.yul\":1098:1103   */\n      0x00\n        /* \"#utility.yul\":1136:1142   */\n      dup2\n        /* \"#utility.yul\":1123:1143   */\n      calldataload\n        /* \"#utility.yul\":1114:1143   */\n      swap1\n      pop\n        /* \"#utility.yul\":1152:1185   */\n      tag_255\n        /* \"#utility.yul\":1179:1184   */\n      dup2\n        /* \"#utility.yul\":1152:1185   */\n      tag_183\n      jump\t// in\n    tag_255:\n        /* \"#utility.yul\":1052:1191   */\n      swap3\n      swap2\n      pop\n      pop\n      jump\t// out\n        /* \"#utility.yul\":1197:1671   */\n    tag_22:\n        /* \"#utility.yul\":1265:1271   */\n      0x00\n        /* \"#utility.yul\":1273:1279   */\n      dup1\n        /* \"#utility.yul\":1322:1324   */\n      0x40\n        /* \"#utility.yul\":1310:1319   */\n      dup4\n        /* \"#utility.yul\":1301:1308   */\n      dup6\n        /* \"#utility.yul\":1297:1320   */\n      sub\n        /* \"#utility.yul\":1293:1325   */\n      slt\n        /* \"#utility.yul\":1290:1409   */\n      iszero\n      tag_257\n      jumpi\n        /* \"#utility.yul\":1328:1407   */\n      tag_258\n      tag_176\n      jump\t// in\n    tag_258:\n        /* \"#utility.yul\":1290:1409   */\n    tag_257:\n        /* \"#utility.yul\":1448:1449   */\n      0x00\n        /* \"#utility.yul\":1473:1526   */\n      tag_259\n        /* \"#utility.yul\":1518:1525   */\n      dup6\n        /* \"#utility.yul\":1509:1515   */\n      dup3\n        /* \"#utility.yul\":1498:1507   */\n      dup7\n        /* \"#utility.yul\":1494:1516   */\n      add\n        /* \"#utility.yul\":1473:1526   */\n      tag_180\n      jump\t// in\n    tag_259:\n        /* \"#utility.yul\":1463:1526   */\n      swap3\n      pop\n        /* \"#utility.yul\":1419:1536   */\n      pop\n        /* \"#utility.yul\":1575:1577   */\n      0x20\n        /* \"#utility.yul\":1601:1654   */\n      tag_260\n        /* \"#utility.yul\":1646:1653   */\n      dup6\n        /* \"#utility.yul\":1637:1643   */\n      dup3\n        /* \"#utility.yul\":1626:1635   */\n      dup7\n        /* \"#utility.yul\":1622:1644   */\n      add\n        /* \"#utility.yul\":1601:1654   */\n      tag_184\n      jump\t// in\n    tag_260:\n        /* \"#utility.yul\":1591:1654   */\n      swap2\n      pop\n        /* \"#utility.yul\":1546:1664   */\n      pop\n        /* \"#utility.yul\":1197:1671   */\n      swap3\n      pop\n      swap3\n      swap1\n      pop\n      jump\t// out\n        /* \"#utility.yul\":1677:1767   */\n    tag_185:\n        /* \"#utility.yul\":1711:1718   */\n      0x00\n        /* \"#utility.yul\":1754:1759   */\n      dup2\n        /* \"#utility.yul\":1747:1760   */\n      iszero\n        /* \"#utility.yul\":1740:1761   */\n      iszero\n        /* \"#utility.yul\":1729:1761   */\n      swap1\n      pop\n        /* \"#utility.yul\":1677:1767   */\n      swap2\n      swap1\n      pop\n      jump\t// out\n        /* \"#utility.yul\":1773:1882   */\n    tag_186:\n        /* \"#utility.yul\":1854:1875   */\n      tag_263\n        /* \"#utility.yul\":1869:1874   */\n      dup2\n        /* \"#utility.yul\":1854:1875   */\n      tag_185\n      jump\t// in\n    tag_263:\n        /* \"#utility.yul\":1849:1852   */\n      dup3\n        /* \"#utility.yul\":1842:1876   */\n      mstore\n        /* \"#utility.yul\":1773:1882   */\n      pop\n      pop\n      jump\t// out\n        /* \"#utility.yul\":1888:2196   */\n    tag_25:\n        /* \"#utility.yul\":1997:2001   */\n      0x00\n        /* \"#utility.yul\":2035:2037   */\n      0x40\n        /* \"#utility.yul\":2024:2033   */\n      dup3\n        /* \"#utility.yul\":2020:2038   */\n      add\n        /* \"#utility.yul\":2012:2038   */\n      swap1\n      pop\n        /* \"#utility.yul\":2048:2113   */\n      tag_265\n        /* \"#utility.yul\":2110:2111   */\n      0x00\n        /* \"#utility.yul\":2099:2108   */\n      dup4\n        /* \"#utility.yul\":2095:2112   */\n      add\n        /* \"#utility.yul\":2086:2092   */\n      dup6\n        /* \"#utility.yul\":2048:2113   */\n      tag_186\n      jump\t// in\n    tag_265:\n        /* \"#utility.yul\":2123:2189   */\n      tag_266\n        /* \"#utility.yul\":2185:2187   */\n      0x20\n        /* \"#utility.yul\":2174:2183   */\n      dup4\n        /* \"#utility.yul\":2170:2188   */\n      add\n        /* \"#utility.yul\":2161:2167   */\n      dup5\n        /* \"#utility.yul\":2123:2189   */\n      tag_186\n      jump\t// in\n    tag_266:\n        /* \"#utility.yul\":1888:2196   */\n      swap4\n      swap3\n      pop\n      pop\n      pop\n      jump\t// out\n        /* \"#utility.yul\":2202:2319   */\n    tag_187:\n        /* \"#utility.yul\":2311:2312   */\n      0x00\n        /* \"#utility.yul\":2308:2309   */\n      dup1\n        /* \"#utility.yul\":2301:2313   */\n      revert\n        /* \"#utility.yul\":2325:2442   */\n    tag_188:\n        /* \"#utility.yul\":2434:2435   */\n      0x00\n        /* \"#utility.yul\":2431:2432   */\n      dup1\n        /* \"#utility.yul\":2424:2436   */\n      revert\n        /* \"#utility.yul\":2448:2550   */\n    tag_189:\n        /* \"#utility.yul\":2489:2495   */\n      0x00\n        /* \"#utility.yul\":2540:2542   */\n      0x1f\n        /* \"#utility.yul\":2536:2543   */\n      not\n        /* \"#utility.yul\":2531:2533   */\n      0x1f\n        /* \"#utility.yul\":2524:2529   */\n      dup4\n        /* \"#utility.yul\":2520:2534   */\n      add\n        /* \"#utility.yul\":2516:2544   */\n      and\n        /* \"#utility.yul\":2506:2544   */\n      swap1\n      pop\n        /* \"#utility.yul\":2448:2550   */\n      swap2\n      swap1\n      pop\n      jump\t// out\n        /* \"#utility.yul\":2556:2736   */\n    tag_190:\n        /* \"#utility.yul\":2604:2681   */\n      0x4e487b7100000000000000000000000000000000000000000000000000000000\n        /* \"#utility.yul\":2601:2602   */\n      0x00\n        /* \"#utility.yul\":2594:2682   */\n      mstore\n        /* \"#utility.yul\":2701:2705   */\n      0x41\n        /* \"#utility.yul\":2698:2699   */\n      0x04\n        /* \"#utility.yul\":2691:2706   */\n      mstore\n        /* \"#utility.yul\":2725:2729   */\n      0x24\n        /* \"#utility.yul\":2722:2723   */\n      0x00\n        /* \"#utility.yul\":2715:2730   */\n      revert\n        /* \"#utility.yul\":2742:3023   */\n    tag_191:\n        /* \"#utility.yul\":2825:2852   */\n      tag_272\n        /* \"#utility.yul\":2847:2851   */\n      dup3\n        /* \"#utility.yul\":2825:2852   */\n      tag_189\n      jump\t// in\n    tag_272:\n        /* \"#utility.yul\":2817:2823   */\n      dup2\n        /* \"#utility.yul\":2813:2853   */\n      add\n        /* \"#utility.yul\":2955:2961   */\n      dup2\n        /* \"#utility.yul\":2943:2953   */\n      dup2\n        /* \"#utility.yul\":2940:2962   */\n      lt\n        /* \"#utility.yul\":2919:2937   */\n      0xffffffffffffffff\n        /* \"#utility.yul\":2907:2917   */\n      dup3\n        /* \"#utility.yul\":2904:2938   */\n      gt\n        /* \"#utility.yul\":2901:2963   */\n      or\n        /* \"#utility.yul\":2898:2986   */\n      iszero\n      tag_273\n      jumpi\n        /* \"#utility.yul\":2966:2984   */\n      tag_274\n      tag_190\n      jump\t// in\n    tag_274:\n        /* \"#utility.yul\":2898:2986   */\n    tag_273:\n        /* \"#utility.yul\":3006:3016   */\n      dup1\n        /* \"#utility.yul\":3002:3004   */\n      0x40\n        /* \"#utility.yul\":2995:3017   */\n      mstore\n        /* \"#utility.yul\":2785:3023   */\n      pop\n        /* \"#utility.yul\":2742:3023   */\n      pop\n      pop\n      jump\t// out\n        /* \"#utility.yul\":3029:3158   */\n    tag_192:\n        /* \"#utility.yul\":3063:3069   */\n      0x00\n        /* \"#utility.yul\":3090:3110   */\n      tag_276\n      tag_175\n      jump\t// in\n    tag_276:\n        /* \"#utility.yul\":3080:3110   */\n      swap1\n      pop\n        /* \"#utility.yul\":3119:3152   */\n      tag_277\n        /* \"#utility.yul\":3147:3151   */\n      dup3\n        /* \"#utility.yul\":3139:3145   */\n      dup3\n        /* \"#utility.yul\":3119:3152   */\n      tag_191\n      jump\t// in\n    tag_277:\n        /* \"#utility.yul\":3029:3158   */\n      swap2\n      swap1\n      pop\n      jump\t// out\n        /* \"#utility.yul\":3164:3472   */\n    tag_193:\n        /* \"#utility.yul\":3226:3230   */\n      0x00\n        /* \"#utility.yul\":3316:3334   */\n      0xffffffffffffffff\n        /* \"#utility.yul\":3308:3314   */\n      dup3\n        /* \"#utility.yul\":3305:3335   */\n      gt\n        /* \"#utility.yul\":3302:3358   */\n      iszero\n      tag_279\n      jumpi\n        /* \"#utility.yul\":3338:3356   */\n      tag_280\n      tag_190\n      jump\t// in\n    tag_280:\n        /* \"#utility.yul\":3302:3358   */\n    tag_279:\n        /* \"#utility.yul\":3376:3405   */\n      tag_281\n        /* \"#utility.yul\":3398:3404   */\n      dup3\n        /* \"#utility.yul\":3376:3405   */\n      tag_189\n      jump\t// in\n    tag_281:\n        /* \"#utility.yul\":3368:3405   */\n      swap1\n      pop\n        /* \"#utility.yul\":3460:3464   */\n      0x20\n        /* \"#utility.yul\":3454:3458   */\n      dup2\n        /* \"#utility.yul\":3450:3465   */\n      add\n        /* \"#utility.yul\":3442:3465   */\n      swap1\n      pop\n        /* \"#utility.yul\":3164:3472   */\n      swap2\n      swap1\n      pop\n      jump\t// out\n        /* \"#utility.yul\":3478:3624   */\n    tag_194:\n        /* \"#utility.yul\":3575:3581   */\n      dup3\n        /* \"#utility.yul\":3570:3573   */\n      dup2\n        /* \"#utility.yul\":3565:3568   */\n      dup4\n        /* \"#utility.yul\":3552:3582   */\n      calldatacopy\n        /* \"#utility.yul\":3616:3617   */\n      0x00\n        /* \"#utility.yul\":3607:3613   */\n      dup4\n        /* \"#utility.yul\":3602:3605   */\n      dup4\n        /* \"#utility.yul\":3598:3614   */\n      add\n        /* \"#utility.yul\":3591:3618   */\n      mstore\n        /* \"#utility.yul\":3478:3624   */\n      pop\n      pop\n      pop\n      jump\t// out\n        /* \"#utility.yul\":3630:4055   */\n    tag_195:\n        /* \"#utility.yul\":3708:3713   */\n      0x00\n        /* \"#utility.yul\":3733:3799   */\n      tag_284\n        /* \"#utility.yul\":3749:3798   */\n      tag_285\n        /* \"#utility.yul\":3791:3797   */\n      dup5\n        /* \"#utility.yul\":3749:3798   */\n      tag_193\n      jump\t// in\n    tag_285:\n        /* \"#utility.yul\":3733:3799   */\n      tag_192\n      jump\t// in\n    tag_284:\n        /* \"#utility.yul\":3724:3799   */\n      swap1\n      pop\n        /* \"#utility.yul\":3822:3828   */\n      dup3\n        /* \"#utility.yul\":3815:3820   */\n      dup2\n        /* \"#utility.yul\":3808:3829   */\n      mstore\n        /* \"#utility.yul\":3860:3864   */\n      0x20\n        /* \"#utility.yul\":3853:3858   */\n      dup2\n        /* \"#utility.yul\":3849:3865   */\n      add\n        /* \"#utility.yul\":3898:3901   */\n      dup5\n        /* \"#utility.yul\":3889:3895   */\n      dup5\n        /* \"#utility.yul\":3884:3887   */\n      dup5\n        /* \"#utility.yul\":3880:3896   */\n      add\n        /* \"#utility.yul\":3877:3902   */\n      gt\n        /* \"#utility.yul\":3874:3986   */\n      iszero\n      tag_286\n      jumpi\n        /* \"#utility.yul\":3905:3984   */\n      tag_287\n      tag_188\n      jump\t// in\n    tag_287:\n        /* \"#utility.yul\":3874:3986   */\n    tag_286:\n        /* \"#utility.yul\":3995:4049   */\n      tag_288\n        /* \"#utility.yul\":4042:4048   */\n      dup5\n        /* \"#utility.yul\":4037:4040   */\n      dup3\n        /* \"#utility.yul\":4032:4035   */\n      dup6\n        /* \"#utility.yul\":3995:4049   */\n      tag_194\n      jump\t// in\n    tag_288:\n        /* \"#utility.yul\":3714:4055   */\n      pop\n        /* \"#utility.yul\":3630:4055   */\n      swap4\n      swap3\n      pop\n      pop\n      pop\n      jump\t// out\n        /* \"#utility.yul\":4075:4415   */\n    tag_196:\n        /* \"#utility.yul\":4131:4136   */\n      0x00\n        /* \"#utility.yul\":4180:4183   */\n      dup3\n        /* \"#utility.yul\":4173:4177   */\n      0x1f\n        /* \"#utility.yul\":4165:4171   */\n      dup4\n        /* \"#utility.yul\":4161:4178   */\n      add\n        /* \"#utility.yul\":4157:4184   */\n      slt\n        /* \"#utility.yul\":4147:4269   */\n      tag_290\n      jumpi\n        /* \"#utility.yul\":4188:4267   */\n      tag_291\n      tag_187\n      jump\t// in\n    tag_291:\n        /* \"#utility.yul\":4147:4269   */\n    tag_290:\n        /* \"#utility.yul\":4305:4311   */\n      dup2\n        /* \"#utility.yul\":4292:4312   */\n      calldataload\n        /* \"#utility.yul\":4330:4409   */\n      tag_292\n        /* \"#utility.yul\":4405:4408   */\n      dup5\n        /* \"#utility.yul\":4397:4403   */\n      dup3\n        /* \"#utility.yul\":4390:4394   */\n      0x20\n        /* \"#utility.yul\":4382:4388   */\n      dup7\n        /* \"#utility.yul\":4378:4395   */\n      add\n        /* \"#utility.yul\":4330:4409   */\n      tag_195\n      jump\t// in\n    tag_292:\n        /* \"#utility.yul\":4321:4409   */\n      swap2\n      pop\n        /* \"#utility.yul\":4137:4415   */\n      pop\n        /* \"#utility.yul\":4075:4415   */\n      swap3\n      swap2\n      pop\n      pop\n      jump\t// out\n        /* \"#utility.yul\":4421:5366   */\n    tag_28:\n        /* \"#utility.yul\":4517:4523   */\n      0x00\n        /* \"#utility.yul\":4525:4531   */\n      dup1\n        /* \"#utility.yul\":4533:4539   */\n      0x00\n        /* \"#utility.yul\":4541:4547   */\n      dup1\n        /* \"#utility.yul\":4590:4593   */\n      0x80\n        /* \"#utility.yul\":4578:4587   */\n      dup6\n        /* \"#utility.yul\":4569:4576   */\n      dup8\n        /* \"#utility.yul\":4565:4588   */\n      sub\n        /* \"#utility.yul\":4561:4594   */\n      slt\n        /* \"#utility.yul\":4558:4678   */\n      iszero\n      tag_294\n      jumpi\n        /* \"#utility.yul\":4597:4676   */\n      tag_295\n      tag_176\n      jump\t// in\n    tag_295:\n        /* \"#utility.yul\":4558:4678   */\n    tag_294:\n        /* \"#utility.yul\":4717:4718   */\n      0x00\n        /* \"#utility.yul\":4742:4795   */\n      tag_296\n        /* \"#utility.yul\":4787:4794   */\n      dup8\n        /* \"#utility.yul\":4778:4784   */\n      dup3\n        /* \"#utility.yul\":4767:4776   */\n      dup9\n        /* \"#utility.yul\":4763:4785   */\n      add\n        /* \"#utility.yul\":4742:4795   */\n      tag_184\n      jump\t// in\n    tag_296:\n        /* \"#utility.yul\":4732:4795   */\n      swap5\n      pop\n        /* \"#utility.yul\":4688:4805   */\n      pop\n        /* \"#utility.yul\":4872:4874   */\n      0x20\n        /* \"#utility.yul\":4861:4870   */\n      dup6\n        /* \"#utility.yul\":4857:4875   */\n      add\n        /* \"#utility.yul\":4844:4876   */\n      calldataload\n        /* \"#utility.yul\":4903:4921   */\n      0xffffffffffffffff\n        /* \"#utility.yul\":4895:4901   */\n      dup2\n        /* \"#utility.yul\":4892:4922   */\n      gt\n        /* \"#utility.yul\":4889:5006   */\n      iszero\n      tag_297\n      jumpi\n        /* \"#utility.yul\":4925:5004   */\n      tag_298\n      tag_177\n      jump\t// in\n    tag_298:\n        /* \"#utility.yul\":4889:5006   */\n    tag_297:\n        /* \"#utility.yul\":5030:5093   */\n      tag_299\n        /* \"#utility.yul\":5085:5092   */\n      dup8\n        /* \"#utility.yul\":5076:5082   */\n      dup3\n        /* \"#utility.yul\":5065:5074   */\n      dup9\n        /* \"#utility.yul\":5061:5083   */\n      add\n        /* \"#utility.yul\":5030:5093   */\n      tag_196\n      jump\t// in\n    tag_299:\n        /* \"#utility.yul\":5020:5093   */\n      swap4\n      pop\n        /* \"#utility.yul\":4815:5103   */\n      pop\n        /* \"#utility.yul\":5142:5144   */\n      0x40\n        /* \"#utility.yul\":5168:5221   */\n      tag_300\n        /* \"#utility.yul\":5213:5220   */\n      dup8\n        /* \"#utility.yul\":5204:5210   */\n      dup3\n        /* \"#utility.yul\":5193:5202   */\n      dup9\n        /* \"#utility.yul\":5189:5211   */\n      add\n        /* \"#utility.yul\":5168:5221   */\n      tag_180\n      jump\t// in\n    tag_300:\n        /* \"#utility.yul\":5158:5221   */\n      swap3\n      pop\n        /* \"#utility.yul\":5113:5231   */\n      pop\n        /* \"#utility.yul\":5270:5272   */\n      0x60\n        /* \"#utility.yul\":5296:5349   */\n      tag_301\n        /* \"#utility.yul\":5341:5348   */\n      dup8\n        /* \"#utility.yul\":5332:5338   */\n      dup3\n        /* \"#utility.yul\":5321:5330   */\n      dup9\n        /* \"#utility.yul\":5317:5339   */\n      add\n        /* \"#utility.yul\":5296:5349   */\n      tag_180\n      jump\t// in\n    tag_301:\n        /* \"#utility.yul\":5286:5349   */\n      swap2\n      pop\n        /* \"#utility.yul\":5241:5359   */\n      pop\n        /* \"#utility.yul\":4421:5366   */\n      swap3\n      swap6\n      swap2\n      swap5\n      pop\n      swap3\n      pop\n      jump\t// out\n        /* \"#utility.yul\":5372:6026   */\n    tag_35:\n        /* \"#utility.yul\":5450:5456   */\n      0x00\n        /* \"#utility.yul\":5458:5464   */\n      dup1\n        /* \"#utility.yul\":5507:5509   */\n      0x40\n        /* \"#utility.yul\":5495:5504   */\n      dup4\n        /* \"#utility.yul\":5486:5493   */\n      dup6\n        /* \"#utility.yul\":5482:5505   */\n      sub\n        /* \"#utility.yul\":5478:5510   */\n      slt\n        /* \"#utility.yul\":5475:5594   */\n      iszero\n      tag_303\n      jumpi\n        /* \"#utility.yul\":5513:5592   */\n      tag_304\n      tag_176\n      jump\t// in\n    tag_304:\n        /* \"#utility.yul\":5475:5594   */\n    tag_303:\n        /* \"#utility.yul\":5633:5634   */\n      0x00\n        /* \"#utility.yul\":5658:5711   */\n      tag_305\n        /* \"#utility.yul\":5703:5710   */\n      dup6\n        /* \"#utility.yul\":5694:5700   */\n      dup3\n        /* \"#utility.yul\":5683:5692   */\n      dup7\n        /* \"#utility.yul\":5679:5701   */\n      add\n        /* \"#utility.yul\":5658:5711   */\n      tag_180\n      jump\t// in\n    tag_305:\n        /* \"#utility.yul\":5648:5711   */\n      swap3\n      pop\n        /* \"#utility.yul\":5604:5721   */\n      pop\n        /* \"#utility.yul\":5788:5790   */\n      0x20\n        /* \"#utility.yul\":5777:5786   */\n      dup4\n        /* \"#utility.yul\":5773:5791   */\n      add\n        /* \"#utility.yul\":5760:5792   */\n      calldataload\n        /* \"#utility.yul\":5819:5837   */\n      0xffffffffffffffff\n        /* \"#utility.yul\":5811:5817   */\n      dup2\n        /* \"#utility.yul\":5808:5838   */\n      gt\n        /* \"#utility.yul\":5805:5922   */\n      iszero\n      tag_306\n      jumpi\n        /* \"#utility.yul\":5841:5920   */\n      tag_307\n      tag_177\n      jump\t// in\n    tag_307:\n        /* \"#utility.yul\":5805:5922   */\n    tag_306:\n        /* \"#utility.yul\":5946:6009   */\n      tag_308\n        /* \"#utility.yul\":6001:6008   */\n      dup6\n        /* \"#utility.yul\":5992:5998   */\n      dup3\n        /* \"#utility.yul\":5981:5990   */\n      dup7\n        /* \"#utility.yul\":5977:5999   */\n      add\n        /* \"#utility.yul\":5946:6009   */\n      tag_196\n      jump\t// in\n    tag_308:\n        /* \"#utility.yul\":5936:6009   */\n      swap2\n      pop\n        /* \"#utility.yul\":5731:6019   */\n      pop\n        /* \"#utility.yul\":5372:6026   */\n      swap3\n      pop\n      swap3\n      swap1\n      pop\n      jump\t// out\n        /* \"#utility.yul\":6032:6361   */\n    tag_42:\n        /* \"#utility.yul\":6091:6097   */\n      0x00\n        /* \"#utility.yul\":6140:6142   */\n      0x20\n        /* \"#utility.yul\":6128:6137   */\n      dup3\n        /* \"#utility.yul\":6119:6126   */\n      dup5\n        /* \"#utility.yul\":6115:6138   */\n      sub\n        /* \"#utility.yul\":6111:6143   */\n      slt\n        /* \"#utility.yul\":6108:6227   */\n      iszero\n      tag_310\n      jumpi\n        /* \"#utility.yul\":6146:6225   */\n      tag_311\n      tag_176\n      jump\t// in\n    tag_311:\n        /* \"#utility.yul\":6108:6227   */\n    tag_310:\n        /* \"#utility.yul\":6266:6267   */\n      0x00\n        /* \"#utility.yul\":6291:6344   */\n      tag_312\n        /* \"#utility.yul\":6336:6343   */\n      dup5\n        /* \"#utility.yul\":6327:6333   */\n      dup3\n        /* \"#utility.yul\":6316:6325   */\n      dup6\n        /* \"#utility.yul\":6312:6334   */\n      add\n        /* \"#utility.yul\":6291:6344   */\n      tag_180\n      jump\t// in\n    tag_312:\n        /* \"#utility.yul\":6281:6344   */\n      swap2\n      pop\n        /* \"#utility.yul\":6237:6354   */\n      pop\n        /* \"#utility.yul\":6032:6361   */\n      swap3\n      swap2\n      pop\n      pop\n      jump\t// out\n        /* \"#utility.yul\":6367:6485   */\n    tag_197:\n        /* \"#utility.yul\":6454:6478   */\n      tag_314\n        /* \"#utility.yul\":6472:6477   */\n      dup2\n        /* \"#utility.yul\":6454:6478   */\n      tag_182\n      jump\t// in\n    tag_314:\n        /* \"#utility.yul\":6449:6452   */\n      dup3\n        /* \"#utility.yul\":6442:6479   */\n      mstore\n        /* \"#utility.yul\":6367:6485   */\n      pop\n      pop\n      jump\t// out\n        /* \"#utility.yul\":6491:6590   */\n    tag_198:\n        /* \"#utility.yul\":6543:6549   */\n      0x00\n        /* \"#utility.yul\":6577:6582   */\n      dup2\n        /* \"#utility.yul\":6571:6583   */\n      mload\n        /* \"#utility.yul\":6561:6583   */\n      swap1\n      pop\n        /* \"#utility.yul\":6491:6590   */\n      swap2\n      swap1\n      pop\n      jump\t// out\n        /* \"#utility.yul\":6596:6765   */\n    tag_199:\n        /* \"#utility.yul\":6680:6691   */\n      0x00\n        /* \"#utility.yul\":6714:6720   */\n      dup3\n        /* \"#utility.yul\":6709:6712   */\n      dup3\n        /* \"#utility.yul\":6702:6721   */\n      mstore\n        /* \"#utility.yul\":6754:6758   */\n      0x20\n        /* \"#utility.yul\":6749:6752   */\n      dup3\n        /* \"#utility.yul\":6745:6759   */\n      add\n        /* \"#utility.yul\":6730:6759   */\n      swap1\n      pop\n        /* \"#utility.yul\":6596:6765   */\n      swap3\n      swap2\n      pop\n      pop\n      jump\t// out\n        /* \"#utility.yul\":6771:7017   */\n    tag_200:\n        /* \"#utility.yul\":6852:6853   */\n      0x00\n        /* \"#utility.yul\":6862:6975   */\n    tag_318:\n        /* \"#utility.yul\":6876:6882   */\n      dup4\n        /* \"#utility.yul\":6873:6874   */\n      dup2\n        /* \"#utility.yul\":6870:6883   */\n      lt\n        /* \"#utility.yul\":6862:6975   */\n      iszero\n      tag_320\n      jumpi\n        /* \"#utility.yul\":6961:6962   */\n      dup1\n        /* \"#utility.yul\":6956:6959   */\n      dup3\n        /* \"#utility.yul\":6952:6963   */\n      add\n        /* \"#utility.yul\":6946:6964   */\n      mload\n        /* \"#utility.yul\":6942:6943   */\n      dup2\n        /* \"#utility.yul\":6937:6940   */\n      dup5\n        /* \"#utility.yul\":6933:6944   */\n      add\n        /* \"#utility.yul\":6926:6965   */\n      mstore\n        /* \"#utility.yul\":6898:6900   */\n      0x20\n        /* \"#utility.yul\":6895:6896   */\n      dup2\n        /* \"#utility.yul\":6891:6901   */\n      add\n        /* \"#utility.yul\":6886:6901   */\n      swap1\n      pop\n        /* \"#utility.yul\":6862:6975   */\n      jump(tag_318)\n    tag_320:\n        /* \"#utility.yul\":7009:7010   */\n      0x00\n        /* \"#utility.yul\":7000:7006   */\n      dup5\n        /* \"#utility.yul\":6995:6998   */\n      dup5\n        /* \"#utility.yul\":6991:7007   */\n      add\n        /* \"#utility.yul\":6984:7011   */\n      mstore\n        /* \"#utility.yul\":6833:7017   */\n      pop\n        /* \"#utility.yul\":6771:7017   */\n      pop\n      pop\n      pop\n      jump\t// out\n        /* \"#utility.yul\":7023:7400   */\n    tag_201:\n        /* \"#utility.yul\":7111:7114   */\n      0x00\n        /* \"#utility.yul\":7139:7178   */\n      tag_322\n        /* \"#utility.yul\":7172:7177   */\n      dup3\n        /* \"#utility.yul\":7139:7178   */\n      tag_198\n      jump\t// in\n    tag_322:\n        /* \"#utility.yul\":7194:7265   */\n      tag_323\n        /* \"#utility.yul\":7258:7264   */\n      dup2\n        /* \"#utility.yul\":7253:7256   */\n      dup6\n        /* \"#utility.yul\":7194:7265   */\n      tag_199\n      jump\t// in\n    tag_323:\n        /* \"#utility.yul\":7187:7265   */\n      swap4\n      pop\n        /* \"#utility.yul\":7274:7339   */\n      tag_324\n        /* \"#utility.yul\":7332:7338   */\n      dup2\n        /* \"#utility.yul\":7327:7330   */\n      dup6\n        /* \"#utility.yul\":7320:7324   */\n      0x20\n        /* \"#utility.yul\":7313:7318   */\n      dup7\n        /* \"#utility.yul\":7309:7325   */\n      add\n        /* \"#utility.yul\":7274:7339   */\n      tag_200\n      jump\t// in\n    tag_324:\n        /* \"#utility.yul\":7364:7393   */\n      tag_325\n        /* \"#utility.yul\":7386:7392   */\n      dup2\n        /* \"#utility.yul\":7364:7393   */\n      tag_189\n      jump\t// in\n    tag_325:\n        /* \"#utility.yul\":7359:7362   */\n      dup5\n        /* \"#utility.yul\":7355:7394   */\n      add\n        /* \"#utility.yul\":7348:7394   */\n      swap2\n      pop\n        /* \"#utility.yul\":7115:7400   */\n      pop\n        /* \"#utility.yul\":7023:7400   */\n      swap3\n      swap2\n      pop\n      pop\n      jump\t// out\n        /* \"#utility.yul\":7406:7927   */\n    tag_45:\n        /* \"#utility.yul\":7569:7573   */\n      0x00\n        /* \"#utility.yul\":7607:7609   */\n      0x60\n        /* \"#utility.yul\":7596:7605   */\n      dup3\n        /* \"#utility.yul\":7592:7610   */\n      add\n        /* \"#utility.yul\":7584:7610   */\n      swap1\n      pop\n        /* \"#utility.yul\":7620:7691   */\n      tag_327\n        /* \"#utility.yul\":7688:7689   */\n      0x00\n        /* \"#utility.yul\":7677:7686   */\n      dup4\n        /* \"#utility.yul\":7673:7690   */\n      add\n        /* \"#utility.yul\":7664:7670   */\n      dup7\n        /* \"#utility.yul\":7620:7691   */\n      tag_197\n      jump\t// in\n    tag_327:\n        /* \"#utility.yul\":7738:7747   */\n      dup2\n        /* \"#utility.yul\":7732:7736   */\n      dup2\n        /* \"#utility.yul\":7728:7748   */\n      sub\n        /* \"#utility.yul\":7723:7725   */\n      0x20\n        /* \"#utility.yul\":7712:7721   */\n      dup4\n        /* \"#utility.yul\":7708:7726   */\n      add\n        /* \"#utility.yul\":7701:7749   */\n      mstore\n        /* \"#utility.yul\":7766:7844   */\n      tag_328\n        /* \"#utility.yul\":7839:7843   */\n      dup2\n        /* \"#utility.yul\":7830:7836   */\n      dup6\n        /* \"#utility.yul\":7766:7844   */\n      tag_201\n      jump\t// in\n    tag_328:\n        /* \"#utility.yul\":7758:7844   */\n      swap1\n      pop\n        /* \"#utility.yul\":7854:7920   */\n      tag_329\n        /* \"#utility.yul\":7916:7918   */\n      0x40\n        /* \"#utility.yul\":7905:7914   */\n      dup4\n        /* \"#utility.yul\":7901:7919   */\n      add\n        /* \"#utility.yul\":7892:7898   */\n      dup5\n        /* \"#utility.yul\":7854:7920   */\n      tag_186\n      jump\t// in\n    tag_329:\n        /* \"#utility.yul\":7406:7927   */\n      swap5\n      swap4\n      pop\n      pop\n      pop\n      pop\n      jump\t// out\n        /* \"#utility.yul\":7933:8051   */\n    tag_202:\n        /* \"#utility.yul\":8020:8044   */\n      tag_331\n        /* \"#utility.yul\":8038:8043   */\n      dup2\n        /* \"#utility.yul\":8020:8044   */\n      tag_178\n      jump\t// in\n    tag_331:\n        /* \"#utility.yul\":8015:8018   */\n      dup3\n        /* \"#utility.yul\":8008:8045   */\n      mstore\n        /* \"#utility.yul\":7933:8051   */\n      pop\n      pop\n      jump\t// out\n        /* \"#utility.yul\":8057:9133   */\n    tag_53:\n        /* \"#utility.yul\":8360:8364   */\n      0x00\n        /* \"#utility.yul\":8398:8401   */\n      0x0100\n        /* \"#utility.yul\":8387:8396   */\n      dup3\n        /* \"#utility.yul\":8383:8402   */\n      add\n        /* \"#utility.yul\":8375:8402   */\n      swap1\n      pop\n        /* \"#utility.yul\":8412:8483   */\n      tag_333\n        /* \"#utility.yul\":8480:8481   */\n      0x00\n        /* \"#utility.yul\":8469:8478   */\n      dup4\n        /* \"#utility.yul\":8465:8482   */\n      add\n        /* \"#utility.yul\":8456:8462   */\n      dup12\n        /* \"#utility.yul\":8412:8483   */\n      tag_202\n      jump\t// in\n    tag_333:\n        /* \"#utility.yul\":8493:8565   */\n      tag_334\n        /* \"#utility.yul\":8561:8563   */\n      0x20\n        /* \"#utility.yul\":8550:8559   */\n      dup4\n        /* \"#utility.yul\":8546:8564   */\n      add\n        /* \"#utility.yul\":8537:8543   */\n      dup11\n        /* \"#utility.yul\":8493:8565   */\n      tag_197\n      jump\t// in\n    tag_334:\n        /* \"#utility.yul\":8575:8647   */\n      tag_335\n        /* \"#utility.yul\":8643:8645   */\n      0x40\n        /* \"#utility.yul\":8632:8641   */\n      dup4\n        /* \"#utility.yul\":8628:8646   */\n      add\n        /* \"#utility.yul\":8619:8625   */\n      dup10\n        /* \"#utility.yul\":8575:8647   */\n      tag_197\n      jump\t// in\n    tag_335:\n        /* \"#utility.yul\":8657:8729   */\n      tag_336\n        /* \"#utility.yul\":8725:8727   */\n      0x60\n        /* \"#utility.yul\":8714:8723   */\n      dup4\n        /* \"#utility.yul\":8710:8728   */\n      add\n        /* \"#utility.yul\":8701:8707   */\n      dup9\n        /* \"#utility.yul\":8657:8729   */\n      tag_202\n      jump\t// in\n    tag_336:\n        /* \"#utility.yul\":8777:8786   */\n      dup2\n        /* \"#utility.yul\":8771:8775   */\n      dup2\n        /* \"#utility.yul\":8767:8787   */\n      sub\n        /* \"#utility.yul\":8761:8764   */\n      0x80\n        /* \"#utility.yul\":8750:8759   */\n      dup4\n        /* \"#utility.yul\":8746:8765   */\n      add\n        /* \"#utility.yul\":8739:8788   */\n      mstore\n        /* \"#utility.yul\":8805:8883   */\n      tag_337\n        /* \"#utility.yul\":8878:8882   */\n      dup2\n        /* \"#utility.yul\":8869:8875   */\n      dup8\n        /* \"#utility.yul\":8805:8883   */\n      tag_201\n      jump\t// in\n    tag_337:\n        /* \"#utility.yul\":8797:8883   */\n      swap1\n      pop\n        /* \"#utility.yul\":8893:8960   */\n      tag_338\n        /* \"#utility.yul\":8955:8958   */\n      0xa0\n        /* \"#utility.yul\":8944:8953   */\n      dup4\n        /* \"#utility.yul\":8940:8959   */\n      add\n        /* \"#utility.yul\":8931:8937   */\n      dup7\n        /* \"#utility.yul\":8893:8960   */\n      tag_186\n      jump\t// in\n    tag_338:\n        /* \"#utility.yul\":8970:9043   */\n      tag_339\n        /* \"#utility.yul\":9038:9041   */\n      0xc0\n        /* \"#utility.yul\":9027:9036   */\n      dup4\n        /* \"#utility.yul\":9023:9042   */\n      add\n        /* \"#utility.yul\":9014:9020   */\n      dup6\n        /* \"#utility.yul\":8970:9043   */\n      tag_202\n      jump\t// in\n    tag_339:\n        /* \"#utility.yul\":9053:9126   */\n      tag_340\n        /* \"#utility.yul\":9121:9124   */\n      0xe0\n        /* \"#utility.yul\":9110:9119   */\n      dup4\n        /* \"#utility.yul\":9106:9125   */\n      add\n        /* \"#utility.yul\":9097:9103   */\n      dup5\n        /* \"#utility.yul\":9053:9126   */\n      tag_202\n      jump\t// in\n    tag_340:\n        /* \"#utility.yul\":8057:9133   */\n      swap10\n      swap9\n      pop\n      pop\n      pop\n      pop\n      pop\n      pop\n      pop\n      pop\n      pop\n      jump\t// out\n        /* \"#utility.yul\":9139:9613   */\n    tag_56:\n        /* \"#utility.yul\":9207:9213   */\n      0x00\n        /* \"#utility.yul\":9215:9221   */\n      dup1\n        /* \"#utility.yul\":9264:9266   */\n      0x40\n        /* \"#utility.yul\":9252:9261   */\n      dup4\n        /* \"#utility.yul\":9243:9250   */\n      dup6\n        /* \"#utility.yul\":9239:9262   */\n      sub\n        /* \"#utility.yul\":9235:9267   */\n      slt\n        /* \"#utility.yul\":9232:9351   */\n      iszero\n      tag_342\n      jumpi\n        /* \"#utility.yul\":9270:9349   */\n      tag_343\n      tag_176\n      jump\t// in\n    tag_343:\n        /* \"#utility.yul\":9232:9351   */\n    tag_342:\n        /* \"#utility.yul\":9390:9391   */\n      0x00\n        /* \"#utility.yul\":9415:9468   */\n      tag_344\n        /* \"#utility.yul\":9460:9467   */\n      dup6\n        /* \"#utility.yul\":9451:9457   */\n      dup3\n        /* \"#utility.yul\":9440:9449   */\n      dup7\n        /* \"#utility.yul\":9436:9458   */\n      add\n        /* \"#utility.yul\":9415:9468   */\n      tag_180\n      jump\t// in\n    tag_344:\n        /* \"#utility.yul\":9405:9468   */\n      swap3\n      pop\n        /* \"#utility.yul\":9361:9478   */\n      pop\n        /* \"#utility.yul\":9517:9519   */\n      0x20\n        /* \"#utility.yul\":9543:9596   */\n      tag_345\n        /* \"#utility.yul\":9588:9595   */\n      dup6\n        /* \"#utility.yul\":9579:9585   */\n      dup3\n        /* \"#utility.yul\":9568:9577   */\n      dup7\n        /* \"#utility.yul\":9564:9586   */\n      add\n        /* \"#utility.yul\":9543:9596   */\n      tag_180\n      jump\t// in\n    tag_345:\n        /* \"#utility.yul\":9533:9596   */\n      swap2\n      pop\n        /* \"#utility.yul\":9488:9606   */\n      pop\n        /* \"#utility.yul\":9139:9613   */\n      swap3\n      pop\n      swap3\n      swap1\n      pop\n      jump\t// out\n        /* \"#utility.yul\":9619:9829   */\n    tag_62:\n        /* \"#utility.yul\":9706:9710   */\n      0x00\n        /* \"#utility.yul\":9744:9746   */\n      0x20\n        /* \"#utility.yul\":9733:9742   */\n      dup3\n        /* \"#utility.yul\":9729:9747   */\n      add\n        /* \"#utility.yul\":9721:9747   */\n      swap1\n      pop\n        /* \"#utility.yul\":9757:9822   */\n      tag_347\n        /* \"#utility.yul\":9819:9820   */\n      0x00\n        /* \"#utility.yul\":9808:9817   */\n      dup4\n        /* \"#utility.yul\":9804:9821   */\n      add\n        /* \"#utility.yul\":9795:9801   */\n      dup5\n        /* \"#utility.yul\":9757:9822   */\n      tag_186\n      jump\t// in\n    tag_347:\n        /* \"#utility.yul\":9619:9829   */\n      swap3\n      swap2\n      pop\n      pop\n      jump\t// out\n        /* \"#utility.yul\":9835:10057   */\n    tag_66:\n        /* \"#utility.yul\":9928:9932   */\n      0x00\n        /* \"#utility.yul\":9966:9968   */\n      0x20\n        /* \"#utility.yul\":9955:9964   */\n      dup3\n        /* \"#utility.yul\":9951:9969   */\n      add\n        /* \"#utility.yul\":9943:9969   */\n      swap1\n      pop\n        /* \"#utility.yul\":9979:10050   */\n      tag_349\n        /* \"#utility.yul\":10047:10048   */\n      0x00\n        /* \"#utility.yul\":10036:10045   */\n      dup4\n        /* \"#utility.yul\":10032:10049   */\n      add\n        /* \"#utility.yul\":10023:10029   */\n      dup5\n        /* \"#utility.yul\":9979:10050   */\n      tag_202\n      jump\t// in\n    tag_349:\n        /* \"#utility.yul\":9835:10057   */\n      swap3\n      swap2\n      pop\n      pop\n      jump\t// out\n        /* \"#utility.yul\":10063:10243   */\n    tag_203:\n        /* \"#utility.yul\":10111:10188   */\n      0x4e487b7100000000000000000000000000000000000000000000000000000000\n        /* \"#utility.yul\":10108:10109   */\n      0x00\n        /* \"#utility.yul\":10101:10189   */\n      mstore\n        /* \"#utility.yul\":10208:10212   */\n      0x22\n        /* \"#utility.yul\":10205:10206   */\n      0x04\n        /* \"#utility.yul\":10198:10213   */\n      mstore\n        /* \"#utility.yul\":10232:10236   */\n      0x24\n        /* \"#utility.yul\":10229:10230   */\n      0x00\n        /* \"#utility.yul\":10222:10237   */\n      revert\n        /* \"#utility.yul\":10249:10569   */\n    tag_108:\n        /* \"#utility.yul\":10293:10299   */\n      0x00\n        /* \"#utility.yul\":10330:10331   */\n      0x02\n        /* \"#utility.yul\":10324:10328   */\n      dup3\n        /* \"#utility.yul\":10320:10332   */\n      div\n        /* \"#utility.yul\":10310:10332   */\n      swap1\n      pop\n        /* \"#utility.yul\":10377:10378   */\n      0x01\n        /* \"#utility.yul\":10371:10375   */\n      dup3\n        /* \"#utility.yul\":10367:10379   */\n      and\n        /* \"#utility.yul\":10398:10416   */\n      dup1\n        /* \"#utility.yul\":10388:10469   */\n      tag_352\n      jumpi\n        /* \"#utility.yul\":10454:10458   */\n      0x7f\n        /* \"#utility.yul\":10446:10452   */\n      dup3\n        /* \"#utility.yul\":10442:10459   */\n      and\n        /* \"#utility.yul\":10432:10459   */\n      swap2\n      pop\n        /* \"#utility.yul\":10388:10469   */\n    tag_352:\n        /* \"#utility.yul\":10516:10518   */\n      0x20\n        /* \"#utility.yul\":10508:10514   */\n      dup3\n        /* \"#utility.yul\":10505:10519   */\n      lt\n        /* \"#utility.yul\":10485:10503   */\n      dup2\n        /* \"#utility.yul\":10482:10520   */\n      sub\n        /* \"#utility.yul\":10479:10563   */\n      tag_353\n      jumpi\n        /* \"#utility.yul\":10535:10553   */\n      tag_354\n      tag_203\n      jump\t// in\n    tag_354:\n        /* \"#utility.yul\":10479:10563   */\n    tag_353:\n        /* \"#utility.yul\":10300:10569   */\n      pop\n        /* \"#utility.yul\":10249:10569   */\n      swap2\n      swap1\n      pop\n      jump\t// out\n        /* \"#utility.yul\":10575:10716   */\n    tag_204:\n        /* \"#utility.yul\":10624:10628   */\n      0x00\n        /* \"#utility.yul\":10647:10650   */\n      dup2\n        /* \"#utility.yul\":10639:10650   */\n      swap1\n      pop\n        /* \"#utility.yul\":10670:10673   */\n      dup2\n        /* \"#utility.yul\":10667:10668   */\n      0x00\n        /* \"#utility.yul\":10660:10674   */\n      mstore\n        /* \"#utility.yul\":10704:10708   */\n      0x20\n        /* \"#utility.yul\":10701:10702   */\n      0x00\n        /* \"#utility.yul\":10691:10709   */\n      keccak256\n        /* \"#utility.yul\":10683:10709   */\n      swap1\n      pop\n        /* \"#utility.yul\":10575:10716   */\n      swap2\n      swap1\n      pop\n      jump\t// out\n        /* \"#utility.yul\":10722:10815   */\n    tag_205:\n        /* \"#utility.yul\":10759:10765   */\n      0x00\n        /* \"#utility.yul\":10806:10808   */\n      0x20\n        /* \"#utility.yul\":10801:10803   */\n      0x1f\n        /* \"#utility.yul\":10794:10799   */\n      dup4\n        /* \"#utility.yul\":10790:10804   */\n      add\n        /* \"#utility.yul\":10786:10809   */\n      div\n        /* \"#utility.yul\":10776:10809   */\n      swap1\n      pop\n        /* \"#utility.yul\":10722:10815   */\n      swap2\n      swap1\n      pop\n      jump\t// out\n        /* \"#utility.yul\":10821:10928   */\n    tag_206:\n        /* \"#utility.yul\":10865:10873   */\n      0x00\n        /* \"#utility.yul\":10915:10920   */\n      dup3\n        /* \"#utility.yul\":10909:10913   */\n      dup3\n        /* \"#utility.yul\":10905:10921   */\n      shl\n        /* \"#utility.yul\":10884:10921   */\n      swap1\n      pop\n        /* \"#utility.yul\":10821:10928   */\n      swap3\n      swap2\n      pop\n      pop\n      jump\t// out\n        /* \"#utility.yul\":10934:11327   */\n    tag_207:\n        /* \"#utility.yul\":11003:11009   */\n      0x00\n        /* \"#utility.yul\":11053:11054   */\n      0x08\n        /* \"#utility.yul\":11041:11051   */\n      dup4\n        /* \"#utility.yul\":11037:11055   */\n      mul\n        /* \"#utility.yul\":11076:11173   */\n      tag_359\n        /* \"#utility.yul\":11106:11172   */\n      0xffffffffffffffffffffffffffffffffffffffffffffffffffffffffffffffff\n        /* \"#utility.yul\":11095:11104   */\n      dup3\n        /* \"#utility.yul\":11076:11173   */\n      tag_206\n      jump\t// in\n    tag_359:\n        /* \"#utility.yul\":11194:11233   */\n      tag_360\n        /* \"#utility.yul\":11224:11232   */\n      dup7\n        /* \"#utility.yul\":11213:11222   */\n      dup4\n        /* \"#utility.yul\":11194:11233   */\n      tag_206\n      jump\t// in\n    tag_360:\n        /* \"#utility.yul\":11182:11233   */\n      swap6\n      pop\n        /* \"#utility.yul\":11266:11270   */\n      dup1\n        /* \"#utility.yul\":11262:11271   */\n      not\n        /* \"#utility.yul\":11255:11260   */\n      dup5\n        /* \"#utility.yul\":11251:11272   */\n      and\n        /* \"#utility.yul\":11242:11272   */\n      swap4\n      pop\n        /* \"#utility.yul\":11315:11319   */\n      dup1\n        /* \"#utility.yul\":11305:11313   */\n      dup7\n        /* \"#utility.yul\":11301:11320   */\n      and\n        /* \"#utility.yul\":11294:11299   */\n      dup5\n        /* \"#utility.yul\":11291:11321   */\n      or\n        /* \"#utility.yul\":11281:11321   */\n      swap3\n      pop\n        /* \"#utility.yul\":11010:11327   */\n      pop\n      pop\n        /* \"#utility.yul\":10934:11327   */\n      swap4\n      swap3\n      pop\n      pop\n      pop\n      jump\t// out\n        /* \"#utility.yul\":11333:11393   */\n    tag_208:\n        /* \"#utility.yul\":11361:11364   */\n      0x00\n        /* \"#utility.yul\":11382:11387   */\n      dup2\n        /* \"#utility.yul\":11375:11387   */\n      swap1\n      pop\n        /* \"#utility.yul\":11333:11393   */\n      swap2\n      swap1\n      pop\n      jump\t// out\n        /* \"#utility.yul\":11399:11541   */\n    tag_209:\n        /* \"#utility.yul\":11449:11458   */\n      0x00\n        /* \"#utility.yul\":11482:11535   */\n      tag_363\n        /* \"#utility.yul\":11500:11534   */\n      tag_364\n        /* \"#utility.yul\":11509:11533   */\n      tag_365\n        /* \"#utility.yul\":11527:11532   */\n      dup5\n        /* \"#utility.yul\":11509:11533   */\n      tag_178\n      jump\t// in\n    tag_365:\n        /* \"#utility.yul\":11500:11534   */\n      tag_208\n      jump\t// in\n    tag_364:\n        /* \"#utility.yul\":11482:11535   */\n      tag_178\n      jump\t// in\n    tag_363:\n        /* \"#utility.yul\":11469:11535   */\n      swap1\n      pop\n        /* \"#utility.yul\":11399:11541   */\n      swap2\n      swap1\n      pop\n      jump\t// out\n        /* \"#utility.yul\":11547:11622   */\n    tag_210:\n        /* \"#utility.yul\":11590:11593   */\n      0x00\n        /* \"#utility.yul\":11611:11616   */\n      dup2\n        /* \"#utility.yul\":11604:11616   */\n      swap1\n      pop\n        /* \"#utility.yul\":11547:11622   */\n      swap2\n      swap1\n      pop\n      jump\t// out\n        /* \"#utility.yul\":11628:11897   */\n    tag_211:\n        /* \"#utility.yul\":11738:11777   */\n      tag_368\n        /* \"#utility.yul\":11769:11776   */\n      dup4\n        /* \"#utility.yul\":11738:11777   */\n      tag_209\n      jump\t// in\n    tag_368:\n        /* \"#utility.yul\":11799:11890   */\n      tag_369\n        /* \"#utility.yul\":11848:11889   */\n      tag_370\n        /* \"#utility.yul\":11872:11888   */\n      dup3\n        /* \"#utility.yul\":11848:11889   */\n      tag_210\n      jump\t// in\n    tag_370:\n        /* \"#utility.yul\":11840:11846   */\n      dup5\n        /* \"#utility.yul\":11833:11837   */\n      dup5\n        /* \"#utility.yul\":11827:11838   */\n      sload\n        /* \"#utility.yul\":11799:11890   */\n      tag_207\n      jump\t// in\n    tag_369:\n        /* \"#utility.yul\":11793:11797   */\n      dup3\n        /* \"#utility.yul\":11786:11891   */\n      sstore\n        /* \"#utility.yul\":11704:11897   */\n      pop\n        /* \"#utility.yul\":11628:11897   */\n      pop\n      pop\n      pop\n      jump\t// out\n        /* \"#utility.yul\":11903:11976   */\n    tag_212:\n        /* \"#utility.yul\":11948:11951   */\n      0x00\n        /* \"#utility.yul\":11903:11976   */\n      swap1\n      jump\t// out\n        /* \"#utility.yul\":11982:12171   */\n    tag_213:\n        /* \"#utility.yul\":12059:12091   */\n      tag_373\n      tag_212\n      jump\t// in\n    tag_373:\n        /* \"#utility.yul\":12100:12165   */\n      tag_374\n        /* \"#utility.yul\":12158:12164   */\n      dup2\n        /* \"#utility.yul\":12150:12156   */\n      dup5\n        /* \"#utility.yul\":12144:12148   */\n      dup5\n        /* \"#utility.yul\":12100:12165   */\n      tag_211\n      jump\t// in\n    tag_374:\n        /* \"#utility.yul\":12035:12171   */\n      pop\n        /* \"#utility.yul\":11982:12171   */\n      pop\n      pop\n      jump\t// out\n        /* \"#utility.yul\":12177:12363   */\n    tag_214:\n        /* \"#utility.yul\":12237:12357   */\n    tag_376:\n        /* \"#utility.yul\":12254:12257   */\n      dup2\n        /* \"#utility.yul\":12247:12252   */\n      dup2\n        /* \"#utility.yul\":12244:12258   */\n      lt\n        /* \"#utility.yul\":12237:12357   */\n      iszero\n      tag_378\n      jumpi\n        /* \"#utility.yul\":12308:12347   */\n      tag_379\n        /* \"#utility.yul\":12345:12346   */\n      0x00\n        /* \"#utility.yul\":12338:12343   */\n      dup3\n        /* \"#utility.yul\":12308:12347   */\n      tag_213\n      jump\t// in\n    tag_379:\n        /* \"#utility.yul\":12281:12282   */\n      0x01\n        /* \"#utility.yul\":12274:12279   */\n      dup2\n        /* \"#utility.yul\":12270:12283   */\n      add\n        /* \"#utility.yul\":12261:12283   */\n      swap1\n      pop\n        /* \"#utility.yul\":12237:12357   */\n      jump(tag_376)\n    tag_378:\n        /* \"#utility.yul\":12177:12363   */\n      pop\n      pop\n      jump\t// out\n        /* \"#utility.yul\":12369:12912   */\n    tag_215:\n        /* \"#utility.yul\":12470:12472   */\n      0x1f\n        /* \"#utility.yul\":12465:12468   */\n      dup3\n        /* \"#utility.yul\":12462:12473   */\n      gt\n        /* \"#utility.yul\":12459:12905   */\n      iszero\n      tag_381\n      jumpi\n        /* \"#utility.yul\":12504:12542   */\n      tag_382\n        /* \"#utility.yul\":12536:12541   */\n      dup2\n        /* \"#utility.yul\":12504:12542   */\n      tag_204\n      jump\t// in\n    tag_382:\n        /* \"#utility.yul\":12588:12617   */\n      tag_383\n        /* \"#utility.yul\":12606:12616   */\n      dup5\n        /* \"#utility.yul\":12588:12617   */\n      tag_205\n      jump\t// in\n    tag_383:\n        /* \"#utility.yul\":12578:12586   */\n      dup2\n        /* \"#utility.yul\":12574:12618   */\n      add\n        /* \"#utility.yul\":12771:12773   */\n      0x20\n        /* \"#utility.yul\":12759:12769   */\n      dup6\n        /* \"#utility.yul\":12756:12774   */\n      lt\n        /* \"#utility.yul\":12753:12802   */\n      iszero\n      tag_384\n      jumpi\n        /* \"#utility.yul\":12792:12800   */\n      dup2\n        /* \"#utility.yul\":12777:12800   */\n      swap1\n      pop\n        /* \"#utility.yul\":12753:12802   */\n    tag_384:\n        /* \"#utility.yul\":12815:12895   */\n      tag_385\n        /* \"#utility.yul\":12871:12893   */\n      tag_386\n        /* \"#utility.yul\":12889:12892   */\n      dup6\n        /* \"#utility.yul\":12871:12893   */\n      tag_205\n      jump\t// in\n    tag_386:\n        /* \"#utility.yul\":12861:12869   */\n      dup4\n        /* \"#utility.yul\":12857:12894   */\n      add\n        /* \"#utility.yul\":12844:12855   */\n      dup3\n        /* \"#utility.yul\":12815:12895   */\n      tag_214\n      jump\t// in\n    tag_385:\n        /* \"#utility.yul\":12474:12905   */\n      pop\n      pop\n        /* \"#utility.yul\":12459:12905   */\n    tag_381:\n        /* \"#utility.yul\":12369:12912   */\n      pop\n      pop\n      pop\n      jump\t// out\n        /* \"#utility.yul\":12918:13035   */\n    tag_216:\n        /* \"#utility.yul\":12972:12980   */\n      0x00\n        /* \"#utility.yul\":13022:13027   */\n      dup3\n        /* \"#utility.yul\":13016:13020   */\n      dup3\n        /* \"#utility.yul\":13012:13028   */\n      shr\n        /* \"#utility.yul\":12991:13028   */\n      swap1\n      pop\n        /* \"#utility.yul\":12918:13035   */\n      swap3\n      swap2\n      pop\n      pop\n      jump\t// out\n        /* \"#utility.yul\":13041:13210   */\n    tag_217:\n        /* \"#utility.yul\":13085:13091   */\n      0x00\n        /* \"#utility.yul\":13118:13169   */\n      tag_389\n        /* \"#utility.yul\":13166:13167   */\n      0x00\n        /* \"#utility.yul\":13162:13168   */\n      not\n        /* \"#utility.yul\":13154:13159   */\n      dup5\n        /* \"#utility.yul\":13151:13152   */\n      0x08\n        /* \"#utility.yul\":13147:13160   */\n      mul\n        /* \"#utility.yul\":13118:13169   */\n      tag_216\n      jump\t// in\n    tag_389:\n        /* \"#utility.yul\":13114:13170   */\n      not\n        /* \"#utility.yul\":13199:13203   */\n      dup1\n        /* \"#utility.yul\":13193:13197   */\n      dup4\n        /* \"#utility.yul\":13189:13204   */\n      and\n        /* \"#utility.yul\":13179:13204   */\n      swap2\n      pop\n        /* \"#utility.yul\":13092:13210   */\n      pop\n        /* \"#utility.yul\":13041:13210   */\n      swap3\n      swap2\n      pop\n      pop\n      jump\t// out\n        /* \"#utility.yul\":13215:13510   */\n    tag_218:\n        /* \"#utility.yul\":13291:13295   */\n      0x00\n        /* \"#utility.yul\":13437:13466   */\n      tag_391\n        /* \"#utility.yul\":13462:13465   */\n      dup4\n        /* \"#utility.yul\":13456:13460   */\n      dup4\n        /* \"#utility.yul\":13437:13466   */\n      tag_217\n      jump\t// in\n    tag_391:\n        /* \"#utility.yul\":13429:13466   */\n      swap2\n      pop\n        /* \"#utility.yul\":13499:13502   */\n      dup3\n        /* \"#utility.yul\":13496:13497   */\n      0x02\n        /* \"#utility.yul\":13492:13503   */\n      mul\n        /* \"#utility.yul\":13486:13490   */\n      dup3\n        /* \"#utility.yul\":13483:13504   */\n      or\n        /* \"#utility.yul\":13475:13504   */\n      swap1\n      pop\n        /* \"#utility.yul\":13215:13510   */\n      swap3\n      swap2\n      pop\n      pop\n      jump\t// out\n        /* \"#utility.yul\":13515:14910   */\n    tag_79:\n        /* \"#utility.yul\":13632:13669   */\n      tag_393\n        /* \"#utility.yul\":13665:13668   */\n      dup3\n        /* \"#utility.yul\":13632:13669   */\n      tag_198\n      jump\t// in\n    tag_393:\n        /* \"#utility.yul\":13734:13752   */\n      0xffffffffffffffff\n        /* \"#utility.yul\":13726:13732   */\n      dup2\n        /* \"#utility.yul\":13723:13753   */\n      gt\n        /* \"#utility.yul\":13720:13776   */\n      iszero\n      tag_394\n      jumpi\n        /* \"#utility.yul\":13756:13774   */\n      tag_395\n      tag_190\n      jump\t// in\n    tag_395:\n        /* \"#utility.yul\":13720:13776   */\n    tag_394:\n        /* \"#utility.yul\":13800:13838   */\n      tag_396\n        /* \"#utility.yul\":13832:13836   */\n      dup3\n        /* \"#utility.yul\":13826:13837   */\n      sload\n        /* \"#utility.yul\":13800:13838   */\n      tag_108\n      jump\t// in\n    tag_396:\n        /* \"#utility.yul\":13885:13952   */\n      tag_397\n        /* \"#utility.yul\":13945:13951   */\n      dup3\n        /* \"#utility.yul\":13937:13943   */\n      dup3\n        /* \"#utility.yul\":13931:13935   */\n      dup6\n        /* \"#utility.yul\":13885:13952   */\n      tag_215\n      jump\t// in\n    tag_397:\n        /* \"#utility.yul\":13979:13980   */\n      0x00\n        /* \"#utility.yul\":14003:14007   */\n      0x20\n        /* \"#utility.yul\":13990:14007   */\n      swap1\n      pop\n        /* \"#utility.yul\":14035:14037   */\n      0x1f\n        /* \"#utility.yul\":14027:14033   */\n      dup4\n        /* \"#utility.yul\":14024:14038   */\n      gt\n        /* \"#utility.yul\":14052:14053   */\n      0x01\n        /* \"#utility.yul\":14047:14665   */\n      dup2\n      eq\n      tag_399\n      jumpi\n        /* \"#utility.yul\":14709:14710   */\n      0x00\n        /* \"#utility.yul\":14726:14732   */\n      dup5\n        /* \"#utility.yul\":14723:14800   */\n      iszero\n      tag_400\n      jumpi\n        /* \"#utility.yul\":14775:14784   */\n      dup3\n        /* \"#utility.yul\":14770:14773   */\n      dup8\n        /* \"#utility.yul\":14766:14785   */\n      add\n        /* \"#utility.yul\":14760:14786   */\n      mload\n        /* \"#utility.yul\":14751:14786   */\n      swap1\n      pop\n        /* \"#utility.yul\":14723:14800   */\n    tag_400:\n        /* \"#utility.yul\":14826:14893   */\n      tag_401\n        /* \"#utility.yul\":14886:14892   */\n      dup6\n        /* \"#utility.yul\":14879:14884   */\n      dup3\n        /* \"#utility.yul\":14826:14893   */\n      tag_218\n      jump\t// in\n    tag_401:\n        /* \"#utility.yul\":14820:14824   */\n      dup7\n        /* \"#utility.yul\":14813:14894   */\n      sstore\n        /* \"#utility.yul\":14682:14904   */\n      pop\n        /* \"#utility.yul\":14017:14904   */\n      jump(tag_398)\n        /* \"#utility.yul\":14047:14665   */\n    tag_399:\n        /* \"#utility.yul\":14099:14103   */\n      0x1f\n        /* \"#utility.yul\":14095:14104   */\n      not\n        /* \"#utility.yul\":14087:14093   */\n      dup5\n        /* \"#utility.yul\":14083:14105   */\n      and\n        /* \"#utility.yul\":14133:14170   */\n      tag_402\n        /* \"#utility.yul\":14165:14169   */\n      dup7\n        /* \"#utility.yul\":14133:14170   */\n      tag_204\n      jump\t// in\n    tag_402:\n        /* \"#utility.yul\":14192:14193   */\n      0x00\n        /* \"#utility.yul\":14206:14414   */\n    tag_403:\n        /* \"#utility.yul\":14220:14227   */\n      dup3\n        /* \"#utility.yul\":14217:14218   */\n      dup2\n        /* \"#utility.yul\":14214:14228   */\n      lt\n        /* \"#utility.yul\":14206:14414   */\n      iszero\n      tag_405\n      jumpi\n        /* \"#utility.yul\":14299:14308   */\n      dup5\n        /* \"#utility.yul\":14294:14297   */\n      dup10\n        /* \"#utility.yul\":14290:14309   */\n      add\n        /* \"#utility.yul\":14284:14310   */\n      mload\n        /* \"#utility.yul\":14276:14282   */\n      dup3\n        /* \"#utility.yul\":14269:14311   */\n      sstore\n        /* \"#utility.yul\":14350:14351   */\n      0x01\n        /* \"#utility.yul\":14342:14348   */\n      dup3\n        /* \"#utility.yul\":14338:14352   */\n      add\n        /* \"#utility.yul\":14328:14352   */\n      swap2\n      pop\n        /* \"#utility.yul\":14397:14399   */\n      0x20\n        /* \"#utility.yul\":14386:14395   */\n      dup6\n        /* \"#utility.yul\":14382:14400   */\n      add\n        /* \"#utility.yul\":14369:14400   */\n      swap5\n      pop\n        /* \"#utility.yul\":14243:14247   */\n      0x20\n        /* \"#utility.yul\":14240:14241   */\n      dup2\n        /* \"#utility.yul\":14236:14248   */\n      add\n        /* \"#utility.yul\":14231:14248   */\n      swap1\n      pop\n        /* \"#utility.yul\":14206:14414   */\n      jump(tag_403)\n    tag_405:\n        /* \"#utility.yul\":14442:14448   */\n      dup7\n        /* \"#utility.yul\":14433:14440   */\n      dup4\n        /* \"#utility.yul\":14430:14449   */\n      lt\n        /* \"#utility.yul\":14427:14606   */\n      iszero\n      tag_406\n      jumpi\n        /* \"#utility.yul\":14500:14509   */\n      dup5\n        /* \"#utility.yul\":14495:14498   */\n      dup10\n        /* \"#utility.yul\":14491:14510   */\n      add\n        /* \"#utility.yul\":14485:14511   */\n      mload\n        /* \"#utility.yul\":14543:14591   */\n      tag_407\n        /* \"#utility.yul\":14585:14589   */\n      0x1f\n        /* \"#utility.yul\":14577:14583   */\n      dup10\n        /* \"#utility.yul\":14573:14590   */\n      and\n        /* \"#utility.yul\":14562:14571   */\n      dup3\n        /* \"#utility.yul\":14543:14591   */\n      tag_217\n      jump\t// in\n    tag_407:\n        /* \"#utility.yul\":14535:14541   */\n      dup4\n        /* \"#utility.yul\":14528:14592   */\n      sstore\n        /* \"#utility.yul\":14450:14606   */\n      pop\n        /* \"#utility.yul\":14427:14606   */\n    tag_406:\n        /* \"#utility.yul\":14652:14653   */\n      0x01\n        /* \"#utility.yul\":14648:14649   */\n      0x02\n        /* \"#utility.yul\":14640:14646   */\n      dup9\n        /* \"#utility.yul\":14636:14650   */\n      mul\n        /* \"#utility.yul\":14632:14654   */\n      add\n        /* \"#utility.yul\":14626:14630   */\n      dup9\n        /* \"#utility.yul\":14619:14655   */\n      sstore\n        /* \"#utility.yul\":14054:14665   */\n      pop\n      pop\n      pop\n        /* \"#utility.yul\":14017:14904   */\n    tag_398:\n      pop\n        /* \"#utility.yul\":13607:14910   */\n      pop\n      pop\n      pop\n        /* \"#utility.yul\":13515:14910   */\n      pop\n      pop\n      jump\t// out\n        /* \"#utility.yul\":14916:15096   */\n    tag_219:\n        /* \"#utility.yul\":14964:15041   */\n      0x4e487b7100000000000000000000000000000000000000000000000000000000\n        /* \"#utility.yul\":14961:14962   */\n      0x00\n        /* \"#utility.yul\":14954:15042   */\n      mstore\n        /* \"#utility.yul\":15061:15065   */\n      0x11\n        /* \"#utility.yul\":15058:15059   */\n      0x04\n        /* \"#utility.yul\":15051:15066   */\n      mstore\n        /* \"#utility.yul\":15085:15089   */\n      0x24\n        /* \"#utility.yul\":15082:15083   */\n      0x00\n        /* \"#utility.yul\":15075:15090   */\n      revert\n        /* \"#utility.yul\":15102:15335   */\n    tag_82:\n        /* \"#utility.yul\":15141:15144   */\n      0x00\n        /* \"#utility.yul\":15164:15188   */\n      tag_410\n        /* \"#utility.yul\":15182:15187   */\n      dup3\n        /* \"#utility.yul\":15164:15188   */\n      tag_178\n      jump\t// in\n    tag_410:\n        /* \"#utility.yul\":15155:15188   */\n      swap2\n      pop\n        /* \"#utility.yul\":15210:15276   */\n      0xffffffffffffffffffffffffffffffffffffffffffffffffffffffffffffffff\n        /* \"#utility.yul\":15203:15208   */\n      dup3\n        /* \"#utility.yul\":15200:15277   */\n      sub\n        /* \"#utility.yul\":15197:15300   */\n      tag_411\n      jumpi\n        /* \"#utility.yul\":15280:15298   */\n      tag_412\n      tag_219\n      jump\t// in\n    tag_412:\n        /* \"#utility.yul\":15197:15300   */\n    tag_411:\n        /* \"#utility.yul\":15327:15328   */\n      0x01\n        /* \"#utility.yul\":15320:15325   */\n      dup3\n        /* \"#utility.yul\":15316:15329   */\n      add\n        /* \"#utility.yul\":15309:15329   */\n      swap1\n      pop\n        /* \"#utility.yul\":15102:15335   */\n      swap2\n      swap1\n      pop\n      jump\t// out\n        /* \"#utility.yul\":15341:15517   */\n    tag_220:\n        /* \"#utility.yul\":15481:15509   */\n      0x436572746966696361746520646f6573206e6f74206578697374000000000000\n        /* \"#utility.yul\":15477:15478   */\n      0x00\n        /* \"#utility.yul\":15469:15475   */\n      dup3\n        /* \"#utility.yul\":15465:15479   */\n      add\n        /* \"#utility.yul\":15458:15510   */\n      mstore\n        /* \"#utility.yul\":15341:15517   */\n      pop\n      jump\t// out\n        /* \"#utility.yul\":15523:15889   */\n    tag_221:\n        /* \"#utility.yul\":15665:15668   */\n      0x00\n        /* \"#utility.yul\":15686:15753   */\n      tag_415\n        /* \"#utility.yul\":15750:15752   */\n      0x1a\n        /* \"#utility.yul\":15745:15748   */\n      dup4\n        /* \"#utility.yul\":15686:15753   */\n      tag_199\n      jump\t// in\n    tag_415:\n        /* \"#utility.yul\":15679:15753   */\n      swap2\n      pop\n        /* \"#utility.yul\":15762:15855   */\n      tag_416\n        /* \"#utility.yul\":15851:15854   */\n      dup3\n        /* \"#utility.yul\":15762:15855   */\n      tag_220\n      jump\t// in\n    tag_416:\n        /* \"#utility.yul\":15880:15882   */\n      0x20\n        /* \"#utility.yul\":15875:15878   */\n      dup3\n        /* \"#utility.yul\":15871:15883   */\n      add\n        /* \"#utility.yul\":15864:15883   */\n      swap1\n      pop\n        /* \"#utility.yul\":15523:15889   */\n      swap2\n      swap1\n      pop\n      jump\t// out\n        /* \"#utility.yul\":15895:16314   */\n    tag_86:\n        /* \"#utility.yul\":16061:16065   */\n      0x00\n        /* \"#utility.yul\":16099:16101   */\n      0x20\n        /* \"#utility.yul\":16088:16097   */\n      dup3\n        /* \"#utility.yul\":16084:16102   */\n      add\n        /* \"#utility.yul\":16076:16102   */\n      swap1\n      pop\n        /* \"#utility.yul\":16148:16157   */\n      dup2\n        /* \"#utility.yul\":16142:16146   */\n      dup2\n        /* \"#utility.yul\":16138:16158   */\n      sub\n        /* \"#utility.yul\":16134:16135   */\n      0x00\n        /* \"#utility.yul\":16123:16132   */\n      dup4\n        /* \"#utility.yul\":16119:16136   */\n      add\n        /* \"#utility.yul\":16112:16159   */\n      mstore\n        /* \"#utility.yul\":16176:16307   */\n      tag_418\n        /* \"#utility.yul\":16302:16306   */\n      dup2\n        /* \"#utility.yul\":16176:16307   */\n      tag_221\n      jump\t// in\n    tag_418:\n        /* \"#utility.yul\":16168:16307   */\n      swap1\n      pop\n        /* \"#utility.yul\":15895:16314   */\n      swap2\n      swap1\n      pop\n      jump\t// out\n        /* \"#utility.yul\":16320:16552   */\n    tag_222:\n        /* \"#utility.yul\":16460:16494   */\n      0x4f6e6c79207468652063757272656e74206f776e65722063616e207472616e73\n        /* \"#utility.yul\":16456:16457   */\n      0x00\n        /* \"#utility.yul\":16448:16454   */\n      dup3\n        /* \"#utility.yul\":16444:16458   */\n      add\n        /* \"#utility.yul\":16437:16495   */\n      mstore\n        /* \"#utility.yul\":16529:16544   */\n      0x666572206f776e65727368697000000000000000000000000000000000000000\n        /* \"#utility.yul\":16524:16526   */\n      0x20\n        /* \"#utility.yul\":16516:16522   */\n      dup3\n        /* \"#utility.yul\":16512:16527   */\n      add\n        /* \"#utility.yul\":16505:16545   */\n      mstore\n        /* \"#utility.yul\":16320:16552   */\n      pop\n      jump\t// out\n        /* \"#utility.yul\":16558:16924   */\n    tag_223:\n        /* \"#utility.yul\":16700:16703   */\n      0x00\n        /* \"#utility.yul\":16721:16788   */\n      tag_421\n        /* \"#utility.yul\":16785:16787   */\n      0x2d\n        /* \"#utility.yul\":16780:16783   */\n      dup4\n        /* \"#utility.yul\":16721:16788   */\n      tag_199\n      jump\t// in\n    tag_421:\n        /* \"#utility.yul\":16714:16788   */\n      swap2\n      pop\n        /* \"#utility.yul\":16797:16890   */\n      tag_422\n        /* \"#utility.yul\":16886:16889   */\n      dup3\n        /* \"#utility.yul\":16797:16890   */\n      tag_222\n      jump\t// in\n    tag_422:\n        /* \"#utility.yul\":16915:16917   */\n      0x40\n        /* \"#utility.yul\":16910:16913   */\n      dup3\n        /* \"#utility.yul\":16906:16918   */\n      add\n        /* \"#utility.yul\":16899:16918   */\n      swap1\n      pop\n        /* \"#utility.yul\":16558:16924   */\n      swap2\n      swap1\n      pop\n      jump\t// out\n        /* \"#utility.yul\":16930:17349   */\n    tag_89:\n        /* \"#utility.yul\":17096:17100   */\n      0x00\n        /* \"#utility.yul\":17134:17136   */\n      0x20\n        /* \"#utility.yul\":17123:17132   */\n      dup3\n        /* \"#utility.yul\":17119:17137   */\n      add\n        /* \"#utility.yul\":17111:17137   */\n      swap1\n      pop\n        /* \"#utility.yul\":17183:17192   */\n      dup2\n        /* \"#utility.yul\":17177:17181   */\n      dup2\n        /* \"#utility.yul\":17173:17193   */\n      sub\n        /* \"#utility.yul\":17169:17170   */\n      0x00\n        /* \"#utility.yul\":17158:17167   */\n      dup4\n        /* \"#utility.yul\":17154:17171   */\n      add\n        /* \"#utility.yul\":17147:17194   */\n      mstore\n        /* \"#utility.yul\":17211:17342   */\n      tag_424\n        /* \"#utility.yul\":17337:17341   */\n      dup2\n        /* \"#utility.yul\":17211:17342   */\n      tag_223\n      jump\t// in\n    tag_424:\n        /* \"#utility.yul\":17203:17342   */\n      swap1\n      pop\n        /* \"#utility.yul\":16930:17349   */\n      swap2\n      swap1\n      pop\n      jump\t// out\n        /* \"#utility.yul\":17355:17579   */\n    tag_224:\n        /* \"#utility.yul\":17495:17529   */\n      0x4f6e6c79206e6f6e2d63617272696572732063616e2072657175657374206368\n        /* \"#utility.yul\":17491:17492   */\n      0x00\n        /* \"#utility.yul\":17483:17489   */\n      dup3\n        /* \"#utility.yul\":17479:17493   */\n      add\n        /* \"#utility.yul\":17472:17530   */\n      mstore\n        /* \"#utility.yul\":17564:17571   */\n      0x616e676573000000000000000000000000000000000000000000000000000000\n        /* \"#utility.yul\":17559:17561   */\n      0x20\n        /* \"#utility.yul\":17551:17557   */\n      dup3\n        /* \"#utility.yul\":17547:17562   */\n      add\n        /* \"#utility.yul\":17540:17572   */\n      mstore\n        /* \"#utility.yul\":17355:17579   */\n      pop\n      jump\t// out\n        /* \"#utility.yul\":17585:17951   */\n    tag_225:\n        /* \"#utility.yul\":17727:17730   */\n      0x00\n        /* \"#utility.yul\":17748:17815   */\n      tag_427\n        /* \"#utility.yul\":17812:17814   */\n      0x25\n        /* \"#utility.yul\":17807:17810   */\n      dup4\n        /* \"#utility.yul\":17748:17815   */\n      tag_199\n      jump\t// in\n    tag_427:\n        /* \"#utility.yul\":17741:17815   */\n      swap2\n      pop\n        /* \"#utility.yul\":17824:17917   */\n      tag_428\n        /* \"#utility.yul\":17913:17916   */\n      dup3\n        /* \"#utility.yul\":17824:17917   */\n      tag_224\n      jump\t// in\n    tag_428:\n        /* \"#utility.yul\":17942:17944   */\n      0x40\n        /* \"#utility.yul\":17937:17940   */\n      dup3\n        /* \"#utility.yul\":17933:17945   */\n      add\n        /* \"#utility.yul\":17926:17945   */\n      swap1\n      pop\n        /* \"#utility.yul\":17585:17951   */\n      swap2\n      swap1\n      pop\n      jump\t// out\n        /* \"#utility.yul\":17957:18376   */\n    tag_95:\n        /* \"#utility.yul\":18123:18127   */\n      0x00\n        /* \"#utility.yul\":18161:18163   */\n      0x20\n        /* \"#utility.yul\":18150:18159   */\n      dup3\n        /* \"#utility.yul\":18146:18164   */\n      add\n        /* \"#utility.yul\":18138:18164   */\n      swap1\n      pop\n        /* \"#utility.yul\":18210:18219   */\n      dup2\n        /* \"#utility.yul\":18204:18208   */\n      dup2\n        /* \"#utility.yul\":18200:18220   */\n      sub\n        /* \"#utility.yul\":18196:18197   */\n      0x00\n        /* \"#utility.yul\":18185:18194   */\n      dup4\n        /* \"#utility.yul\":18181:18198   */\n      add\n        /* \"#utility.yul\":18174:18221   */\n      mstore\n        /* \"#utility.yul\":18238:18369   */\n      tag_430\n        /* \"#utility.yul\":18364:18368   */\n      dup2\n        /* \"#utility.yul\":18238:18369   */\n      tag_225\n      jump\t// in\n    tag_430:\n        /* \"#utility.yul\":18230:18369   */\n      swap1\n      pop\n        /* \"#utility.yul\":17957:18376   */\n      swap2\n      swap1\n      pop\n      jump\t// out\n        /* \"#utility.yul\":18382:18608   */\n    tag_226:\n        /* \"#utility.yul\":18522:18556   */\n      0x4f6e6c7920746865206d61696e206f776e65722063616e2072656d6f7665206e\n        /* \"#utility.yul\":18518:18519   */\n      0x00\n        /* \"#utility.yul\":18510:18516   */\n      dup3\n        /* \"#utility.yul\":18506:18520   */\n      add\n        /* \"#utility.yul\":18499:18557   */\n      mstore\n        /* \"#utility.yul\":18591:18600   */\n      0x6f6d696e65657300000000000000000000000000000000000000000000000000\n        /* \"#utility.yul\":18586:18588   */\n      0x20\n        /* \"#utility.yul\":18578:18584   */\n      dup3\n        /* \"#utility.yul\":18574:18589   */\n      add\n        /* \"#utility.yul\":18567:18601   */\n      mstore\n        /* \"#utility.yul\":18382:18608   */\n      pop\n      jump\t// out\n        /* \"#utility.yul\":18614:18980   */\n    tag_227:\n        /* \"#utility.yul\":18756:18759   */\n      0x00\n        /* \"#utility.yul\":18777:18844   */\n      tag_433\n        /* \"#utility.yul\":18841:18843   */\n      0x27\n        /* \"#utility.yul\":18836:18839   */\n      dup4\n        /* \"#utility.yul\":18777:18844   */\n      tag_199\n      jump\t// in\n    tag_433:\n        /* \"#utility.yul\":18770:18844   */\n      swap2\n      pop\n        /* \"#utility.yul\":18853:18946   */\n      tag_434\n        /* \"#utility.yul\":18942:18945   */\n      dup3\n        /* \"#utility.yul\":18853:18946   */\n      tag_226\n      jump\t// in\n    tag_434:\n        /* \"#utility.yul\":18971:18973   */\n      0x40\n        /* \"#utility.yul\":18966:18969   */\n      dup3\n        /* \"#utility.yul\":18962:18974   */\n      add\n        /* \"#utility.yul\":18955:18974   */\n      swap1\n      pop\n        /* \"#utility.yul\":18614:18980   */\n      swap2\n      swap1\n      pop\n      jump\t// out\n        /* \"#utility.yul\":18986:19405   */\n    tag_103:\n        /* \"#utility.yul\":19152:19156   */\n      0x00\n        /* \"#utility.yul\":19190:19192   */\n      0x20\n        /* \"#utility.yul\":19179:19188   */\n      dup3\n        /* \"#utility.yul\":19175:19193   */\n      add\n        /* \"#utility.yul\":19167:19193   */\n      swap1\n      pop\n        /* \"#utility.yul\":19239:19248   */\n      dup2\n        /* \"#utility.yul\":19233:19237   */\n      dup2\n        /* \"#utility.yul\":19229:19249   */\n      sub\n        /* \"#utility.yul\":19225:19226   */\n      0x00\n        /* \"#utility.yul\":19214:19223   */\n      dup4\n        /* \"#utility.yul\":19210:19227   */\n      add\n        /* \"#utility.yul\":19203:19250   */\n      mstore\n        /* \"#utility.yul\":19267:19398   */\n      tag_436\n        /* \"#utility.yul\":19393:19397   */\n      dup2\n        /* \"#utility.yul\":19267:19398   */\n      tag_227\n      jump\t// in\n    tag_436:\n        /* \"#utility.yul\":19259:19398   */\n      swap1\n      pop\n        /* \"#utility.yul\":18986:19405   */\n      swap2\n      swap1\n      pop\n      jump\t// out\n        /* \"#utility.yul\":19411:19707   */\n    tag_228:\n        /* \"#utility.yul\":19551:19585   */\n      0x4f6e6c79207468652063617272696572206f7220636f6c6c61626f7261746f72\n        /* \"#utility.yul\":19547:19548   */\n      0x00\n        /* \"#utility.yul\":19539:19545   */\n      dup3\n        /* \"#utility.yul\":19535:19549   */\n      add\n        /* \"#utility.yul\":19528:19586   */\n      mstore\n        /* \"#utility.yul\":19620:19654   */\n      0x2077697468206f776e6572736869702063616e2072656d6f766520636f6c6c61\n        /* \"#utility.yul\":19615:19617   */\n      0x20\n        /* \"#utility.yul\":19607:19613   */\n      dup3\n        /* \"#utility.yul\":19603:19618   */\n      add\n        /* \"#utility.yul\":19596:19655   */\n      mstore\n        /* \"#utility.yul\":19689:19699   */\n      0x626f7261746f7273000000000000000000000000000000000000000000000000\n        /* \"#utility.yul\":19684:19686   */\n      0x40\n        /* \"#utility.yul\":19676:19682   */\n      dup3\n        /* \"#utility.yul\":19672:19687   */\n      add\n        /* \"#utility.yul\":19665:19700   */\n      mstore\n        /* \"#utility.yul\":19411:19707   */\n      pop\n      jump\t// out\n        /* \"#utility.yul\":19713:20079   */\n    tag_229:\n        /* \"#utility.yul\":19855:19858   */\n      0x00\n        /* \"#utility.yul\":19876:19943   */\n      tag_439\n        /* \"#utility.yul\":19940:19942   */\n      0x48\n        /* \"#utility.yul\":19935:19938   */\n      dup4\n        /* \"#utility.yul\":19876:19943   */\n      tag_199\n      jump\t// in\n    tag_439:\n        /* \"#utility.yul\":19869:19943   */\n      swap2\n      pop\n        /* \"#utility.yul\":19952:20045   */\n      tag_440\n        /* \"#utility.yul\":20041:20044   */\n      dup3\n        /* \"#utility.yul\":19952:20045   */\n      tag_228\n      jump\t// in\n    tag_440:\n        /* \"#utility.yul\":20070:20072   */\n      0x60\n        /* \"#utility.yul\":20065:20068   */\n      dup3\n        /* \"#utility.yul\":20061:20073   */\n      add\n        /* \"#utility.yul\":20054:20073   */\n      swap1\n      pop\n        /* \"#utility.yul\":19713:20079   */\n      swap2\n      swap1\n      pop\n      jump\t// out\n        /* \"#utility.yul\":20085:20504   */\n    tag_119:\n        /* \"#utility.yul\":20251:20255   */\n      0x00\n        /* \"#utility.yul\":20289:20291   */\n      0x20\n        /* \"#utility.yul\":20278:20287   */\n      dup3\n        /* \"#utility.yul\":20274:20292   */\n      add\n        /* \"#utility.yul\":20266:20292   */\n      swap1\n      pop\n        /* \"#utility.yul\":20338:20347   */\n      dup2\n        /* \"#utility.yul\":20332:20336   */\n      dup2\n        /* \"#utility.yul\":20328:20348   */\n      sub\n        /* \"#utility.yul\":20324:20325   */\n      0x00\n        /* \"#utility.yul\":20313:20322   */\n      dup4\n        /* \"#utility.yul\":20309:20326   */\n      add\n        /* \"#utility.yul\":20302:20349   */\n      mstore\n        /* \"#utility.yul\":20366:20497   */\n      tag_442\n        /* \"#utility.yul\":20492:20496   */\n      dup2\n        /* \"#utility.yul\":20366:20497   */\n      tag_229\n      jump\t// in\n    tag_442:\n        /* \"#utility.yul\":20358:20497   */\n      swap1\n      pop\n        /* \"#utility.yul\":20085:20504   */\n      swap2\n      swap1\n      pop\n      jump\t// out\n        /* \"#utility.yul\":20510:20690   */\n    tag_125:\n        /* \"#utility.yul\":20558:20635   */\n      0x4e487b7100000000000000000000000000000000000000000000000000000000\n        /* \"#utility.yul\":20555:20556   */\n      0x00\n        /* \"#utility.yul\":20548:20636   */\n      mstore\n        /* \"#utility.yul\":20655:20659   */\n      0x32\n        /* \"#utility.yul\":20652:20653   */\n      0x04\n        /* \"#utility.yul\":20645:20660   */\n      mstore\n        /* \"#utility.yul\":20679:20683   */\n      0x24\n        /* \"#utility.yul\":20676:20677   */\n      0x00\n        /* \"#utility.yul\":20669:20684   */\n      revert\n        /* \"#utility.yul\":20696:20890   */\n    tag_129:\n        /* \"#utility.yul\":20736:20740   */\n      0x00\n        /* \"#utility.yul\":20756:20776   */\n      tag_445\n        /* \"#utility.yul\":20774:20775   */\n      dup3\n        /* \"#utility.yul\":20756:20776   */\n      tag_178\n      jump\t// in\n    tag_445:\n        /* \"#utility.yul\":20751:20776   */\n      swap2\n      pop\n        /* \"#utility.yul\":20790:20810   */\n      tag_446\n        /* \"#utility.yul\":20808:20809   */\n      dup4\n        /* \"#utility.yul\":20790:20810   */\n      tag_178\n      jump\t// in\n    tag_446:\n        /* \"#utility.yul\":20785:20810   */\n      swap3\n      pop\n        /* \"#utility.yul\":20834:20835   */\n      dup3\n        /* \"#utility.yul\":20831:20832   */\n      dup3\n        /* \"#utility.yul\":20827:20836   */\n      sub\n        /* \"#utility.yul\":20819:20836   */\n      swap1\n      pop\n        /* \"#utility.yul\":20858:20859   */\n      dup2\n        /* \"#utility.yul\":20852:20856   */\n      dup2\n        /* \"#utility.yul\":20849:20860   */\n      gt\n        /* \"#utility.yul\":20846:20883   */\n      iszero\n      tag_447\n      jumpi\n        /* \"#utility.yul\":20863:20881   */\n      tag_448\n      tag_219\n      jump\t// in\n    tag_448:\n        /* \"#utility.yul\":20846:20883   */\n    tag_447:\n        /* \"#utility.yul\":20696:20890   */\n      swap3\n      swap2\n      pop\n      pop\n      jump\t// out\n        /* \"#utility.yul\":20896:21076   */\n    tag_138:\n        /* \"#utility.yul\":20944:21021   */\n      0x4e487b7100000000000000000000000000000000000000000000000000000000\n        /* \"#utility.yul\":20941:20942   */\n      0x00\n        /* \"#utility.yul\":20934:21022   */\n      mstore\n        /* \"#utility.yul\":21041:21045   */\n      0x31\n        /* \"#utility.yul\":21038:21039   */\n      0x04\n        /* \"#utility.yul\":21031:21046   */\n      mstore\n        /* \"#utility.yul\":21065:21069   */\n      0x24\n        /* \"#utility.yul\":21062:21063   */\n      0x00\n        /* \"#utility.yul\":21055:21070   */\n      revert\n        /* \"#utility.yul\":21082:21373   */\n    tag_230:\n        /* \"#utility.yul\":21222:21256   */\n      0x4f6e6c79207468652063617272696572206f7220636f6c6c61626f7261746f72\n        /* \"#utility.yul\":21218:21219   */\n      0x00\n        /* \"#utility.yul\":21210:21216   */\n      dup3\n        /* \"#utility.yul\":21206:21220   */\n      add\n        /* \"#utility.yul\":21199:21257   */\n      mstore\n        /* \"#utility.yul\":21291:21325   */\n      0x2077697468206f776e6572736869702063616e20617070726f7665206368616e\n        /* \"#utility.yul\":21286:21288   */\n      0x20\n        /* \"#utility.yul\":21278:21284   */\n      dup3\n        /* \"#utility.yul\":21274:21289   */\n      add\n        /* \"#utility.yul\":21267:21326   */\n      mstore\n        /* \"#utility.yul\":21360:21365   */\n      0x6765730000000000000000000000000000000000000000000000000000000000\n        /* \"#utility.yul\":21355:21357   */\n      0x40\n        /* \"#utility.yul\":21347:21353   */\n      dup3\n        /* \"#utility.yul\":21343:21358   */\n      add\n        /* \"#utility.yul\":21336:21366   */\n      mstore\n        /* \"#utility.yul\":21082:21373   */\n      pop\n      jump\t// out\n        /* \"#utility.yul\":21379:21745   */\n    tag_231:\n        /* \"#utility.yul\":21521:21524   */\n      0x00\n        /* \"#utility.yul\":21542:21609   */\n      tag_452\n        /* \"#utility.yul\":21606:21608   */\n      0x43\n        /* \"#utility.yul\":21601:21604   */\n      dup4\n        /* \"#utility.yul\":21542:21609   */\n      tag_199\n      jump\t// in\n    tag_452:\n        /* \"#utility.yul\":21535:21609   */\n      swap2\n      pop\n        /* \"#utility.yul\":21618:21711   */\n      tag_453\n        /* \"#utility.yul\":21707:21710   */\n      dup3\n        /* \"#utility.yul\":21618:21711   */\n      tag_230\n      jump\t// in\n    tag_453:\n        /* \"#utility.yul\":21736:21738   */\n      0x60\n        /* \"#utility.yul\":21731:21734   */\n      dup3\n        /* \"#utility.yul\":21727:21739   */\n      add\n        /* \"#utility.yul\":21720:21739   */\n      swap1\n      pop\n        /* \"#utility.yul\":21379:21745   */\n      swap2\n      swap1\n      pop\n      jump\t// out\n        /* \"#utility.yul\":21751:22170   */\n    tag_151:\n        /* \"#utility.yul\":21917:21921   */\n      0x00\n        /* \"#utility.yul\":21955:21957   */\n      0x20\n        /* \"#utility.yul\":21944:21953   */\n      dup3\n        /* \"#utility.yul\":21940:21958   */\n      add\n        /* \"#utility.yul\":21932:21958   */\n      swap1\n      pop\n        /* \"#utility.yul\":22004:22013   */\n      dup2\n        /* \"#utility.yul\":21998:22002   */\n      dup2\n        /* \"#utility.yul\":21994:22014   */\n      sub\n        /* \"#utility.yul\":21990:21991   */\n      0x00\n        /* \"#utility.yul\":21979:21988   */\n      dup4\n        /* \"#utility.yul\":21975:21992   */\n      add\n        /* \"#utility.yul\":21968:22015   */\n      mstore\n        /* \"#utility.yul\":22032:22163   */\n      tag_455\n        /* \"#utility.yul\":22158:22162   */\n      dup2\n        /* \"#utility.yul\":22032:22163   */\n      tag_231\n      jump\t// in\n    tag_455:\n        /* \"#utility.yul\":22024:22163   */\n      swap1\n      pop\n        /* \"#utility.yul\":21751:22170   */\n      swap2\n      swap1\n      pop\n      jump\t// out\n        /* \"#utility.yul\":22176:22343   */\n    tag_232:\n        /* \"#utility.yul\":22316:22335   */\n      0x496e76616c6964206368616e6765204944000000000000000000000000000000\n        /* \"#utility.yul\":22312:22313   */\n      0x00\n        /* \"#utility.yul\":22304:22310   */\n      dup3\n        /* \"#utility.yul\":22300:22314   */\n      add\n        /* \"#utility.yul\":22293:22336   */\n      mstore\n        /* \"#utility.yul\":22176:22343   */\n      pop\n      jump\t// out\n        /* \"#utility.yul\":22349:22715   */\n    tag_233:\n        /* \"#utility.yul\":22491:22494   */\n      0x00\n        /* \"#utility.yul\":22512:22579   */\n      tag_458\n        /* \"#utility.yul\":22576:22578   */\n      0x11\n        /* \"#utility.yul\":22571:22574   */\n      dup4\n        /* \"#utility.yul\":22512:22579   */\n      tag_199\n      jump\t// in\n    tag_458:\n        /* \"#utility.yul\":22505:22579   */\n      swap2\n      pop\n        /* \"#utility.yul\":22588:22681   */\n      tag_459\n        /* \"#utility.yul\":22677:22680   */\n      dup3\n        /* \"#utility.yul\":22588:22681   */\n      tag_232\n      jump\t// in\n    tag_459:\n        /* \"#utility.yul\":22706:22708   */\n      0x20\n        /* \"#utility.yul\":22701:22704   */\n      dup3\n        /* \"#utility.yul\":22697:22709   */\n      add\n        /* \"#utility.yul\":22690:22709   */\n      swap1\n      pop\n        /* \"#utility.yul\":22349:22715   */\n      swap2\n      swap1\n      pop\n      jump\t// out\n        /* \"#utility.yul\":22721:23140   */\n    tag_154:\n        /* \"#utility.yul\":22887:22891   */\n      0x00\n        /* \"#utility.yul\":22925:22927   */\n      0x20\n        /* \"#utility.yul\":22914:22923   */\n      dup3\n        /* \"#utility.yul\":22910:22928   */\n      add\n        /* \"#utility.yul\":22902:22928   */\n      swap1\n      pop\n        /* \"#utility.yul\":22974:22983   */\n      dup2\n        /* \"#utility.yul\":22968:22972   */\n      dup2\n        /* \"#utility.yul\":22964:22984   */\n      sub\n        /* \"#utility.yul\":22960:22961   */\n      0x00\n        /* \"#utility.yul\":22949:22958   */\n      dup4\n        /* \"#utility.yul\":22945:22962   */\n      add\n        /* \"#utility.yul\":22938:22985   */\n      mstore\n        /* \"#utility.yul\":23002:23133   */\n      tag_461\n        /* \"#utility.yul\":23128:23132   */\n      dup2\n        /* \"#utility.yul\":23002:23133   */\n      tag_233\n      jump\t// in\n    tag_461:\n        /* \"#utility.yul\":22994:23133   */\n      swap1\n      pop\n        /* \"#utility.yul\":22721:23140   */\n      swap2\n      swap1\n      pop\n      jump\t// out\n        /* \"#utility.yul\":23146:23439   */\n    tag_234:\n        /* \"#utility.yul\":23286:23320   */\n      0x4f6e6c79207468652063617272696572206f7220636f6c6c61626f7261746f72\n        /* \"#utility.yul\":23282:23283   */\n      0x00\n        /* \"#utility.yul\":23274:23280   */\n      dup3\n        /* \"#utility.yul\":23270:23284   */\n      add\n        /* \"#utility.yul\":23263:23321   */\n      mstore\n        /* \"#utility.yul\":23355:23389   */\n      0x2077697468206f776e6572736869702063616e2061646420636f6c6c61626f72\n        /* \"#utility.yul\":23350:23352   */\n      0x20\n        /* \"#utility.yul\":23342:23348   */\n      dup3\n        /* \"#utility.yul\":23338:23353   */\n      add\n        /* \"#utility.yul\":23331:23390   */\n      mstore\n        /* \"#utility.yul\":23424:23431   */\n      0x61746f7273000000000000000000000000000000000000000000000000000000\n        /* \"#utility.yul\":23419:23421   */\n      0x40\n        /* \"#utility.yul\":23411:23417   */\n      dup3\n        /* \"#utility.yul\":23407:23422   */\n      add\n        /* \"#utility.yul\":23400:23432   */\n      mstore\n        /* \"#utility.yul\":23146:23439   */\n      pop\n      jump\t// out\n        /* \"#utility.yul\":23445:23811   */\n    tag_235:\n        /* \"#utility.yul\":23587:23590   */\n      0x00\n        /* \"#utility.yul\":23608:23675   */\n      tag_464\n        /* \"#utility.yul\":23672:23674   */\n      0x45\n        /* \"#utility.yul\":23667:23670   */\n      dup4\n        /* \"#utility.yul\":23608:23675   */\n      tag_199\n      jump\t// in\n    tag_464:\n        /* \"#utility.yul\":23601:23675   */\n      swap2\n      pop\n        /* \"#utility.yul\":23684:23777   */\n      tag_465\n        /* \"#utility.yul\":23773:23776   */\n      dup3\n        /* \"#utility.yul\":23684:23777   */\n      tag_234\n      jump\t// in\n    tag_465:\n        /* \"#utility.yul\":23802:23804   */\n      0x60\n        /* \"#utility.yul\":23797:23800   */\n      dup3\n        /* \"#utility.yul\":23793:23805   */\n      add\n        /* \"#utility.yul\":23786:23805   */\n      swap1\n      pop\n        /* \"#utility.yul\":23445:23811   */\n      swap2\n      swap1\n      pop\n      jump\t// out\n        /* \"#utility.yul\":23817:24236   */\n    tag_167:\n        /* \"#utility.yul\":23983:23987   */\n      0x00\n        /* \"#utility.yul\":24021:24023   */\n      0x20\n        /* \"#utility.yul\":24010:24019   */\n      dup3\n        /* \"#utility.yul\":24006:24024   */\n      add\n        /* \"#utility.yul\":23998:24024   */\n      swap1\n      pop\n        /* \"#utility.yul\":24070:24079   */\n      dup2\n        /* \"#utility.yul\":24064:24068   */\n      dup2\n        /* \"#utility.yul\":24060:24080   */\n      sub\n        /* \"#utility.yul\":24056:24057   */\n      0x00\n        /* \"#utility.yul\":24045:24054   */\n      dup4\n        /* \"#utility.yul\":24041:24058   */\n      add\n        /* \"#utility.yul\":24034:24081   */\n      mstore\n        /* \"#utility.yul\":24098:24229   */\n      tag_467\n        /* \"#utility.yul\":24224:24228   */\n      dup2\n        /* \"#utility.yul\":24098:24229   */\n      tag_235\n      jump\t// in\n    tag_467:\n        /* \"#utility.yul\":24090:24229   */\n      swap1\n      pop\n        /* \"#utility.yul\":23817:24236   */\n      swap2\n      swap1\n      pop\n      jump\t// out\n        /* \"#utility.yul\":24242:24465   */\n    tag_236:\n        /* \"#utility.yul\":24382:24416   */\n      0x4f6e6c7920746865206d61696e206f776e65722063616e20616464206e6f6d69\n        /* \"#utility.yul\":24378:24379   */\n      0x00\n        /* \"#utility.yul\":24370:24376   */\n      dup3\n        /* \"#utility.yul\":24366:24380   */\n      add\n        /* \"#utility.yul\":24359:24417   */\n      mstore\n        /* \"#utility.yul\":24451:24457   */\n      0x6e65657300000000000000000000000000000000000000000000000000000000\n        /* \"#utility.yul\":24446:24448   */\n      0x20\n        /* \"#utility.yul\":24438:24444   */\n      dup3\n        /* \"#utility.yul\":24434:24449   */\n      add\n        /* \"#utility.yul\":24427:24458   */\n      mstore\n        /* \"#utility.yul\":24242:24465   */\n      pop\n      jump\t// out\n        /* \"#utility.yul\":24471:24837   */\n    tag_237:\n        /* \"#utility.yul\":24613:24616   */\n      0x00\n        /* \"#utility.yul\":24634:24701   */\n      tag_470\n        /* \"#utility.yul\":24698:24700   */\n      0x24\n        /* \"#utility.yul\":24693:24696   */\n      dup4\n        /* \"#utility.yul\":24634:24701   */\n      tag_199\n      jump\t// in\n    tag_470:\n        /* \"#utility.yul\":24627:24701   */\n      swap2\n      pop\n        /* \"#utility.yul\":24710:24803   */\n      tag_471\n        /* \"#utility.yul\":24799:24802   */\n      dup3\n        /* \"#utility.yul\":24710:24803   */\n      tag_236\n      jump\t// in\n    tag_471:\n        /* \"#utility.yul\":24828:24830   */\n      0x40\n        /* \"#utility.yul\":24823:24826   */\n      dup3\n        /* \"#utility.yul\":24819:24831   */\n      add\n        /* \"#utility.yul\":24812:24831   */\n      swap1\n      pop\n        /* \"#utility.yul\":24471:24837   */\n      swap2\n      swap1\n      pop\n      jump\t// out\n        /* \"#utility.yul\":24843:25262   */\n    tag_174:\n        /* \"#utility.yul\":25009:25013   */\n      0x00\n        /* \"#utility.yul\":25047:25049   */\n      0x20\n        /* \"#utility.yul\":25036:25045   */\n      dup3\n        /* \"#utility.yul\":25032:25050   */\n      add\n        /* \"#utility.yul\":25024:25050   */\n      swap1\n      pop\n        /* \"#utility.yul\":25096:25105   */\n      dup2\n        /* \"#utility.yul\":25090:25094   */\n      dup2\n        /* \"#utility.yul\":25086:25106   */\n      sub\n        /* \"#utility.yul\":25082:25083   */\n      0x00\n        /* \"#utility.yul\":25071:25080   */\n      dup4\n        /* \"#utility.yul\":25067:25084   */\n      add\n        /* \"#utility.yul\":25060:25107   */\n      mstore\n        /* \"#utility.yul\":25124:25255   */\n      tag_473\n        /* \"#utility.yul\":25250:25254   */\n      dup2\n        /* \"#utility.yul\":25124:25255   */\n      tag_237\n      jump\t// in\n    tag_473:\n        /* \"#utility.yul\":25116:25255   */\n      swap1\n      pop\n        /* \"#utility.yul\":24843:25262   */\n      swap2\n      swap1\n      pop\n      jump\t// out\n\n    auxdata: 0xa26469706673582212205f1c68ac17c053e1f0e13738b14fd2bb34641615fbf198a94dba0415fe2d849f64736f6c63430008160033\n}\n",
				"bytecode": {
					"linkReferences": {},
					"object": "608060405234801561000f575f80fd5b506123ce8061001d5f395ff3fe608060405234801561000f575f80fd5b50600436106100e8575f3560e01c8063663b3e221161008a578063a0bdb00311610064578063a0bdb0031461025e578063c0af6cc61461027c578063d4bd5a0d146102ad578063f5bdaa18146102c9576100e8565b8063663b3e22146101db578063776b28b7146102125780637d60af911461022e576100e8565b80633ce2d7fa116100c65780633ce2d7fa146101555780634f916fb01461017157806351640fee1461018d578063601b349c146101bf576100e8565b80631368e7c3146100ec57806320e2bef71461011d57806329507f7314610139575b5f80fd5b61010660048036038101906101019190611623565b6102e5565b60405161011492919061167b565b60405180910390f35b610137600480360381019061013291906117de565b610328565b005b610153600480360381019061014e9190611623565b6104b9565b005b61016f600480360381019061016a919061185e565b61074b565b005b61018b60048036038101906101869190611623565b61087f565b005b6101a760048036038101906101a291906118b8565b6109ba565b6040516101b69392919061196c565b60405180910390f35b6101d960048036038101906101d49190611623565b610ae6565b005b6101f560048036038101906101f091906118b8565b610d6e565b6040516102099897969594939291906119b7565b60405180910390f35b61022c60048036038101906102279190611a3a565b610e81565b005b61024860048036038101906102439190611623565b6110ae565b6040516102559190611a78565b60405180910390f35b610266611156565b6040516102739190611a91565b60405180910390f35b61029660048036038101906102919190611623565b61115c565b6040516102a492919061167b565b60405180910390f35b6102c760048036038101906102c29190611623565b611264565b005b6102e360048036038101906102de9190611623565b611441565b005b6001602052815f5260405f20602052805f5260405f205f9150915050805f015f9054906101000a900460ff1690805f0160019054906101000a900460ff16905082565b5f60025490505f805f8381526020019081526020015f20905081815f018190555033816001015f6101000a81548173ffffffffffffffffffffffffffffffffffffffff021916908373ffffffffffffffffffffffffffffffffffffffff16021790555085816002015f6101000a81548173ffffffffffffffffffffffffffffffffffffffff021916908373ffffffffffffffffffffffffffffffffffffffff160217905550848160060190816103de9190611ca4565b505f816007015f6101000a81548160ff0219169083151502179055508060090182908060018154018082558091505060019003905f5260205f20015f90919091909150556001805f8481526020019081526020015f205f3373ffffffffffffffffffffffffffffffffffffffff1673ffffffffffffffffffffffffffffffffffffffff1681526020019081526020015f205f0160016101000a81548160ff0219169083151502179055508381600a01819055508281600b018190555060025f8154809291906104ac90611da0565b9190505550505050505050565b60025482106104fd576040517f08c379a00000000000000000000000000000000000000000000000000000000081526004016104f490611e31565b60405180910390fd5b5f805f8481526020019081526020015f209050806001015f9054906101000a900473ffffffffffffffffffffffffffffffffffffffff1673ffffffffffffffffffffffffffffffffffffffff163373ffffffffffffffffffffffffffffffffffffffff16146105a1576040517f08c379a000000000000000000000000000000000000000000000000000000000815260040161059890611ebf565b60405180910390fd5b81816001015f6101000a81548173ffffffffffffffffffffffffffffffffffffffff021916908373ffffffffffffffffffffffffffffffffffffffff16021790555060015f8481526020019081526020015f205f3373ffffffffffffffffffffffffffffffffffffffff1673ffffffffffffffffffffffffffffffffffffffff1681526020019081526020015f2060015f8581526020019081526020015f205f8473ffffffffffffffffffffffffffffffffffffffff1673ffffffffffffffffffffffffffffffffffffffff1681526020019081526020015f205f82015f9054906101000a900460ff16815f015f6101000a81548160ff0219169083151502179055505f820160019054906101000a900460ff16815f0160016101000a81548160ff02191690831515021790555090505060015f8481526020019081526020015f205f3373ffffffffffffffffffffffffffffffffffffffff1673ffffffffffffffffffffffffffffffffffffffff1681526020019081526020015f205f8082015f6101000a81549060ff02191690555f820160016101000a81549060ff02191690555050505050565b600254821061078f576040517f08c379a000000000000000000000000000000000000000000000000000000000815260040161078690611e31565b60405180910390fd5b5f805f8481526020019081526020015f2090503373ffffffffffffffffffffffffffffffffffffffff16816001015f9054906101000a900473ffffffffffffffffffffffffffffffffffffffff1673ffffffffffffffffffffffffffffffffffffffff1603610833576040517f08c379a000000000000000000000000000000000000000000000000000000000815260040161082a90611f4d565b60405180910390fd5b806005015f81548092919061084790611da0565b91905055508181600601908161085d9190611ca4565b506001816007015f6101000a81548160ff021916908315150217905550505050565b60025482106108c3576040517f08c379a00000000000000000000000000000000000000000000000000000000081526004016108ba90611e31565b60405180910390fd5b5f805f8481526020019081526020015f2090503373ffffffffffffffffffffffffffffffffffffffff16816002015f9054906101000a900473ffffffffffffffffffffffffffffffffffffffff1673ffffffffffffffffffffffffffffffffffffffff1614610967576040517f08c379a000000000000000000000000000000000000000000000000000000000815260040161095e90611fdb565b60405180910390fd5b806003015f8373ffffffffffffffffffffffffffffffffffffffff1673ffffffffffffffffffffffffffffffffffffffff1681526020019081526020015f205f6101000a81549060ff0219169055505050565b5f60605f6002548410610a02576040517f08c379a00000000000000000000000000000000000000000000000000000000081526004016109f990611e31565b60405180910390fd5b5f805f8681526020019081526020015f209050806001015f9054906101000a900473ffffffffffffffffffffffffffffffffffffffff1681600601826007015f9054906101000a900460ff16818054610a5a90611ad7565b80601f0160208091040260200160405190810160405280929190818152602001828054610a8690611ad7565b8015610ad15780601f10610aa857610100808354040283529160200191610ad1565b820191905f5260205f20905b815481529060010190602001808311610ab457829003601f168201915b50505050509150935093509350509193909250565b6002548210610b2a576040517f08c379a0000000000000000000000000000000000000000000000000000000008152600401610b2190611e31565b60405180910390fd5b5f805f8481526020019081526020015f209050806001015f9054906101000a900473ffffffffffffffffffffffffffffffffffffffff1673ffffffffffffffffffffffffffffffffffffffff163373ffffffffffffffffffffffffffffffffffffffff161480610bf2575060015f8481526020019081526020015f205f3373ffffffffffffffffffffffffffffffffffffffff1673ffffffffffffffffffffffffffffffffffffffff1681526020019081526020015f205f0160019054906101000a900460ff165b610c31576040517f08c379a0000000000000000000000000000000000000000000000000000000008152600401610c289061208f565b60405180910390fd5b60015f8481526020019081526020015f205f8373ffffffffffffffffffffffffffffffffffffffff1673ffffffffffffffffffffffffffffffffffffffff1681526020019081526020015f205f8082015f6101000a81549060ff02191690555f820160016101000a81549060ff021916905550505f5b8160090180549050811015610d685783826009018281548110610ccd57610ccc6120ad565b5b905f5260205f20015403610d5b578160090160018360090180549050610cf391906120da565b81548110610d0457610d036120ad565b5b905f5260205f200154826009018281548110610d2357610d226120ad565b5b905f5260205f20018190555081600901805480610d4357610d4261210d565b5b600190038181905f5260205f20015f90559055610d68565b8080600101915050610ca7565b50505050565b5f602052805f5260405f205f91509050805f015490806001015f9054906101000a900473ffffffffffffffffffffffffffffffffffffffff1690806002015f9054906101000a900473ffffffffffffffffffffffffffffffffffffffff1690806005015490806006018054610de290611ad7565b80601f0160208091040260200160405190810160405280929190818152602001828054610e0e90611ad7565b8015610e595780601f10610e3057610100808354040283529160200191610e59565b820191905f5260205f20905b815481529060010190602001808311610e3c57829003601f168201915b505050505090806007015f9054906101000a900460ff169080600a01549080600b0154905088565b6002548210610ec5576040517f08c379a0000000000000000000000000000000000000000000000000000000008152600401610ebc90611e31565b60405180910390fd5b5f805f8481526020019081526020015f2090503373ffffffffffffffffffffffffffffffffffffffff16816001015f9054906101000a900473ffffffffffffffffffffffffffffffffffffffff1673ffffffffffffffffffffffffffffffffffffffff161480610f8d575060015f8481526020019081526020015f205f3373ffffffffffffffffffffffffffffffffffffffff1673ffffffffffffffffffffffffffffffffffffffff1681526020019081526020015f205f0160019054906101000a900460ff165b610fcc576040517f08c379a0000000000000000000000000000000000000000000000000000000008152600401610fc3906121d0565b60405180910390fd5b80600501548210611012576040517f08c379a000000000000000000000000000000000000000000000000000000000815260040161100990612238565b60405180910390fd5b6001816004015f8481526020019081526020015f206003015f3373ffffffffffffffffffffffffffffffffffffffff1673ffffffffffffffffffffffffffffffffffffffff1681526020019081526020015f205f6101000a81548160ff0219169083151502179055506001816004015f8481526020019081526020015f206004015f6101000a81548160ff021916908315150217905550505050565b5f60025483106110f3576040517f08c379a00000000000000000000000000000000000000000000000000000000081526004016110ea90611e31565b60405180910390fd5b5f808481526020019081526020015f206003015f8373ffffffffffffffffffffffffffffffffffffffff1673ffffffffffffffffffffffffffffffffffffffff1681526020019081526020015f205f9054906101000a900460ff16905092915050565b60025481565b5f8060025484106111a2576040517f08c379a000000000000000000000000000000000000000000000000000000000815260040161119990611e31565b60405180910390fd5b60015f8581526020019081526020015f205f8473ffffffffffffffffffffffffffffffffffffffff1673ffffffffffffffffffffffffffffffffffffffff1681526020019081526020015f205f015f9054906101000a900460ff1660015f8681526020019081526020015f205f8573ffffffffffffffffffffffffffffffffffffffff1673ffffffffffffffffffffffffffffffffffffffff1681526020019081526020015f205f0160019054906101000a900460ff16915091509250929050565b60025482106112a8576040517f08c379a000000000000000000000000000000000000000000000000000000000815260040161129f90611e31565b60405180910390fd5b5f805f8481526020019081526020015f209050806001015f9054906101000a900473ffffffffffffffffffffffffffffffffffffffff1673ffffffffffffffffffffffffffffffffffffffff163373ffffffffffffffffffffffffffffffffffffffff161480611370575060015f8481526020019081526020015f205f3373ffffffffffffffffffffffffffffffffffffffff1673ffffffffffffffffffffffffffffffffffffffff1681526020019081526020015f205f0160019054906101000a900460ff165b6113af576040517f08c379a00000000000000000000000000000000000000000000000000000000081526004016113a6906122ec565b60405180910390fd5b6001805f8581526020019081526020015f205f8473ffffffffffffffffffffffffffffffffffffffff1673ffffffffffffffffffffffffffffffffffffffff1681526020019081526020015f205f015f6101000a81548160ff0219169083151502179055508060090183908060018154018082558091505060019003905f5260205f20015f9091909190915055505050565b6002548210611485576040517f08c379a000000000000000000000000000000000000000000000000000000000815260040161147c90611e31565b60405180910390fd5b5f805f8481526020019081526020015f2090503373ffffffffffffffffffffffffffffffffffffffff16816002015f9054906101000a900473ffffffffffffffffffffffffffffffffffffffff1673ffffffffffffffffffffffffffffffffffffffff1614611529576040517f08c379a00000000000000000000000000000000000000000000000000000000081526004016115209061237a565b60405180910390fd5b6001816003015f8473ffffffffffffffffffffffffffffffffffffffff1673ffffffffffffffffffffffffffffffffffffffff1681526020019081526020015f205f6101000a81548160ff021916908315150217905550505050565b5f604051905090565b5f80fd5b5f80fd5b5f819050919050565b6115a881611596565b81146115b2575f80fd5b50565b5f813590506115c38161159f565b92915050565b5f73ffffffffffffffffffffffffffffffffffffffff82169050919050565b5f6115f2826115c9565b9050919050565b611602816115e8565b811461160c575f80fd5b50565b5f8135905061161d816115f9565b92915050565b5f80604083850312156116395761163861158e565b5b5f611646858286016115b5565b92505060206116578582860161160f565b9150509250929050565b5f8115159050919050565b61167581611661565b82525050565b5f60408201905061168e5f83018561166c565b61169b602083018461166c565b9392505050565b5f80fd5b5f80fd5b5f601f19601f8301169050919050565b7f4e487b71000000000000000000000000000000000000000000000000000000005f52604160045260245ffd5b6116f0826116aa565b810181811067ffffffffffffffff8211171561170f5761170e6116ba565b5b80604052505050565b5f611721611585565b905061172d82826116e7565b919050565b5f67ffffffffffffffff82111561174c5761174b6116ba565b5b611755826116aa565b9050602081019050919050565b828183375f83830152505050565b5f61178261177d84611732565b611718565b90508281526020810184848401111561179e5761179d6116a6565b5b6117a9848285611762565b509392505050565b5f82601f8301126117c5576117c46116a2565b5b81356117d5848260208601611770565b91505092915050565b5f805f80608085870312156117f6576117f561158e565b5b5f6118038782880161160f565b945050602085013567ffffffffffffffff81111561182457611823611592565b5b611830878288016117b1565b9350506040611841878288016115b5565b9250506060611852878288016115b5565b91505092959194509250565b5f80604083850312156118745761187361158e565b5b5f611881858286016115b5565b925050602083013567ffffffffffffffff8111156118a2576118a1611592565b5b6118ae858286016117b1565b9150509250929050565b5f602082840312156118cd576118cc61158e565b5b5f6118da848285016115b5565b91505092915050565b6118ec816115e8565b82525050565b5f81519050919050565b5f82825260208201905092915050565b5f5b8381101561192957808201518184015260208101905061190e565b5f8484015250505050565b5f61193e826118f2565b61194881856118fc565b935061195881856020860161190c565b611961816116aa565b840191505092915050565b5f60608201905061197f5f8301866118e3565b81810360208301526119918185611934565b90506119a0604083018461166c565b949350505050565b6119b181611596565b82525050565b5f610100820190506119cb5f83018b6119a8565b6119d8602083018a6118e3565b6119e560408301896118e3565b6119f260608301886119a8565b8181036080830152611a048187611934565b9050611a1360a083018661166c565b611a2060c08301856119a8565b611a2d60e08301846119a8565b9998505050505050505050565b5f8060408385031215611a5057611a4f61158e565b5b5f611a5d858286016115b5565b9250506020611a6e858286016115b5565b9150509250929050565b5f602082019050611a8b5f83018461166c565b92915050565b5f602082019050611aa45f8301846119a8565b92915050565b7f4e487b71000000000000000000000000000000000000000000000000000000005f52602260045260245ffd5b5f6002820490506001821680611aee57607f821691505b602082108103611b0157611b00611aaa565b5b50919050565b5f819050815f5260205f209050919050565b5f6020601f8301049050919050565b5f82821b905092915050565b5f60088302611b637fffffffffffffffffffffffffffffffffffffffffffffffffffffffffffffffff82611b28565b611b6d8683611b28565b95508019841693508086168417925050509392505050565b5f819050919050565b5f611ba8611ba3611b9e84611596565b611b85565b611596565b9050919050565b5f819050919050565b611bc183611b8e565b611bd5611bcd82611baf565b848454611b34565b825550505050565b5f90565b611be9611bdd565b611bf4818484611bb8565b505050565b5b81811015611c1757611c0c5f82611be1565b600181019050611bfa565b5050565b601f821115611c5c57611c2d81611b07565b611c3684611b19565b81016020851015611c45578190505b611c59611c5185611b19565b830182611bf9565b50505b505050565b5f82821c905092915050565b5f611c7c5f1984600802611c61565b1980831691505092915050565b5f611c948383611c6d565b9150826002028217905092915050565b611cad826118f2565b67ffffffffffffffff811115611cc657611cc56116ba565b5b611cd08254611ad7565b611cdb828285611c1b565b5f60209050601f831160018114611d0c575f8415611cfa578287015190505b611d048582611c89565b865550611d6b565b601f198416611d1a86611b07565b5f5b82811015611d4157848901518255600182019150602085019450602081019050611d1c565b86831015611d5e5784890151611d5a601f891682611c6d565b8355505b6001600288020188555050505b505050505050565b7f4e487b71000000000000000000000000000000000000000000000000000000005f52601160045260245ffd5b5f611daa82611596565b91507fffffffffffffffffffffffffffffffffffffffffffffffffffffffffffffffff8203611ddc57611ddb611d73565b5b600182019050919050565b7f436572746966696361746520646f6573206e6f742065786973740000000000005f82015250565b5f611e1b601a836118fc565b9150611e2682611de7565b602082019050919050565b5f6020820190508181035f830152611e4881611e0f565b9050919050565b7f4f6e6c79207468652063757272656e74206f776e65722063616e207472616e735f8201527f666572206f776e65727368697000000000000000000000000000000000000000602082015250565b5f611ea9602d836118fc565b9150611eb482611e4f565b604082019050919050565b5f6020820190508181035f830152611ed681611e9d565b9050919050565b7f4f6e6c79206e6f6e2d63617272696572732063616e20726571756573742063685f8201527f616e676573000000000000000000000000000000000000000000000000000000602082015250565b5f611f376025836118fc565b9150611f4282611edd565b604082019050919050565b5f6020820190508181035f830152611f6481611f2b565b9050919050565b7f4f6e6c7920746865206d61696e206f776e65722063616e2072656d6f7665206e5f8201527f6f6d696e65657300000000000000000000000000000000000000000000000000602082015250565b5f611fc56027836118fc565b9150611fd082611f6b565b604082019050919050565b5f6020820190508181035f830152611ff281611fb9565b9050919050565b7f4f6e6c79207468652063617272696572206f7220636f6c6c61626f7261746f725f8201527f2077697468206f776e6572736869702063616e2072656d6f766520636f6c6c6160208201527f626f7261746f7273000000000000000000000000000000000000000000000000604082015250565b5f6120796048836118fc565b915061208482611ff9565b606082019050919050565b5f6020820190508181035f8301526120a68161206d565b9050919050565b7f4e487b71000000000000000000000000000000000000000000000000000000005f52603260045260245ffd5b5f6120e482611596565b91506120ef83611596565b925082820390508181111561210757612106611d73565b5b92915050565b7f4e487b71000000000000000000000000000000000000000000000000000000005f52603160045260245ffd5b7f4f6e6c79207468652063617272696572206f7220636f6c6c61626f7261746f725f8201527f2077697468206f776e6572736869702063616e20617070726f7665206368616e60208201527f6765730000000000000000000000000000000000000000000000000000000000604082015250565b5f6121ba6043836118fc565b91506121c58261213a565b606082019050919050565b5f6020820190508181035f8301526121e7816121ae565b9050919050565b7f496e76616c6964206368616e67652049440000000000000000000000000000005f82015250565b5f6122226011836118fc565b915061222d826121ee565b602082019050919050565b5f6020820190508181035f83015261224f81612216565b9050919050565b7f4f6e6c79207468652063617272696572206f7220636f6c6c61626f7261746f725f8201527f2077697468206f776e6572736869702063616e2061646420636f6c6c61626f7260208201527f61746f7273000000000000000000000000000000000000000000000000000000604082015250565b5f6122d66045836118fc565b91506122e182612256565b606082019050919050565b5f6020820190508181035f830152612303816122ca565b9050919050565b7f4f6e6c7920746865206d61696e206f776e65722063616e20616464206e6f6d695f8201527f6e65657300000000000000000000000000000000000000000000000000000000602082015250565b5f6123646024836118fc565b915061236f8261230a565b604082019050919050565b5f6020820190508181035f83015261239181612358565b905091905056fea26469706673582212205f1c68ac17c053e1f0e13738b14fd2bb34641615fbf198a94dba0415fe2d849f64736f6c63430008160033",
					"opcodes": "PUSH1 0x80 PUSH1 0x40 MSTORE CALLVALUE DUP1 ISZERO PUSH2 0xF JUMPI PUSH0 DUP1 REVERT JUMPDEST POP PUSH2 0x23CE DUP1 PUSH2 0x1D PUSH0 CODECOPY PUSH0 RETURN INVALID PUSH1 0x80 PUSH1 0x40 MSTORE CALLVALUE DUP1 ISZERO PUSH2 0xF JUMPI PUSH0 DUP1 REVERT JUMPDEST POP PUSH1 0x4 CALLDATASIZE LT PUSH2 0xE8 JUMPI PUSH0 CALLDATALOAD PUSH1 0xE0 SHR DUP1 PUSH4 0x663B3E22 GT PUSH2 0x8A JUMPI DUP1 PUSH4 0xA0BDB003 GT PUSH2 0x64 JUMPI DUP1 PUSH4 0xA0BDB003 EQ PUSH2 0x25E JUMPI DUP1 PUSH4 0xC0AF6CC6 EQ PUSH2 0x27C JUMPI DUP1 PUSH4 0xD4BD5A0D EQ PUSH2 0x2AD JUMPI DUP1 PUSH4 0xF5BDAA18 EQ PUSH2 0x2C9 JUMPI PUSH2 0xE8 JUMP JUMPDEST DUP1 PUSH4 0x663B3E22 EQ PUSH2 0x1DB JUMPI DUP1 PUSH4 0x776B28B7 EQ PUSH2 0x212 JUMPI DUP1 PUSH4 0x7D60AF91 EQ PUSH2 0x22E JUMPI PUSH2 0xE8 JUMP JUMPDEST DUP1 PUSH4 0x3CE2D7FA GT PUSH2 0xC6 JUMPI DUP1 PUSH4 0x3CE2D7FA EQ PUSH2 0x155 JUMPI DUP1 PUSH4 0x4F916FB0 EQ PUSH2 0x171 JUMPI DUP1 PUSH4 0x51640FEE EQ PUSH2 0x18D JUMPI DUP1 PUSH4 0x601B349C EQ PUSH2 0x1BF JUMPI PUSH2 0xE8 JUMP JUMPDEST DUP1 PUSH4 0x1368E7C3 EQ PUSH2 0xEC JUMPI DUP1 PUSH4 0x20E2BEF7 EQ PUSH2 0x11D JUMPI DUP1 PUSH4 0x29507F73 EQ PUSH2 0x139 JUMPI JUMPDEST PUSH0 DUP1 REVERT JUMPDEST PUSH2 0x106 PUSH1 0x4 DUP1 CALLDATASIZE SUB DUP2 ADD SWAP1 PUSH2 0x101 SWAP2 SWAP1 PUSH2 0x1623 JUMP JUMPDEST PUSH2 0x2E5 JUMP JUMPDEST PUSH1 0x40 MLOAD PUSH2 0x114 SWAP3 SWAP2 SWAP1 PUSH2 0x167B JUMP JUMPDEST PUSH1 0x40 MLOAD DUP1 SWAP2 SUB SWAP1 RETURN JUMPDEST PUSH2 0x137 PUSH1 0x4 DUP1 CALLDATASIZE SUB DUP2 ADD SWAP1 PUSH2 0x132 SWAP2 SWAP1 PUSH2 0x17DE JUMP JUMPDEST PUSH2 0x328 JUMP JUMPDEST STOP JUMPDEST PUSH2 0x153 PUSH1 0x4 DUP1 CALLDATASIZE SUB DUP2 ADD SWAP1 PUSH2 0x14E SWAP2 SWAP1 PUSH2 0x1623 JUMP JUMPDEST PUSH2 0x4B9 JUMP JUMPDEST STOP JUMPDEST PUSH2 0x16F PUSH1 0x4 DUP1 CALLDATASIZE SUB DUP2 ADD SWAP1 PUSH2 0x16A SWAP2 SWAP1 PUSH2 0x185E JUMP JUMPDEST PUSH2 0x74B JUMP JUMPDEST STOP JUMPDEST PUSH2 0x18B PUSH1 0x4 DUP1 CALLDATASIZE SUB DUP2 ADD SWAP1 PUSH2 0x186 SWAP2 SWAP1 PUSH2 0x1623 JUMP JUMPDEST PUSH2 0x87F JUMP JUMPDEST STOP JUMPDEST PUSH2 0x1A7 PUSH1 0x4 DUP1 CALLDATASIZE SUB DUP2 ADD SWAP1 PUSH2 0x1A2 SWAP2 SWAP1 PUSH2 0x18B8 JUMP JUMPDEST PUSH2 0x9BA JUMP JUMPDEST PUSH1 0x40 MLOAD PUSH2 0x1B6 SWAP4 SWAP3 SWAP2 SWAP1 PUSH2 0x196C JUMP JUMPDEST PUSH1 0x40 MLOAD DUP1 SWAP2 SUB SWAP1 RETURN JUMPDEST PUSH2 0x1D9 PUSH1 0x4 DUP1 CALLDATASIZE SUB DUP2 ADD SWAP1 PUSH2 0x1D4 SWAP2 SWAP1 PUSH2 0x1623 JUMP JUMPDEST PUSH2 0xAE6 JUMP JUMPDEST STOP JUMPDEST PUSH2 0x1F5 PUSH1 0x4 DUP1 CALLDATASIZE SUB DUP2 ADD SWAP1 PUSH2 0x1F0 SWAP2 SWAP1 PUSH2 0x18B8 JUMP JUMPDEST PUSH2 0xD6E JUMP JUMPDEST PUSH1 0x40 MLOAD PUSH2 0x209 SWAP9 SWAP8 SWAP7 SWAP6 SWAP5 SWAP4 SWAP3 SWAP2 SWAP1 PUSH2 0x19B7 JUMP JUMPDEST PUSH1 0x40 MLOAD DUP1 SWAP2 SUB SWAP1 RETURN JUMPDEST PUSH2 0x22C PUSH1 0x4 DUP1 CALLDATASIZE SUB DUP2 ADD SWAP1 PUSH2 0x227 SWAP2 SWAP1 PUSH2 0x1A3A JUMP JUMPDEST PUSH2 0xE81 JUMP JUMPDEST STOP JUMPDEST PUSH2 0x248 PUSH1 0x4 DUP1 CALLDATASIZE SUB DUP2 ADD SWAP1 PUSH2 0x243 SWAP2 SWAP1 PUSH2 0x1623 JUMP JUMPDEST PUSH2 0x10AE JUMP JUMPDEST PUSH1 0x40 MLOAD PUSH2 0x255 SWAP2 SWAP1 PUSH2 0x1A78 JUMP JUMPDEST PUSH1 0x40 MLOAD DUP1 SWAP2 SUB SWAP1 RETURN JUMPDEST PUSH2 0x266 PUSH2 0x1156 JUMP JUMPDEST PUSH1 0x40 MLOAD PUSH2 0x273 SWAP2 SWAP1 PUSH2 0x1A91 JUMP JUMPDEST PUSH1 0x40 MLOAD DUP1 SWAP2 SUB SWAP1 RETURN JUMPDEST PUSH2 0x296 PUSH1 0x4 DUP1 CALLDATASIZE SUB DUP2 ADD SWAP1 PUSH2 0x291 SWAP2 SWAP1 PUSH2 0x1623 JUMP JUMPDEST PUSH2 0x115C JUMP JUMPDEST PUSH1 0x40 MLOAD PUSH2 0x2A4 SWAP3 SWAP2 SWAP1 PUSH2 0x167B JUMP JUMPDEST PUSH1 0x40 MLOAD DUP1 SWAP2 SUB SWAP1 RETURN JUMPDEST PUSH2 0x2C7 PUSH1 0x4 DUP1 CALLDATASIZE SUB DUP2 ADD SWAP1 PUSH2 0x2C2 SWAP2 SWAP1 PUSH2 0x1623 JUMP JUMPDEST PUSH2 0x1264 JUMP JUMPDEST STOP JUMPDEST PUSH2 0x2E3 PUSH1 0x4 DUP1 CALLDATASIZE SUB DUP2 ADD SWAP1 PUSH2 0x2DE SWAP2 SWAP1 PUSH2 0x1623 JUMP JUMPDEST PUSH2 0x1441 JUMP JUMPDEST STOP JUMPDEST PUSH1 0x1 PUSH1 0x20 MSTORE DUP2 PUSH0 MSTORE PUSH1 0x40 PUSH0 KECCAK256 PUSH1 0x20 MSTORE DUP1 PUSH0 MSTORE PUSH1 0x40 PUSH0 KECCAK256 PUSH0 SWAP2 POP SWAP2 POP POP DUP1 PUSH0 ADD PUSH0 SWAP1 SLOAD SWAP1 PUSH2 0x100 EXP SWAP1 DIV PUSH1 0xFF AND SWAP1 DUP1 PUSH0 ADD PUSH1 0x1 SWAP1 SLOAD SWAP1 PUSH2 0x100 EXP SWAP1 DIV PUSH1 0xFF AND SWAP1 POP DUP3 JUMP JUMPDEST PUSH0 PUSH1 0x2 SLOAD SWAP1 POP PUSH0 DUP1 PUSH0 DUP4 DUP2 MSTORE PUSH1 0x20 ADD SWAP1 DUP2 MSTORE PUSH1 0x20 ADD PUSH0 KECCAK256 SWAP1 POP DUP2 DUP2 PUSH0 ADD DUP2 SWAP1 SSTORE POP CALLER DUP2 PUSH1 0x1 ADD PUSH0 PUSH2 0x100 EXP DUP2 SLOAD DUP2 PUSH20 0xFFFFFFFFFFFFFFFFFFFFFFFFFFFFFFFFFFFFFFFF MUL NOT AND SWAP1 DUP4 PUSH20 0xFFFFFFFFFFFFFFFFFFFFFFFFFFFFFFFFFFFFFFFF AND MUL OR SWAP1 SSTORE POP DUP6 DUP2 PUSH1 0x2 ADD PUSH0 PUSH2 0x100 EXP DUP2 SLOAD DUP2 PUSH20 0xFFFFFFFFFFFFFFFFFFFFFFFFFFFFFFFFFFFFFFFF MUL NOT AND SWAP1 DUP4 PUSH20 0xFFFFFFFFFFFFFFFFFFFFFFFFFFFFFFFFFFFFFFFF AND MUL OR SWAP1 SSTORE POP DUP5 DUP2 PUSH1 0x6 ADD SWAP1 DUP2 PUSH2 0x3DE SWAP2 SWAP1 PUSH2 0x1CA4 JUMP JUMPDEST POP PUSH0 DUP2 PUSH1 0x7 ADD PUSH0 PUSH2 0x100 EXP DUP2 SLOAD DUP2 PUSH1 0xFF MUL NOT AND SWAP1 DUP4 ISZERO ISZERO MUL OR SWAP1 SSTORE POP DUP1 PUSH1 0x9 ADD DUP3 SWAP1 DUP1 PUSH1 0x1 DUP2 SLOAD ADD DUP1 DUP3 SSTORE DUP1 SWAP2 POP POP PUSH1 0x1 SWAP1 SUB SWAP1 PUSH0 MSTORE PUSH1 0x20 PUSH0 KECCAK256 ADD PUSH0 SWAP1 SWAP2 SWAP1 SWAP2 SWAP1 SWAP2 POP SSTORE PUSH1 0x1 DUP1 PUSH0 DUP5 DUP2 MSTORE PUSH1 0x20 ADD SWAP1 DUP2 MSTORE PUSH1 0x20 ADD PUSH0 KECCAK256 PUSH0 CALLER PUSH20 0xFFFFFFFFFFFFFFFFFFFFFFFFFFFFFFFFFFFFFFFF AND PUSH20 0xFFFFFFFFFFFFFFFFFFFFFFFFFFFFFFFFFFFFFFFF AND DUP2 MSTORE PUSH1 0x20 ADD SWAP1 DUP2 MSTORE PUSH1 0x20 ADD PUSH0 KECCAK256 PUSH0 ADD PUSH1 0x1 PUSH2 0x100 EXP DUP2 SLOAD DUP2 PUSH1 0xFF MUL NOT AND SWAP1 DUP4 ISZERO ISZERO MUL OR SWAP1 SSTORE POP DUP4 DUP2 PUSH1 0xA ADD DUP2 SWAP1 SSTORE POP DUP3 DUP2 PUSH1 0xB ADD DUP2 SWAP1 SSTORE POP PUSH1 0x2 PUSH0 DUP2 SLOAD DUP1 SWAP3 SWAP2 SWAP1 PUSH2 0x4AC SWAP1 PUSH2 0x1DA0 JUMP JUMPDEST SWAP2 SWAP1 POP SSTORE POP POP POP POP POP POP POP JUMP JUMPDEST PUSH1 0x2 SLOAD DUP3 LT PUSH2 0x4FD JUMPI PUSH1 0x40 MLOAD PUSH32 0x8C379A000000000000000000000000000000000000000000000000000000000 DUP2 MSTORE PUSH1 0x4 ADD PUSH2 0x4F4 SWAP1 PUSH2 0x1E31 JUMP JUMPDEST PUSH1 0x40 MLOAD DUP1 SWAP2 SUB SWAP1 REVERT JUMPDEST PUSH0 DUP1 PUSH0 DUP5 DUP2 MSTORE PUSH1 0x20 ADD SWAP1 DUP2 MSTORE PUSH1 0x20 ADD PUSH0 KECCAK256 SWAP1 POP DUP1 PUSH1 0x1 ADD PUSH0 SWAP1 SLOAD SWAP1 PUSH2 0x100 EXP SWAP1 DIV PUSH20 0xFFFFFFFFFFFFFFFFFFFFFFFFFFFFFFFFFFFFFFFF AND PUSH20 0xFFFFFFFFFFFFFFFFFFFFFFFFFFFFFFFFFFFFFFFF AND CALLER PUSH20 0xFFFFFFFFFFFFFFFFFFFFFFFFFFFFFFFFFFFFFFFF AND EQ PUSH2 0x5A1 JUMPI PUSH1 0x40 MLOAD PUSH32 0x8C379A000000000000000000000000000000000000000000000000000000000 DUP2 MSTORE PUSH1 0x4 ADD PUSH2 0x598 SWAP1 PUSH2 0x1EBF JUMP JUMPDEST PUSH1 0x40 MLOAD DUP1 SWAP2 SUB SWAP1 REVERT JUMPDEST DUP2 DUP2 PUSH1 0x1 ADD PUSH0 PUSH2 0x100 EXP DUP2 SLOAD DUP2 PUSH20 0xFFFFFFFFFFFFFFFFFFFFFFFFFFFFFFFFFFFFFFFF MUL NOT AND SWAP1 DUP4 PUSH20 0xFFFFFFFFFFFFFFFFFFFFFFFFFFFFFFFFFFFFFFFF AND MUL OR SWAP1 SSTORE POP PUSH1 0x1 PUSH0 DUP5 DUP2 MSTORE PUSH1 0x20 ADD SWAP1 DUP2 MSTORE PUSH1 0x20 ADD PUSH0 KECCAK256 PUSH0 CALLER PUSH20 0xFFFFFFFFFFFFFFFFFFFFFFFFFFFFFFFFFFFFFFFF AND PUSH20 0xFFFFFFFFFFFFFFFFFFFFFFFFFFFFFFFFFFFFFFFF AND DUP2 MSTORE PUSH1 0x20 ADD SWAP1 DUP2 MSTORE PUSH1 0x20 ADD PUSH0 KECCAK256 PUSH1 0x1 PUSH0 DUP6 DUP2 MSTORE PUSH1 0x20 ADD SWAP1 DUP2 MSTORE PUSH1 0x20 ADD PUSH0 KECCAK256 PUSH0 DUP5 PUSH20 0xFFFFFFFFFFFFFFFFFFFFFFFFFFFFFFFFFFFFFFFF AND PUSH20 0xFFFFFFFFFFFFFFFFFFFFFFFFFFFFFFFFFFFFFFFF AND DUP2 MSTORE PUSH1 0x20 ADD SWAP1 DUP2 MSTORE PUSH1 0x20 ADD PUSH0 KECCAK256 PUSH0 DUP3 ADD PUSH0 SWAP1 SLOAD SWAP1 PUSH2 0x100 EXP SWAP1 DIV PUSH1 0xFF AND DUP2 PUSH0 ADD PUSH0 PUSH2 0x100 EXP DUP2 SLOAD DUP2 PUSH1 0xFF MUL NOT AND SWAP1 DUP4 ISZERO ISZERO MUL OR SWAP1 SSTORE POP PUSH0 DUP3 ADD PUSH1 0x1 SWAP1 SLOAD SWAP1 PUSH2 0x100 EXP SWAP1 DIV PUSH1 0xFF AND DUP2 PUSH0 ADD PUSH1 0x1 PUSH2 0x100 EXP DUP2 SLOAD DUP2 PUSH1 0xFF MUL NOT AND SWAP1 DUP4 ISZERO ISZERO MUL OR SWAP1 SSTORE POP SWAP1 POP POP PUSH1 0x1 PUSH0 DUP5 DUP2 MSTORE PUSH1 0x20 ADD SWAP1 DUP2 MSTORE PUSH1 0x20 ADD PUSH0 KECCAK256 PUSH0 CALLER PUSH20 0xFFFFFFFFFFFFFFFFFFFFFFFFFFFFFFFFFFFFFFFF AND PUSH20 0xFFFFFFFFFFFFFFFFFFFFFFFFFFFFFFFFFFFFFFFF AND DUP2 MSTORE PUSH1 0x20 ADD SWAP1 DUP2 MSTORE PUSH1 0x20 ADD PUSH0 KECCAK256 PUSH0 DUP1 DUP3 ADD PUSH0 PUSH2 0x100 EXP DUP2 SLOAD SWAP1 PUSH1 0xFF MUL NOT AND SWAP1 SSTORE PUSH0 DUP3 ADD PUSH1 0x1 PUSH2 0x100 EXP DUP2 SLOAD SWAP1 PUSH1 0xFF MUL NOT AND SWAP1 SSTORE POP POP POP POP POP JUMP JUMPDEST PUSH1 0x2 SLOAD DUP3 LT PUSH2 0x78F JUMPI PUSH1 0x40 MLOAD PUSH32 0x8C379A000000000000000000000000000000000000000000000000000000000 DUP2 MSTORE PUSH1 0x4 ADD PUSH2 0x786 SWAP1 PUSH2 0x1E31 JUMP JUMPDEST PUSH1 0x40 MLOAD DUP1 SWAP2 SUB SWAP1 REVERT JUMPDEST PUSH0 DUP1 PUSH0 DUP5 DUP2 MSTORE PUSH1 0x20 ADD SWAP1 DUP2 MSTORE PUSH1 0x20 ADD PUSH0 KECCAK256 SWAP1 POP CALLER PUSH20 0xFFFFFFFFFFFFFFFFFFFFFFFFFFFFFFFFFFFFFFFF AND DUP2 PUSH1 0x1 ADD PUSH0 SWAP1 SLOAD SWAP1 PUSH2 0x100 EXP SWAP1 DIV PUSH20 0xFFFFFFFFFFFFFFFFFFFFFFFFFFFFFFFFFFFFFFFF AND PUSH20 0xFFFFFFFFFFFFFFFFFFFFFFFFFFFFFFFFFFFFFFFF AND SUB PUSH2 0x833 JUMPI PUSH1 0x40 MLOAD PUSH32 0x8C379A000000000000000000000000000000000000000000000000000000000 DUP2 MSTORE PUSH1 0x4 ADD PUSH2 0x82A SWAP1 PUSH2 0x1F4D JUMP JUMPDEST PUSH1 0x40 MLOAD DUP1 SWAP2 SUB SWAP1 REVERT JUMPDEST DUP1 PUSH1 0x5 ADD PUSH0 DUP2 SLOAD DUP1 SWAP3 SWAP2 SWAP1 PUSH2 0x847 SWAP1 PUSH2 0x1DA0 JUMP JUMPDEST SWAP2 SWAP1 POP SSTORE POP DUP2 DUP2 PUSH1 0x6 ADD SWAP1 DUP2 PUSH2 0x85D SWAP2 SWAP1 PUSH2 0x1CA4 JUMP JUMPDEST POP PUSH1 0x1 DUP2 PUSH1 0x7 ADD PUSH0 PUSH2 0x100 EXP DUP2 SLOAD DUP2 PUSH1 0xFF MUL NOT AND SWAP1 DUP4 ISZERO ISZERO MUL OR SWAP1 SSTORE POP POP POP POP JUMP JUMPDEST PUSH1 0x2 SLOAD DUP3 LT PUSH2 0x8C3 JUMPI PUSH1 0x40 MLOAD PUSH32 0x8C379A000000000000000000000000000000000000000000000000000000000 DUP2 MSTORE PUSH1 0x4 ADD PUSH2 0x8BA SWAP1 PUSH2 0x1E31 JUMP JUMPDEST PUSH1 0x40 MLOAD DUP1 SWAP2 SUB SWAP1 REVERT JUMPDEST PUSH0 DUP1 PUSH0 DUP5 DUP2 MSTORE PUSH1 0x20 ADD SWAP1 DUP2 MSTORE PUSH1 0x20 ADD PUSH0 KECCAK256 SWAP1 POP CALLER PUSH20 0xFFFFFFFFFFFFFFFFFFFFFFFFFFFFFFFFFFFFFFFF AND DUP2 PUSH1 0x2 ADD PUSH0 SWAP1 SLOAD SWAP1 PUSH2 0x100 EXP SWAP1 DIV PUSH20 0xFFFFFFFFFFFFFFFFFFFFFFFFFFFFFFFFFFFFFFFF AND PUSH20 0xFFFFFFFFFFFFFFFFFFFFFFFFFFFFFFFFFFFFFFFF AND EQ PUSH2 0x967 JUMPI PUSH1 0x40 MLOAD PUSH32 0x8C379A000000000000000000000000000000000000000000000000000000000 DUP2 MSTORE PUSH1 0x4 ADD PUSH2 0x95E SWAP1 PUSH2 0x1FDB JUMP JUMPDEST PUSH1 0x40 MLOAD DUP1 SWAP2 SUB SWAP1 REVERT JUMPDEST DUP1 PUSH1 0x3 ADD PUSH0 DUP4 PUSH20 0xFFFFFFFFFFFFFFFFFFFFFFFFFFFFFFFFFFFFFFFF AND PUSH20 0xFFFFFFFFFFFFFFFFFFFFFFFFFFFFFFFFFFFFFFFF AND DUP2 MSTORE PUSH1 0x20 ADD SWAP1 DUP2 MSTORE PUSH1 0x20 ADD PUSH0 KECCAK256 PUSH0 PUSH2 0x100 EXP DUP2 SLOAD SWAP1 PUSH1 0xFF MUL NOT AND SWAP1 SSTORE POP POP POP JUMP JUMPDEST PUSH0 PUSH1 0x60 PUSH0 PUSH1 0x2 SLOAD DUP5 LT PUSH2 0xA02 JUMPI PUSH1 0x40 MLOAD PUSH32 0x8C379A000000000000000000000000000000000000000000000000000000000 DUP2 MSTORE PUSH1 0x4 ADD PUSH2 0x9F9 SWAP1 PUSH2 0x1E31 JUMP JUMPDEST PUSH1 0x40 MLOAD DUP1 SWAP2 SUB SWAP1 REVERT JUMPDEST PUSH0 DUP1 PUSH0 DUP7 DUP2 MSTORE PUSH1 0x20 ADD SWAP1 DUP2 MSTORE PUSH1 0x20 ADD PUSH0 KECCAK256 SWAP1 POP DUP1 PUSH1 0x1 ADD PUSH0 SWAP1 SLOAD SWAP1 PUSH2 0x100 EXP SWAP1 DIV PUSH20 0xFFFFFFFFFFFFFFFFFFFFFFFFFFFFFFFFFFFFFFFF AND DUP2 PUSH1 0x6 ADD DUP3 PUSH1 0x7 ADD PUSH0 SWAP1 SLOAD SWAP1 PUSH2 0x100 EXP SWAP1 DIV PUSH1 0xFF AND DUP2 DUP1 SLOAD PUSH2 0xA5A SWAP1 PUSH2 0x1AD7 JUMP JUMPDEST DUP1 PUSH1 0x1F ADD PUSH1 0x20 DUP1 SWAP2 DIV MUL PUSH1 0x20 ADD PUSH1 0x40 MLOAD SWAP1 DUP2 ADD PUSH1 0x40 MSTORE DUP1 SWAP3 SWAP2 SWAP1 DUP2 DUP2 MSTORE PUSH1 0x20 ADD DUP3 DUP1 SLOAD PUSH2 0xA86 SWAP1 PUSH2 0x1AD7 JUMP JUMPDEST DUP1 ISZERO PUSH2 0xAD1 JUMPI DUP1 PUSH1 0x1F LT PUSH2 0xAA8 JUMPI PUSH2 0x100 DUP1 DUP4 SLOAD DIV MUL DUP4 MSTORE SWAP2 PUSH1 0x20 ADD SWAP2 PUSH2 0xAD1 JUMP JUMPDEST DUP3 ADD SWAP2 SWAP1 PUSH0 MSTORE PUSH1 0x20 PUSH0 KECCAK256 SWAP1 JUMPDEST DUP2 SLOAD DUP2 MSTORE SWAP1 PUSH1 0x1 ADD SWAP1 PUSH1 0x20 ADD DUP1 DUP4 GT PUSH2 0xAB4 JUMPI DUP3 SWAP1 SUB PUSH1 0x1F AND DUP3 ADD SWAP2 JUMPDEST POP POP POP POP POP SWAP2 POP SWAP4 POP SWAP4 POP SWAP4 POP POP SWAP2 SWAP4 SWAP1 SWAP3 POP JUMP JUMPDEST PUSH1 0x2 SLOAD DUP3 LT PUSH2 0xB2A JUMPI PUSH1 0x40 MLOAD PUSH32 0x8C379A000000000000000000000000000000000000000000000000000000000 DUP2 MSTORE PUSH1 0x4 ADD PUSH2 0xB21 SWAP1 PUSH2 0x1E31 JUMP JUMPDEST PUSH1 0x40 MLOAD DUP1 SWAP2 SUB SWAP1 REVERT JUMPDEST PUSH0 DUP1 PUSH0 DUP5 DUP2 MSTORE PUSH1 0x20 ADD SWAP1 DUP2 MSTORE PUSH1 0x20 ADD PUSH0 KECCAK256 SWAP1 POP DUP1 PUSH1 0x1 ADD PUSH0 SWAP1 SLOAD SWAP1 PUSH2 0x100 EXP SWAP1 DIV PUSH20 0xFFFFFFFFFFFFFFFFFFFFFFFFFFFFFFFFFFFFFFFF AND PUSH20 0xFFFFFFFFFFFFFFFFFFFFFFFFFFFFFFFFFFFFFFFF AND CALLER PUSH20 0xFFFFFFFFFFFFFFFFFFFFFFFFFFFFFFFFFFFFFFFF AND EQ DUP1 PUSH2 0xBF2 JUMPI POP PUSH1 0x1 PUSH0 DUP5 DUP2 MSTORE PUSH1 0x20 ADD SWAP1 DUP2 MSTORE PUSH1 0x20 ADD PUSH0 KECCAK256 PUSH0 CALLER PUSH20 0xFFFFFFFFFFFFFFFFFFFFFFFFFFFFFFFFFFFFFFFF AND PUSH20 0xFFFFFFFFFFFFFFFFFFFFFFFFFFFFFFFFFFFFFFFF AND DUP2 MSTORE PUSH1 0x20 ADD SWAP1 DUP2 MSTORE PUSH1 0x20 ADD PUSH0 KECCAK256 PUSH0 ADD PUSH1 0x1 SWAP1 SLOAD SWAP1 PUSH2 0x100 EXP SWAP1 DIV PUSH1 0xFF AND JUMPDEST PUSH2 0xC31 JUMPI PUSH1 0x40 MLOAD PUSH32 0x8C379A000000000000000000000000000000000000000000000000000000000 DUP2 MSTORE PUSH1 0x4 ADD PUSH2 0xC28 SWAP1 PUSH2 0x208F JUMP JUMPDEST PUSH1 0x40 MLOAD DUP1 SWAP2 SUB SWAP1 REVERT JUMPDEST PUSH1 0x1 PUSH0 DUP5 DUP2 MSTORE PUSH1 0x20 ADD SWAP1 DUP2 MSTORE PUSH1 0x20 ADD PUSH0 KECCAK256 PUSH0 DUP4 PUSH20 0xFFFFFFFFFFFFFFFFFFFFFFFFFFFFFFFFFFFFFFFF AND PUSH20 0xFFFFFFFFFFFFFFFFFFFFFFFFFFFFFFFFFFFFFFFF AND DUP2 MSTORE PUSH1 0x20 ADD SWAP1 DUP2 MSTORE PUSH1 0x20 ADD PUSH0 KECCAK256 PUSH0 DUP1 DUP3 ADD PUSH0 PUSH2 0x100 EXP DUP2 SLOAD SWAP1 PUSH1 0xFF MUL NOT AND SWAP1 SSTORE PUSH0 DUP3 ADD PUSH1 0x1 PUSH2 0x100 EXP DUP2 SLOAD SWAP1 PUSH1 0xFF MUL NOT AND SWAP1 SSTORE POP POP PUSH0 JUMPDEST DUP2 PUSH1 0x9 ADD DUP1 SLOAD SWAP1 POP DUP2 LT ISZERO PUSH2 0xD68 JUMPI DUP4 DUP3 PUSH1 0x9 ADD DUP3 DUP2 SLOAD DUP2 LT PUSH2 0xCCD JUMPI PUSH2 0xCCC PUSH2 0x20AD JUMP JUMPDEST JUMPDEST SWAP1 PUSH0 MSTORE PUSH1 0x20 PUSH0 KECCAK256 ADD SLOAD SUB PUSH2 0xD5B JUMPI DUP2 PUSH1 0x9 ADD PUSH1 0x1 DUP4 PUSH1 0x9 ADD DUP1 SLOAD SWAP1 POP PUSH2 0xCF3 SWAP2 SWAP1 PUSH2 0x20DA JUMP JUMPDEST DUP2 SLOAD DUP2 LT PUSH2 0xD04 JUMPI PUSH2 0xD03 PUSH2 0x20AD JUMP JUMPDEST JUMPDEST SWAP1 PUSH0 MSTORE PUSH1 0x20 PUSH0 KECCAK256 ADD SLOAD DUP3 PUSH1 0x9 ADD DUP3 DUP2 SLOAD DUP2 LT PUSH2 0xD23 JUMPI PUSH2 0xD22 PUSH2 0x20AD JUMP JUMPDEST JUMPDEST SWAP1 PUSH0 MSTORE PUSH1 0x20 PUSH0 KECCAK256 ADD DUP2 SWAP1 SSTORE POP DUP2 PUSH1 0x9 ADD DUP1 SLOAD DUP1 PUSH2 0xD43 JUMPI PUSH2 0xD42 PUSH2 0x210D JUMP JUMPDEST JUMPDEST PUSH1 0x1 SWAP1 SUB DUP2 DUP2 SWAP1 PUSH0 MSTORE PUSH1 0x20 PUSH0 KECCAK256 ADD PUSH0 SWAP1 SSTORE SWAP1 SSTORE PUSH2 0xD68 JUMP JUMPDEST DUP1 DUP1 PUSH1 0x1 ADD SWAP2 POP POP PUSH2 0xCA7 JUMP JUMPDEST POP POP POP POP JUMP JUMPDEST PUSH0 PUSH1 0x20 MSTORE DUP1 PUSH0 MSTORE PUSH1 0x40 PUSH0 KECCAK256 PUSH0 SWAP2 POP SWAP1 POP DUP1 PUSH0 ADD SLOAD SWAP1 DUP1 PUSH1 0x1 ADD PUSH0 SWAP1 SLOAD SWAP1 PUSH2 0x100 EXP SWAP1 DIV PUSH20 0xFFFFFFFFFFFFFFFFFFFFFFFFFFFFFFFFFFFFFFFF AND SWAP1 DUP1 PUSH1 0x2 ADD PUSH0 SWAP1 SLOAD SWAP1 PUSH2 0x100 EXP SWAP1 DIV PUSH20 0xFFFFFFFFFFFFFFFFFFFFFFFFFFFFFFFFFFFFFFFF AND SWAP1 DUP1 PUSH1 0x5 ADD SLOAD SWAP1 DUP1 PUSH1 0x6 ADD DUP1 SLOAD PUSH2 0xDE2 SWAP1 PUSH2 0x1AD7 JUMP JUMPDEST DUP1 PUSH1 0x1F ADD PUSH1 0x20 DUP1 SWAP2 DIV MUL PUSH1 0x20 ADD PUSH1 0x40 MLOAD SWAP1 DUP2 ADD PUSH1 0x40 MSTORE DUP1 SWAP3 SWAP2 SWAP1 DUP2 DUP2 MSTORE PUSH1 0x20 ADD DUP3 DUP1 SLOAD PUSH2 0xE0E SWAP1 PUSH2 0x1AD7 JUMP JUMPDEST DUP1 ISZERO PUSH2 0xE59 JUMPI DUP1 PUSH1 0x1F LT PUSH2 0xE30 JUMPI PUSH2 0x100 DUP1 DUP4 SLOAD DIV MUL DUP4 MSTORE SWAP2 PUSH1 0x20 ADD SWAP2 PUSH2 0xE59 JUMP JUMPDEST DUP3 ADD SWAP2 SWAP1 PUSH0 MSTORE PUSH1 0x20 PUSH0 KECCAK256 SWAP1 JUMPDEST DUP2 SLOAD DUP2 MSTORE SWAP1 PUSH1 0x1 ADD SWAP1 PUSH1 0x20 ADD DUP1 DUP4 GT PUSH2 0xE3C JUMPI DUP3 SWAP1 SUB PUSH1 0x1F AND DUP3 ADD SWAP2 JUMPDEST POP POP POP POP POP SWAP1 DUP1 PUSH1 0x7 ADD PUSH0 SWAP1 SLOAD SWAP1 PUSH2 0x100 EXP SWAP1 DIV PUSH1 0xFF AND SWAP1 DUP1 PUSH1 0xA ADD SLOAD SWAP1 DUP1 PUSH1 0xB ADD SLOAD SWAP1 POP DUP9 JUMP JUMPDEST PUSH1 0x2 SLOAD DUP3 LT PUSH2 0xEC5 JUMPI PUSH1 0x40 MLOAD PUSH32 0x8C379A000000000000000000000000000000000000000000000000000000000 DUP2 MSTORE PUSH1 0x4 ADD PUSH2 0xEBC SWAP1 PUSH2 0x1E31 JUMP JUMPDEST PUSH1 0x40 MLOAD DUP1 SWAP2 SUB SWAP1 REVERT JUMPDEST PUSH0 DUP1 PUSH0 DUP5 DUP2 MSTORE PUSH1 0x20 ADD SWAP1 DUP2 MSTORE PUSH1 0x20 ADD PUSH0 KECCAK256 SWAP1 POP CALLER PUSH20 0xFFFFFFFFFFFFFFFFFFFFFFFFFFFFFFFFFFFFFFFF AND DUP2 PUSH1 0x1 ADD PUSH0 SWAP1 SLOAD SWAP1 PUSH2 0x100 EXP SWAP1 DIV PUSH20 0xFFFFFFFFFFFFFFFFFFFFFFFFFFFFFFFFFFFFFFFF AND PUSH20 0xFFFFFFFFFFFFFFFFFFFFFFFFFFFFFFFFFFFFFFFF AND EQ DUP1 PUSH2 0xF8D JUMPI POP PUSH1 0x1 PUSH0 DUP5 DUP2 MSTORE PUSH1 0x20 ADD SWAP1 DUP2 MSTORE PUSH1 0x20 ADD PUSH0 KECCAK256 PUSH0 CALLER PUSH20 0xFFFFFFFFFFFFFFFFFFFFFFFFFFFFFFFFFFFFFFFF AND PUSH20 0xFFFFFFFFFFFFFFFFFFFFFFFFFFFFFFFFFFFFFFFF AND DUP2 MSTORE PUSH1 0x20 ADD SWAP1 DUP2 MSTORE PUSH1 0x20 ADD PUSH0 KECCAK256 PUSH0 ADD PUSH1 0x1 SWAP1 SLOAD SWAP1 PUSH2 0x100 EXP SWAP1 DIV PUSH1 0xFF AND JUMPDEST PUSH2 0xFCC JUMPI PUSH1 0x40 MLOAD PUSH32 0x8C379A000000000000000000000000000000000000000000000000000000000 DUP2 MSTORE PUSH1 0x4 ADD PUSH2 0xFC3 SWAP1 PUSH2 0x21D0 JUMP JUMPDEST PUSH1 0x40 MLOAD DUP1 SWAP2 SUB SWAP1 REVERT JUMPDEST DUP1 PUSH1 0x5 ADD SLOAD DUP3 LT PUSH2 0x1012 JUMPI PUSH1 0x40 MLOAD PUSH32 0x8C379A000000000000000000000000000000000000000000000000000000000 DUP2 MSTORE PUSH1 0x4 ADD PUSH2 0x1009 SWAP1 PUSH2 0x2238 JUMP JUMPDEST PUSH1 0x40 MLOAD DUP1 SWAP2 SUB SWAP1 REVERT JUMPDEST PUSH1 0x1 DUP2 PUSH1 0x4 ADD PUSH0 DUP5 DUP2 MSTORE PUSH1 0x20 ADD SWAP1 DUP2 MSTORE PUSH1 0x20 ADD PUSH0 KECCAK256 PUSH1 0x3 ADD PUSH0 CALLER PUSH20 0xFFFFFFFFFFFFFFFFFFFFFFFFFFFFFFFFFFFFFFFF AND PUSH20 0xFFFFFFFFFFFFFFFFFFFFFFFFFFFFFFFFFFFFFFFF AND DUP2 MSTORE PUSH1 0x20 ADD SWAP1 DUP2 MSTORE PUSH1 0x20 ADD PUSH0 KECCAK256 PUSH0 PUSH2 0x100 EXP DUP2 SLOAD DUP2 PUSH1 0xFF MUL NOT AND SWAP1 DUP4 ISZERO ISZERO MUL OR SWAP1 SSTORE POP PUSH1 0x1 DUP2 PUSH1 0x4 ADD PUSH0 DUP5 DUP2 MSTORE PUSH1 0x20 ADD SWAP1 DUP2 MSTORE PUSH1 0x20 ADD PUSH0 KECCAK256 PUSH1 0x4 ADD PUSH0 PUSH2 0x100 EXP DUP2 SLOAD DUP2 PUSH1 0xFF MUL NOT AND SWAP1 DUP4 ISZERO ISZERO MUL OR SWAP1 SSTORE POP POP POP POP JUMP JUMPDEST PUSH0 PUSH1 0x2 SLOAD DUP4 LT PUSH2 0x10F3 JUMPI PUSH1 0x40 MLOAD PUSH32 0x8C379A000000000000000000000000000000000000000000000000000000000 DUP2 MSTORE PUSH1 0x4 ADD PUSH2 0x10EA SWAP1 PUSH2 0x1E31 JUMP JUMPDEST PUSH1 0x40 MLOAD DUP1 SWAP2 SUB SWAP1 REVERT JUMPDEST PUSH0 DUP1 DUP5 DUP2 MSTORE PUSH1 0x20 ADD SWAP1 DUP2 MSTORE PUSH1 0x20 ADD PUSH0 KECCAK256 PUSH1 0x3 ADD PUSH0 DUP4 PUSH20 0xFFFFFFFFFFFFFFFFFFFFFFFFFFFFFFFFFFFFFFFF AND PUSH20 0xFFFFFFFFFFFFFFFFFFFFFFFFFFFFFFFFFFFFFFFF AND DUP2 MSTORE PUSH1 0x20 ADD SWAP1 DUP2 MSTORE PUSH1 0x20 ADD PUSH0 KECCAK256 PUSH0 SWAP1 SLOAD SWAP1 PUSH2 0x100 EXP SWAP1 DIV PUSH1 0xFF AND SWAP1 POP SWAP3 SWAP2 POP POP JUMP JUMPDEST PUSH1 0x2 SLOAD DUP2 JUMP JUMPDEST PUSH0 DUP1 PUSH1 0x2 SLOAD DUP5 LT PUSH2 0x11A2 JUMPI PUSH1 0x40 MLOAD PUSH32 0x8C379A000000000000000000000000000000000000000000000000000000000 DUP2 MSTORE PUSH1 0x4 ADD PUSH2 0x1199 SWAP1 PUSH2 0x1E31 JUMP JUMPDEST PUSH1 0x40 MLOAD DUP1 SWAP2 SUB SWAP1 REVERT JUMPDEST PUSH1 0x1 PUSH0 DUP6 DUP2 MSTORE PUSH1 0x20 ADD SWAP1 DUP2 MSTORE PUSH1 0x20 ADD PUSH0 KECCAK256 PUSH0 DUP5 PUSH20 0xFFFFFFFFFFFFFFFFFFFFFFFFFFFFFFFFFFFFFFFF AND PUSH20 0xFFFFFFFFFFFFFFFFFFFFFFFFFFFFFFFFFFFFFFFF AND DUP2 MSTORE PUSH1 0x20 ADD SWAP1 DUP2 MSTORE PUSH1 0x20 ADD PUSH0 KECCAK256 PUSH0 ADD PUSH0 SWAP1 SLOAD SWAP1 PUSH2 0x100 EXP SWAP1 DIV PUSH1 0xFF AND PUSH1 0x1 PUSH0 DUP7 DUP2 MSTORE PUSH1 0x20 ADD SWAP1 DUP2 MSTORE PUSH1 0x20 ADD PUSH0 KECCAK256 PUSH0 DUP6 PUSH20 0xFFFFFFFFFFFFFFFFFFFFFFFFFFFFFFFFFFFFFFFF AND PUSH20 0xFFFFFFFFFFFFFFFFFFFFFFFFFFFFFFFFFFFFFFFF AND DUP2 MSTORE PUSH1 0x20 ADD SWAP1 DUP2 MSTORE PUSH1 0x20 ADD PUSH0 KECCAK256 PUSH0 ADD PUSH1 0x1 SWAP1 SLOAD SWAP1 PUSH2 0x100 EXP SWAP1 DIV PUSH1 0xFF AND SWAP2 POP SWAP2 POP SWAP3 POP SWAP3 SWAP1 POP JUMP JUMPDEST PUSH1 0x2 SLOAD DUP3 LT PUSH2 0x12A8 JUMPI PUSH1 0x40 MLOAD PUSH32 0x8C379A000000000000000000000000000000000000000000000000000000000 DUP2 MSTORE PUSH1 0x4 ADD PUSH2 0x129F SWAP1 PUSH2 0x1E31 JUMP JUMPDEST PUSH1 0x40 MLOAD DUP1 SWAP2 SUB SWAP1 REVERT JUMPDEST PUSH0 DUP1 PUSH0 DUP5 DUP2 MSTORE PUSH1 0x20 ADD SWAP1 DUP2 MSTORE PUSH1 0x20 ADD PUSH0 KECCAK256 SWAP1 POP DUP1 PUSH1 0x1 ADD PUSH0 SWAP1 SLOAD SWAP1 PUSH2 0x100 EXP SWAP1 DIV PUSH20 0xFFFFFFFFFFFFFFFFFFFFFFFFFFFFFFFFFFFFFFFF AND PUSH20 0xFFFFFFFFFFFFFFFFFFFFFFFFFFFFFFFFFFFFFFFF AND CALLER PUSH20 0xFFFFFFFFFFFFFFFFFFFFFFFFFFFFFFFFFFFFFFFF AND EQ DUP1 PUSH2 0x1370 JUMPI POP PUSH1 0x1 PUSH0 DUP5 DUP2 MSTORE PUSH1 0x20 ADD SWAP1 DUP2 MSTORE PUSH1 0x20 ADD PUSH0 KECCAK256 PUSH0 CALLER PUSH20 0xFFFFFFFFFFFFFFFFFFFFFFFFFFFFFFFFFFFFFFFF AND PUSH20 0xFFFFFFFFFFFFFFFFFFFFFFFFFFFFFFFFFFFFFFFF AND DUP2 MSTORE PUSH1 0x20 ADD SWAP1 DUP2 MSTORE PUSH1 0x20 ADD PUSH0 KECCAK256 PUSH0 ADD PUSH1 0x1 SWAP1 SLOAD SWAP1 PUSH2 0x100 EXP SWAP1 DIV PUSH1 0xFF AND JUMPDEST PUSH2 0x13AF JUMPI PUSH1 0x40 MLOAD PUSH32 0x8C379A000000000000000000000000000000000000000000000000000000000 DUP2 MSTORE PUSH1 0x4 ADD PUSH2 0x13A6 SWAP1 PUSH2 0x22EC JUMP JUMPDEST PUSH1 0x40 MLOAD DUP1 SWAP2 SUB SWAP1 REVERT JUMPDEST PUSH1 0x1 DUP1 PUSH0 DUP6 DUP2 MSTORE PUSH1 0x20 ADD SWAP1 DUP2 MSTORE PUSH1 0x20 ADD PUSH0 KECCAK256 PUSH0 DUP5 PUSH20 0xFFFFFFFFFFFFFFFFFFFFFFFFFFFFFFFFFFFFFFFF AND PUSH20 0xFFFFFFFFFFFFFFFFFFFFFFFFFFFFFFFFFFFFFFFF AND DUP2 MSTORE PUSH1 0x20 ADD SWAP1 DUP2 MSTORE PUSH1 0x20 ADD PUSH0 KECCAK256 PUSH0 ADD PUSH0 PUSH2 0x100 EXP DUP2 SLOAD DUP2 PUSH1 0xFF MUL NOT AND SWAP1 DUP4 ISZERO ISZERO MUL OR SWAP1 SSTORE POP DUP1 PUSH1 0x9 ADD DUP4 SWAP1 DUP1 PUSH1 0x1 DUP2 SLOAD ADD DUP1 DUP3 SSTORE DUP1 SWAP2 POP POP PUSH1 0x1 SWAP1 SUB SWAP1 PUSH0 MSTORE PUSH1 0x20 PUSH0 KECCAK256 ADD PUSH0 SWAP1 SWAP2 SWAP1 SWAP2 SWAP1 SWAP2 POP SSTORE POP POP POP JUMP JUMPDEST PUSH1 0x2 SLOAD DUP3 LT PUSH2 0x1485 JUMPI PUSH1 0x40 MLOAD PUSH32 0x8C379A000000000000000000000000000000000000000000000000000000000 DUP2 MSTORE PUSH1 0x4 ADD PUSH2 0x147C SWAP1 PUSH2 0x1E31 JUMP JUMPDEST PUSH1 0x40 MLOAD DUP1 SWAP2 SUB SWAP1 REVERT JUMPDEST PUSH0 DUP1 PUSH0 DUP5 DUP2 MSTORE PUSH1 0x20 ADD SWAP1 DUP2 MSTORE PUSH1 0x20 ADD PUSH0 KECCAK256 SWAP1 POP CALLER PUSH20 0xFFFFFFFFFFFFFFFFFFFFFFFFFFFFFFFFFFFFFFFF AND DUP2 PUSH1 0x2 ADD PUSH0 SWAP1 SLOAD SWAP1 PUSH2 0x100 EXP SWAP1 DIV PUSH20 0xFFFFFFFFFFFFFFFFFFFFFFFFFFFFFFFFFFFFFFFF AND PUSH20 0xFFFFFFFFFFFFFFFFFFFFFFFFFFFFFFFFFFFFFFFF AND EQ PUSH2 0x1529 JUMPI PUSH1 0x40 MLOAD PUSH32 0x8C379A000000000000000000000000000000000000000000000000000000000 DUP2 MSTORE PUSH1 0x4 ADD PUSH2 0x1520 SWAP1 PUSH2 0x237A JUMP JUMPDEST PUSH1 0x40 MLOAD DUP1 SWAP2 SUB SWAP1 REVERT JUMPDEST PUSH1 0x1 DUP2 PUSH1 0x3 ADD PUSH0 DUP5 PUSH20 0xFFFFFFFFFFFFFFFFFFFFFFFFFFFFFFFFFFFFFFFF AND PUSH20 0xFFFFFFFFFFFFFFFFFFFFFFFFFFFFFFFFFFFFFFFF AND DUP2 MSTORE PUSH1 0x20 ADD SWAP1 DUP2 MSTORE PUSH1 0x20 ADD PUSH0 KECCAK256 PUSH0 PUSH2 0x100 EXP DUP2 SLOAD DUP2 PUSH1 0xFF MUL NOT AND SWAP1 DUP4 ISZERO ISZERO MUL OR SWAP1 SSTORE POP POP POP POP JUMP JUMPDEST PUSH0 PUSH1 0x40 MLOAD SWAP1 POP SWAP1 JUMP JUMPDEST PUSH0 DUP1 REVERT JUMPDEST PUSH0 DUP1 REVERT JUMPDEST PUSH0 DUP2 SWAP1 POP SWAP2 SWAP1 POP JUMP JUMPDEST PUSH2 0x15A8 DUP2 PUSH2 0x1596 JUMP JUMPDEST DUP2 EQ PUSH2 0x15B2 JUMPI PUSH0 DUP1 REVERT JUMPDEST POP JUMP JUMPDEST PUSH0 DUP2 CALLDATALOAD SWAP1 POP PUSH2 0x15C3 DUP2 PUSH2 0x159F JUMP JUMPDEST SWAP3 SWAP2 POP POP JUMP JUMPDEST PUSH0 PUSH20 0xFFFFFFFFFFFFFFFFFFFFFFFFFFFFFFFFFFFFFFFF DUP3 AND SWAP1 POP SWAP2 SWAP1 POP JUMP JUMPDEST PUSH0 PUSH2 0x15F2 DUP3 PUSH2 0x15C9 JUMP JUMPDEST SWAP1 POP SWAP2 SWAP1 POP JUMP JUMPDEST PUSH2 0x1602 DUP2 PUSH2 0x15E8 JUMP JUMPDEST DUP2 EQ PUSH2 0x160C JUMPI PUSH0 DUP1 REVERT JUMPDEST POP JUMP JUMPDEST PUSH0 DUP2 CALLDATALOAD SWAP1 POP PUSH2 0x161D DUP2 PUSH2 0x15F9 JUMP JUMPDEST SWAP3 SWAP2 POP POP JUMP JUMPDEST PUSH0 DUP1 PUSH1 0x40 DUP4 DUP6 SUB SLT ISZERO PUSH2 0x1639 JUMPI PUSH2 0x1638 PUSH2 0x158E JUMP JUMPDEST JUMPDEST PUSH0 PUSH2 0x1646 DUP6 DUP3 DUP7 ADD PUSH2 0x15B5 JUMP JUMPDEST SWAP3 POP POP PUSH1 0x20 PUSH2 0x1657 DUP6 DUP3 DUP7 ADD PUSH2 0x160F JUMP JUMPDEST SWAP2 POP POP SWAP3 POP SWAP3 SWAP1 POP JUMP JUMPDEST PUSH0 DUP2 ISZERO ISZERO SWAP1 POP SWAP2 SWAP1 POP JUMP JUMPDEST PUSH2 0x1675 DUP2 PUSH2 0x1661 JUMP JUMPDEST DUP3 MSTORE POP POP JUMP JUMPDEST PUSH0 PUSH1 0x40 DUP3 ADD SWAP1 POP PUSH2 0x168E PUSH0 DUP4 ADD DUP6 PUSH2 0x166C JUMP JUMPDEST PUSH2 0x169B PUSH1 0x20 DUP4 ADD DUP5 PUSH2 0x166C JUMP JUMPDEST SWAP4 SWAP3 POP POP POP JUMP JUMPDEST PUSH0 DUP1 REVERT JUMPDEST PUSH0 DUP1 REVERT JUMPDEST PUSH0 PUSH1 0x1F NOT PUSH1 0x1F DUP4 ADD AND SWAP1 POP SWAP2 SWAP1 POP JUMP JUMPDEST PUSH32 0x4E487B7100000000000000000000000000000000000000000000000000000000 PUSH0 MSTORE PUSH1 0x41 PUSH1 0x4 MSTORE PUSH1 0x24 PUSH0 REVERT JUMPDEST PUSH2 0x16F0 DUP3 PUSH2 0x16AA JUMP JUMPDEST DUP2 ADD DUP2 DUP2 LT PUSH8 0xFFFFFFFFFFFFFFFF DUP3 GT OR ISZERO PUSH2 0x170F JUMPI PUSH2 0x170E PUSH2 0x16BA JUMP JUMPDEST JUMPDEST DUP1 PUSH1 0x40 MSTORE POP POP POP JUMP JUMPDEST PUSH0 PUSH2 0x1721 PUSH2 0x1585 JUMP JUMPDEST SWAP1 POP PUSH2 0x172D DUP3 DUP3 PUSH2 0x16E7 JUMP JUMPDEST SWAP2 SWAP1 POP JUMP JUMPDEST PUSH0 PUSH8 0xFFFFFFFFFFFFFFFF DUP3 GT ISZERO PUSH2 0x174C JUMPI PUSH2 0x174B PUSH2 0x16BA JUMP JUMPDEST JUMPDEST PUSH2 0x1755 DUP3 PUSH2 0x16AA JUMP JUMPDEST SWAP1 POP PUSH1 0x20 DUP2 ADD SWAP1 POP SWAP2 SWAP1 POP JUMP JUMPDEST DUP3 DUP2 DUP4 CALLDATACOPY PUSH0 DUP4 DUP4 ADD MSTORE POP POP POP JUMP JUMPDEST PUSH0 PUSH2 0x1782 PUSH2 0x177D DUP5 PUSH2 0x1732 JUMP JUMPDEST PUSH2 0x1718 JUMP JUMPDEST SWAP1 POP DUP3 DUP2 MSTORE PUSH1 0x20 DUP2 ADD DUP5 DUP5 DUP5 ADD GT ISZERO PUSH2 0x179E JUMPI PUSH2 0x179D PUSH2 0x16A6 JUMP JUMPDEST JUMPDEST PUSH2 0x17A9 DUP5 DUP3 DUP6 PUSH2 0x1762 JUMP JUMPDEST POP SWAP4 SWAP3 POP POP POP JUMP JUMPDEST PUSH0 DUP3 PUSH1 0x1F DUP4 ADD SLT PUSH2 0x17C5 JUMPI PUSH2 0x17C4 PUSH2 0x16A2 JUMP JUMPDEST JUMPDEST DUP2 CALLDATALOAD PUSH2 0x17D5 DUP5 DUP3 PUSH1 0x20 DUP7 ADD PUSH2 0x1770 JUMP JUMPDEST SWAP2 POP POP SWAP3 SWAP2 POP POP JUMP JUMPDEST PUSH0 DUP1 PUSH0 DUP1 PUSH1 0x80 DUP6 DUP8 SUB SLT ISZERO PUSH2 0x17F6 JUMPI PUSH2 0x17F5 PUSH2 0x158E JUMP JUMPDEST JUMPDEST PUSH0 PUSH2 0x1803 DUP8 DUP3 DUP9 ADD PUSH2 0x160F JUMP JUMPDEST SWAP5 POP POP PUSH1 0x20 DUP6 ADD CALLDATALOAD PUSH8 0xFFFFFFFFFFFFFFFF DUP2 GT ISZERO PUSH2 0x1824 JUMPI PUSH2 0x1823 PUSH2 0x1592 JUMP JUMPDEST JUMPDEST PUSH2 0x1830 DUP8 DUP3 DUP9 ADD PUSH2 0x17B1 JUMP JUMPDEST SWAP4 POP POP PUSH1 0x40 PUSH2 0x1841 DUP8 DUP3 DUP9 ADD PUSH2 0x15B5 JUMP JUMPDEST SWAP3 POP POP PUSH1 0x60 PUSH2 0x1852 DUP8 DUP3 DUP9 ADD PUSH2 0x15B5 JUMP JUMPDEST SWAP2 POP POP SWAP3 SWAP6 SWAP2 SWAP5 POP SWAP3 POP JUMP JUMPDEST PUSH0 DUP1 PUSH1 0x40 DUP4 DUP6 SUB SLT ISZERO PUSH2 0x1874 JUMPI PUSH2 0x1873 PUSH2 0x158E JUMP JUMPDEST JUMPDEST PUSH0 PUSH2 0x1881 DUP6 DUP3 DUP7 ADD PUSH2 0x15B5 JUMP JUMPDEST SWAP3 POP POP PUSH1 0x20 DUP4 ADD CALLDATALOAD PUSH8 0xFFFFFFFFFFFFFFFF DUP2 GT ISZERO PUSH2 0x18A2 JUMPI PUSH2 0x18A1 PUSH2 0x1592 JUMP JUMPDEST JUMPDEST PUSH2 0x18AE DUP6 DUP3 DUP7 ADD PUSH2 0x17B1 JUMP JUMPDEST SWAP2 POP POP SWAP3 POP SWAP3 SWAP1 POP JUMP JUMPDEST PUSH0 PUSH1 0x20 DUP3 DUP5 SUB SLT ISZERO PUSH2 0x18CD JUMPI PUSH2 0x18CC PUSH2 0x158E JUMP JUMPDEST JUMPDEST PUSH0 PUSH2 0x18DA DUP5 DUP3 DUP6 ADD PUSH2 0x15B5 JUMP JUMPDEST SWAP2 POP POP SWAP3 SWAP2 POP POP JUMP JUMPDEST PUSH2 0x18EC DUP2 PUSH2 0x15E8 JUMP JUMPDEST DUP3 MSTORE POP POP JUMP JUMPDEST PUSH0 DUP2 MLOAD SWAP1 POP SWAP2 SWAP1 POP JUMP JUMPDEST PUSH0 DUP3 DUP3 MSTORE PUSH1 0x20 DUP3 ADD SWAP1 POP SWAP3 SWAP2 POP POP JUMP JUMPDEST PUSH0 JUMPDEST DUP4 DUP2 LT ISZERO PUSH2 0x1929 JUMPI DUP1 DUP3 ADD MLOAD DUP2 DUP5 ADD MSTORE PUSH1 0x20 DUP2 ADD SWAP1 POP PUSH2 0x190E JUMP JUMPDEST PUSH0 DUP5 DUP5 ADD MSTORE POP POP POP POP JUMP JUMPDEST PUSH0 PUSH2 0x193E DUP3 PUSH2 0x18F2 JUMP JUMPDEST PUSH2 0x1948 DUP2 DUP6 PUSH2 0x18FC JUMP JUMPDEST SWAP4 POP PUSH2 0x1958 DUP2 DUP6 PUSH1 0x20 DUP7 ADD PUSH2 0x190C JUMP JUMPDEST PUSH2 0x1961 DUP2 PUSH2 0x16AA JUMP JUMPDEST DUP5 ADD SWAP2 POP POP SWAP3 SWAP2 POP POP JUMP JUMPDEST PUSH0 PUSH1 0x60 DUP3 ADD SWAP1 POP PUSH2 0x197F PUSH0 DUP4 ADD DUP7 PUSH2 0x18E3 JUMP JUMPDEST DUP2 DUP2 SUB PUSH1 0x20 DUP4 ADD MSTORE PUSH2 0x1991 DUP2 DUP6 PUSH2 0x1934 JUMP JUMPDEST SWAP1 POP PUSH2 0x19A0 PUSH1 0x40 DUP4 ADD DUP5 PUSH2 0x166C JUMP JUMPDEST SWAP5 SWAP4 POP POP POP POP JUMP JUMPDEST PUSH2 0x19B1 DUP2 PUSH2 0x1596 JUMP JUMPDEST DUP3 MSTORE POP POP JUMP JUMPDEST PUSH0 PUSH2 0x100 DUP3 ADD SWAP1 POP PUSH2 0x19CB PUSH0 DUP4 ADD DUP12 PUSH2 0x19A8 JUMP JUMPDEST PUSH2 0x19D8 PUSH1 0x20 DUP4 ADD DUP11 PUSH2 0x18E3 JUMP JUMPDEST PUSH2 0x19E5 PUSH1 0x40 DUP4 ADD DUP10 PUSH2 0x18E3 JUMP JUMPDEST PUSH2 0x19F2 PUSH1 0x60 DUP4 ADD DUP9 PUSH2 0x19A8 JUMP JUMPDEST DUP2 DUP2 SUB PUSH1 0x80 DUP4 ADD MSTORE PUSH2 0x1A04 DUP2 DUP8 PUSH2 0x1934 JUMP JUMPDEST SWAP1 POP PUSH2 0x1A13 PUSH1 0xA0 DUP4 ADD DUP7 PUSH2 0x166C JUMP JUMPDEST PUSH2 0x1A20 PUSH1 0xC0 DUP4 ADD DUP6 PUSH2 0x19A8 JUMP JUMPDEST PUSH2 0x1A2D PUSH1 0xE0 DUP4 ADD DUP5 PUSH2 0x19A8 JUMP JUMPDEST SWAP10 SWAP9 POP POP POP POP POP POP POP POP POP JUMP JUMPDEST PUSH0 DUP1 PUSH1 0x40 DUP4 DUP6 SUB SLT ISZERO PUSH2 0x1A50 JUMPI PUSH2 0x1A4F PUSH2 0x158E JUMP JUMPDEST JUMPDEST PUSH0 PUSH2 0x1A5D DUP6 DUP3 DUP7 ADD PUSH2 0x15B5 JUMP JUMPDEST SWAP3 POP POP PUSH1 0x20 PUSH2 0x1A6E DUP6 DUP3 DUP7 ADD PUSH2 0x15B5 JUMP JUMPDEST SWAP2 POP POP SWAP3 POP SWAP3 SWAP1 POP JUMP JUMPDEST PUSH0 PUSH1 0x20 DUP3 ADD SWAP1 POP PUSH2 0x1A8B PUSH0 DUP4 ADD DUP5 PUSH2 0x166C JUMP JUMPDEST SWAP3 SWAP2 POP POP JUMP JUMPDEST PUSH0 PUSH1 0x20 DUP3 ADD SWAP1 POP PUSH2 0x1AA4 PUSH0 DUP4 ADD DUP5 PUSH2 0x19A8 JUMP JUMPDEST SWAP3 SWAP2 POP POP JUMP JUMPDEST PUSH32 0x4E487B7100000000000000000000000000000000000000000000000000000000 PUSH0 MSTORE PUSH1 0x22 PUSH1 0x4 MSTORE PUSH1 0x24 PUSH0 REVERT JUMPDEST PUSH0 PUSH1 0x2 DUP3 DIV SWAP1 POP PUSH1 0x1 DUP3 AND DUP1 PUSH2 0x1AEE JUMPI PUSH1 0x7F DUP3 AND SWAP2 POP JUMPDEST PUSH1 0x20 DUP3 LT DUP2 SUB PUSH2 0x1B01 JUMPI PUSH2 0x1B00 PUSH2 0x1AAA JUMP JUMPDEST JUMPDEST POP SWAP2 SWAP1 POP JUMP JUMPDEST PUSH0 DUP2 SWAP1 POP DUP2 PUSH0 MSTORE PUSH1 0x20 PUSH0 KECCAK256 SWAP1 POP SWAP2 SWAP1 POP JUMP JUMPDEST PUSH0 PUSH1 0x20 PUSH1 0x1F DUP4 ADD DIV SWAP1 POP SWAP2 SWAP1 POP JUMP JUMPDEST PUSH0 DUP3 DUP3 SHL SWAP1 POP SWAP3 SWAP2 POP POP JUMP JUMPDEST PUSH0 PUSH1 0x8 DUP4 MUL PUSH2 0x1B63 PUSH32 0xFFFFFFFFFFFFFFFFFFFFFFFFFFFFFFFFFFFFFFFFFFFFFFFFFFFFFFFFFFFFFFFF DUP3 PUSH2 0x1B28 JUMP JUMPDEST PUSH2 0x1B6D DUP7 DUP4 PUSH2 0x1B28 JUMP JUMPDEST SWAP6 POP DUP1 NOT DUP5 AND SWAP4 POP DUP1 DUP7 AND DUP5 OR SWAP3 POP POP POP SWAP4 SWAP3 POP POP POP JUMP JUMPDEST PUSH0 DUP2 SWAP1 POP SWAP2 SWAP1 POP JUMP JUMPDEST PUSH0 PUSH2 0x1BA8 PUSH2 0x1BA3 PUSH2 0x1B9E DUP5 PUSH2 0x1596 JUMP JUMPDEST PUSH2 0x1B85 JUMP JUMPDEST PUSH2 0x1596 JUMP JUMPDEST SWAP1 POP SWAP2 SWAP1 POP JUMP JUMPDEST PUSH0 DUP2 SWAP1 POP SWAP2 SWAP1 POP JUMP JUMPDEST PUSH2 0x1BC1 DUP4 PUSH2 0x1B8E JUMP JUMPDEST PUSH2 0x1BD5 PUSH2 0x1BCD DUP3 PUSH2 0x1BAF JUMP JUMPDEST DUP5 DUP5 SLOAD PUSH2 0x1B34 JUMP JUMPDEST DUP3 SSTORE POP POP POP POP JUMP JUMPDEST PUSH0 SWAP1 JUMP JUMPDEST PUSH2 0x1BE9 PUSH2 0x1BDD JUMP JUMPDEST PUSH2 0x1BF4 DUP2 DUP5 DUP5 PUSH2 0x1BB8 JUMP JUMPDEST POP POP POP JUMP JUMPDEST JUMPDEST DUP2 DUP2 LT ISZERO PUSH2 0x1C17 JUMPI PUSH2 0x1C0C PUSH0 DUP3 PUSH2 0x1BE1 JUMP JUMPDEST PUSH1 0x1 DUP2 ADD SWAP1 POP PUSH2 0x1BFA JUMP JUMPDEST POP POP JUMP JUMPDEST PUSH1 0x1F DUP3 GT ISZERO PUSH2 0x1C5C JUMPI PUSH2 0x1C2D DUP2 PUSH2 0x1B07 JUMP JUMPDEST PUSH2 0x1C36 DUP5 PUSH2 0x1B19 JUMP JUMPDEST DUP2 ADD PUSH1 0x20 DUP6 LT ISZERO PUSH2 0x1C45 JUMPI DUP2 SWAP1 POP JUMPDEST PUSH2 0x1C59 PUSH2 0x1C51 DUP6 PUSH2 0x1B19 JUMP JUMPDEST DUP4 ADD DUP3 PUSH2 0x1BF9 JUMP JUMPDEST POP POP JUMPDEST POP POP POP JUMP JUMPDEST PUSH0 DUP3 DUP3 SHR SWAP1 POP SWAP3 SWAP2 POP POP JUMP JUMPDEST PUSH0 PUSH2 0x1C7C PUSH0 NOT DUP5 PUSH1 0x8 MUL PUSH2 0x1C61 JUMP JUMPDEST NOT DUP1 DUP4 AND SWAP2 POP POP SWAP3 SWAP2 POP POP JUMP JUMPDEST PUSH0 PUSH2 0x1C94 DUP4 DUP4 PUSH2 0x1C6D JUMP JUMPDEST SWAP2 POP DUP3 PUSH1 0x2 MUL DUP3 OR SWAP1 POP SWAP3 SWAP2 POP POP JUMP JUMPDEST PUSH2 0x1CAD DUP3 PUSH2 0x18F2 JUMP JUMPDEST PUSH8 0xFFFFFFFFFFFFFFFF DUP2 GT ISZERO PUSH2 0x1CC6 JUMPI PUSH2 0x1CC5 PUSH2 0x16BA JUMP JUMPDEST JUMPDEST PUSH2 0x1CD0 DUP3 SLOAD PUSH2 0x1AD7 JUMP JUMPDEST PUSH2 0x1CDB DUP3 DUP3 DUP6 PUSH2 0x1C1B JUMP JUMPDEST PUSH0 PUSH1 0x20 SWAP1 POP PUSH1 0x1F DUP4 GT PUSH1 0x1 DUP2 EQ PUSH2 0x1D0C JUMPI PUSH0 DUP5 ISZERO PUSH2 0x1CFA JUMPI DUP3 DUP8 ADD MLOAD SWAP1 POP JUMPDEST PUSH2 0x1D04 DUP6 DUP3 PUSH2 0x1C89 JUMP JUMPDEST DUP7 SSTORE POP PUSH2 0x1D6B JUMP JUMPDEST PUSH1 0x1F NOT DUP5 AND PUSH2 0x1D1A DUP7 PUSH2 0x1B07 JUMP JUMPDEST PUSH0 JUMPDEST DUP3 DUP2 LT ISZERO PUSH2 0x1D41 JUMPI DUP5 DUP10 ADD MLOAD DUP3 SSTORE PUSH1 0x1 DUP3 ADD SWAP2 POP PUSH1 0x20 DUP6 ADD SWAP5 POP PUSH1 0x20 DUP2 ADD SWAP1 POP PUSH2 0x1D1C JUMP JUMPDEST DUP7 DUP4 LT ISZERO PUSH2 0x1D5E JUMPI DUP5 DUP10 ADD MLOAD PUSH2 0x1D5A PUSH1 0x1F DUP10 AND DUP3 PUSH2 0x1C6D JUMP JUMPDEST DUP4 SSTORE POP JUMPDEST PUSH1 0x1 PUSH1 0x2 DUP9 MUL ADD DUP9 SSTORE POP POP POP JUMPDEST POP POP POP POP POP POP JUMP JUMPDEST PUSH32 0x4E487B7100000000000000000000000000000000000000000000000000000000 PUSH0 MSTORE PUSH1 0x11 PUSH1 0x4 MSTORE PUSH1 0x24 PUSH0 REVERT JUMPDEST PUSH0 PUSH2 0x1DAA DUP3 PUSH2 0x1596 JUMP JUMPDEST SWAP2 POP PUSH32 0xFFFFFFFFFFFFFFFFFFFFFFFFFFFFFFFFFFFFFFFFFFFFFFFFFFFFFFFFFFFFFFFF DUP3 SUB PUSH2 0x1DDC JUMPI PUSH2 0x1DDB PUSH2 0x1D73 JUMP JUMPDEST JUMPDEST PUSH1 0x1 DUP3 ADD SWAP1 POP SWAP2 SWAP1 POP JUMP JUMPDEST PUSH32 0x436572746966696361746520646F6573206E6F74206578697374000000000000 PUSH0 DUP3 ADD MSTORE POP JUMP JUMPDEST PUSH0 PUSH2 0x1E1B PUSH1 0x1A DUP4 PUSH2 0x18FC JUMP JUMPDEST SWAP2 POP PUSH2 0x1E26 DUP3 PUSH2 0x1DE7 JUMP JUMPDEST PUSH1 0x20 DUP3 ADD SWAP1 POP SWAP2 SWAP1 POP JUMP JUMPDEST PUSH0 PUSH1 0x20 DUP3 ADD SWAP1 POP DUP2 DUP2 SUB PUSH0 DUP4 ADD MSTORE PUSH2 0x1E48 DUP2 PUSH2 0x1E0F JUMP JUMPDEST SWAP1 POP SWAP2 SWAP1 POP JUMP JUMPDEST PUSH32 0x4F6E6C79207468652063757272656E74206F776E65722063616E207472616E73 PUSH0 DUP3 ADD MSTORE PUSH32 0x666572206F776E65727368697000000000000000000000000000000000000000 PUSH1 0x20 DUP3 ADD MSTORE POP JUMP JUMPDEST PUSH0 PUSH2 0x1EA9 PUSH1 0x2D DUP4 PUSH2 0x18FC JUMP JUMPDEST SWAP2 POP PUSH2 0x1EB4 DUP3 PUSH2 0x1E4F JUMP JUMPDEST PUSH1 0x40 DUP3 ADD SWAP1 POP SWAP2 SWAP1 POP JUMP JUMPDEST PUSH0 PUSH1 0x20 DUP3 ADD SWAP1 POP DUP2 DUP2 SUB PUSH0 DUP4 ADD MSTORE PUSH2 0x1ED6 DUP2 PUSH2 0x1E9D JUMP JUMPDEST SWAP1 POP SWAP2 SWAP1 POP JUMP JUMPDEST PUSH32 0x4F6E6C79206E6F6E2D63617272696572732063616E2072657175657374206368 PUSH0 DUP3 ADD MSTORE PUSH32 0x616E676573000000000000000000000000000000000000000000000000000000 PUSH1 0x20 DUP3 ADD MSTORE POP JUMP JUMPDEST PUSH0 PUSH2 0x1F37 PUSH1 0x25 DUP4 PUSH2 0x18FC JUMP JUMPDEST SWAP2 POP PUSH2 0x1F42 DUP3 PUSH2 0x1EDD JUMP JUMPDEST PUSH1 0x40 DUP3 ADD SWAP1 POP SWAP2 SWAP1 POP JUMP JUMPDEST PUSH0 PUSH1 0x20 DUP3 ADD SWAP1 POP DUP2 DUP2 SUB PUSH0 DUP4 ADD MSTORE PUSH2 0x1F64 DUP2 PUSH2 0x1F2B JUMP JUMPDEST SWAP1 POP SWAP2 SWAP1 POP JUMP JUMPDEST PUSH32 0x4F6E6C7920746865206D61696E206F776E65722063616E2072656D6F7665206E PUSH0 DUP3 ADD MSTORE PUSH32 0x6F6D696E65657300000000000000000000000000000000000000000000000000 PUSH1 0x20 DUP3 ADD MSTORE POP JUMP JUMPDEST PUSH0 PUSH2 0x1FC5 PUSH1 0x27 DUP4 PUSH2 0x18FC JUMP JUMPDEST SWAP2 POP PUSH2 0x1FD0 DUP3 PUSH2 0x1F6B JUMP JUMPDEST PUSH1 0x40 DUP3 ADD SWAP1 POP SWAP2 SWAP1 POP JUMP JUMPDEST PUSH0 PUSH1 0x20 DUP3 ADD SWAP1 POP DUP2 DUP2 SUB PUSH0 DUP4 ADD MSTORE PUSH2 0x1FF2 DUP2 PUSH2 0x1FB9 JUMP JUMPDEST SWAP1 POP SWAP2 SWAP1 POP JUMP JUMPDEST PUSH32 0x4F6E6C79207468652063617272696572206F7220636F6C6C61626F7261746F72 PUSH0 DUP3 ADD MSTORE PUSH32 0x2077697468206F776E6572736869702063616E2072656D6F766520636F6C6C61 PUSH1 0x20 DUP3 ADD MSTORE PUSH32 0x626F7261746F7273000000000000000000000000000000000000000000000000 PUSH1 0x40 DUP3 ADD MSTORE POP JUMP JUMPDEST PUSH0 PUSH2 0x2079 PUSH1 0x48 DUP4 PUSH2 0x18FC JUMP JUMPDEST SWAP2 POP PUSH2 0x2084 DUP3 PUSH2 0x1FF9 JUMP JUMPDEST PUSH1 0x60 DUP3 ADD SWAP1 POP SWAP2 SWAP1 POP JUMP JUMPDEST PUSH0 PUSH1 0x20 DUP3 ADD SWAP1 POP DUP2 DUP2 SUB PUSH0 DUP4 ADD MSTORE PUSH2 0x20A6 DUP2 PUSH2 0x206D JUMP JUMPDEST SWAP1 POP SWAP2 SWAP1 POP JUMP JUMPDEST PUSH32 0x4E487B7100000000000000000000000000000000000000000000000000000000 PUSH0 MSTORE PUSH1 0x32 PUSH1 0x4 MSTORE PUSH1 0x24 PUSH0 REVERT JUMPDEST PUSH0 PUSH2 0x20E4 DUP3 PUSH2 0x1596 JUMP JUMPDEST SWAP2 POP PUSH2 0x20EF DUP4 PUSH2 0x1596 JUMP JUMPDEST SWAP3 POP DUP3 DUP3 SUB SWAP1 POP DUP2 DUP2 GT ISZERO PUSH2 0x2107 JUMPI PUSH2 0x2106 PUSH2 0x1D73 JUMP JUMPDEST JUMPDEST SWAP3 SWAP2 POP POP JUMP JUMPDEST PUSH32 0x4E487B7100000000000000000000000000000000000000000000000000000000 PUSH0 MSTORE PUSH1 0x31 PUSH1 0x4 MSTORE PUSH1 0x24 PUSH0 REVERT JUMPDEST PUSH32 0x4F6E6C79207468652063617272696572206F7220636F6C6C61626F7261746F72 PUSH0 DUP3 ADD MSTORE PUSH32 0x2077697468206F776E6572736869702063616E20617070726F7665206368616E PUSH1 0x20 DUP3 ADD MSTORE PUSH32 0x6765730000000000000000000000000000000000000000000000000000000000 PUSH1 0x40 DUP3 ADD MSTORE POP JUMP JUMPDEST PUSH0 PUSH2 0x21BA PUSH1 0x43 DUP4 PUSH2 0x18FC JUMP JUMPDEST SWAP2 POP PUSH2 0x21C5 DUP3 PUSH2 0x213A JUMP JUMPDEST PUSH1 0x60 DUP3 ADD SWAP1 POP SWAP2 SWAP1 POP JUMP JUMPDEST PUSH0 PUSH1 0x20 DUP3 ADD SWAP1 POP DUP2 DUP2 SUB PUSH0 DUP4 ADD MSTORE PUSH2 0x21E7 DUP2 PUSH2 0x21AE JUMP JUMPDEST SWAP1 POP SWAP2 SWAP1 POP JUMP JUMPDEST PUSH32 0x496E76616C6964206368616E6765204944000000000000000000000000000000 PUSH0 DUP3 ADD MSTORE POP JUMP JUMPDEST PUSH0 PUSH2 0x2222 PUSH1 0x11 DUP4 PUSH2 0x18FC JUMP JUMPDEST SWAP2 POP PUSH2 0x222D DUP3 PUSH2 0x21EE JUMP JUMPDEST PUSH1 0x20 DUP3 ADD SWAP1 POP SWAP2 SWAP1 POP JUMP JUMPDEST PUSH0 PUSH1 0x20 DUP3 ADD SWAP1 POP DUP2 DUP2 SUB PUSH0 DUP4 ADD MSTORE PUSH2 0x224F DUP2 PUSH2 0x2216 JUMP JUMPDEST SWAP1 POP SWAP2 SWAP1 POP JUMP JUMPDEST PUSH32 0x4F6E6C79207468652063617272696572206F7220636F6C6C61626F7261746F72 PUSH0 DUP3 ADD MSTORE PUSH32 0x2077697468206F776E6572736869702063616E2061646420636F6C6C61626F72 PUSH1 0x20 DUP3 ADD MSTORE PUSH32 0x61746F7273000000000000000000000000000000000000000000000000000000 PUSH1 0x40 DUP3 ADD MSTORE POP JUMP JUMPDEST PUSH0 PUSH2 0x22D6 PUSH1 0x45 DUP4 PUSH2 0x18FC JUMP JUMPDEST SWAP2 POP PUSH2 0x22E1 DUP3 PUSH2 0x2256 JUMP JUMPDEST PUSH1 0x60 DUP3 ADD SWAP1 POP SWAP2 SWAP1 POP JUMP JUMPDEST PUSH0 PUSH1 0x20 DUP3 ADD SWAP1 POP DUP2 DUP2 SUB PUSH0 DUP4 ADD MSTORE PUSH2 0x2303 DUP2 PUSH2 0x22CA JUMP JUMPDEST SWAP1 POP SWAP2 SWAP1 POP JUMP JUMPDEST PUSH32 0x4F6E6C7920746865206D61696E206F776E65722063616E20616464206E6F6D69 PUSH0 DUP3 ADD MSTORE PUSH32 0x6E65657300000000000000000000000000000000000000000000000000000000 PUSH1 0x20 DUP3 ADD MSTORE POP JUMP JUMPDEST PUSH0 PUSH2 0x2364 PUSH1 0x24 DUP4 PUSH2 0x18FC JUMP JUMPDEST SWAP2 POP PUSH2 0x236F DUP3 PUSH2 0x230A JUMP JUMPDEST PUSH1 0x40 DUP3 ADD SWAP1 POP SWAP2 SWAP1 POP JUMP JUMPDEST PUSH0 PUSH1 0x20 DUP3 ADD SWAP1 POP DUP2 DUP2 SUB PUSH0 DUP4 ADD MSTORE PUSH2 0x2391 DUP2 PUSH2 0x2358 JUMP JUMPDEST SWAP1 POP SWAP2 SWAP1 POP JUMP INVALID LOG2 PUSH5 0x6970667358 0x22 SLT KECCAK256 PUSH0 SHR PUSH9 0xAC17C053E1F0E13738 0xB1 0x4F 0xD2 0xBB CALLVALUE PUSH5 0x1615FBF198 0xA9 0x4D 0xBA DIV ISZERO INVALID 0x2D DUP5 SWAP16 PUSH5 0x736F6C6343 STOP ADDMOD AND STOP CALLER "
				},
				"gasEstimates": {
					"creation": {
						"codeDepositCost": "1833200",
						"executionCost": "1931",
						"totalCost": "1835131"
					},
					"external": {
						"addCollaborator(uint256,address)": "78309",
						"addNominee(uint256,address)": "29454",
						"approveChanges(uint256,uint256)": "infinite",
						"certificates(uint256)": "infinite",
						"collaborators(uint256,address)": "infinite",
						"createCertificate(address,string,uint256,uint256)": "infinite",
						"getCertificate(uint256)": "infinite",
						"getCollaboratorDetails(uint256,address)": "infinite",
						"isNominee(uint256,address)": "5313",
						"nextCertificateId()": "2447",
						"removeCollaborator(uint256,address)": "infinite",
						"removeNominee(uint256,address)": "29386",
						"requestChanges(uint256,string)": "infinite",
						"transferOwnership(uint256,address)": "131326"
					}
				},
				"methodIdentifiers": {
					"addCollaborator(uint256,address)": "d4bd5a0d",
					"addNominee(uint256,address)": "f5bdaa18",
					"approveChanges(uint256,uint256)": "776b28b7",
					"certificates(uint256)": "663b3e22",
					"collaborators(uint256,address)": "1368e7c3",
					"createCertificate(address,string,uint256,uint256)": "20e2bef7",
					"getCertificate(uint256)": "51640fee",
					"getCollaboratorDetails(uint256,address)": "c0af6cc6",
					"isNominee(uint256,address)": "7d60af91",
					"nextCertificateId()": "a0bdb003",
					"removeCollaborator(uint256,address)": "601b349c",
					"removeNominee(uint256,address)": "4f916fb0",
					"requestChanges(uint256,string)": "3ce2d7fa",
					"transferOwnership(uint256,address)": "29507f73"
				}
			},
			"storageLayout": {
				"storage": [
					{
						"astId": 57,
						"contract": "contracts/1_Storage.sol:CertificateManagement",
						"label": "certificates",
						"offset": 0,
						"slot": "0",
						"type": "t_mapping(t_uint256,t_struct(CertificateCreation)34_storage)"
					},
					{
						"astId": 64,
						"contract": "contracts/1_Storage.sol:CertificateManagement",
						"label": "collaborators",
						"offset": 0,
						"slot": "1",
						"type": "t_mapping(t_uint256,t_mapping(t_address,t_struct(Collaborator)39_storage))"
					},
					{
						"astId": 66,
						"contract": "contracts/1_Storage.sol:CertificateManagement",
						"label": "nextCertificateId",
						"offset": 0,
						"slot": "2",
						"type": "t_uint256"
					}
				],
				"types": {
					"t_address": {
						"encoding": "inplace",
						"label": "address",
						"numberOfBytes": "20"
					},
					"t_array(t_uint256)dyn_storage": {
						"base": "t_uint256",
						"encoding": "dynamic_array",
						"label": "uint256[]",
						"numberOfBytes": "32"
					},
					"t_bool": {
						"encoding": "inplace",
						"label": "bool",
						"numberOfBytes": "1"
					},
					"t_mapping(t_address,t_bool)": {
						"encoding": "mapping",
						"key": "t_address",
						"label": "mapping(address => bool)",
						"numberOfBytes": "32",
						"value": "t_bool"
					},
					"t_mapping(t_address,t_struct(Collaborator)39_storage)": {
						"encoding": "mapping",
						"key": "t_address",
						"label": "mapping(address => struct CertificateManagement.Collaborator)",
						"numberOfBytes": "32",
						"value": "t_struct(Collaborator)39_storage"
					},
					"t_mapping(t_uint256,t_mapping(t_address,t_struct(Collaborator)39_storage))": {
						"encoding": "mapping",
						"key": "t_uint256",
						"label": "mapping(uint256 => mapping(address => struct CertificateManagement.Collaborator))",
						"numberOfBytes": "32",
						"value": "t_mapping(t_address,t_struct(Collaborator)39_storage)"
					},
					"t_mapping(t_uint256,t_struct(CertificateCreation)34_storage)": {
						"encoding": "mapping",
						"key": "t_uint256",
						"label": "mapping(uint256 => struct CertificateManagement.CertificateCreation)",
						"numberOfBytes": "32",
						"value": "t_struct(CertificateCreation)34_storage"
					},
					"t_mapping(t_uint256,t_struct(Change)52_storage)": {
						"encoding": "mapping",
						"key": "t_uint256",
						"label": "mapping(uint256 => struct CertificateManagement.Change)",
						"numberOfBytes": "32",
						"value": "t_struct(Change)52_storage"
					},
					"t_string_storage": {
						"encoding": "bytes",
						"label": "string",
						"numberOfBytes": "32"
					},
					"t_struct(CertificateCreation)34_storage": {
						"encoding": "inplace",
						"label": "struct CertificateManagement.CertificateCreation",
						"members": [
							{
								"astId": 3,
								"contract": "contracts/1_Storage.sol:CertificateManagement",
								"label": "id",
								"offset": 0,
								"slot": "0",
								"type": "t_uint256"
							},
							{
								"astId": 5,
								"contract": "contracts/1_Storage.sol:CertificateManagement",
								"label": "carrier",
								"offset": 0,
								"slot": "1",
								"type": "t_address"
							},
							{
								"astId": 7,
								"contract": "contracts/1_Storage.sol:CertificateManagement",
								"label": "recipient",
								"offset": 0,
								"slot": "2",
								"type": "t_address"
							},
							{
								"astId": 11,
								"contract": "contracts/1_Storage.sol:CertificateManagement",
								"label": "nominees",
								"offset": 0,
								"slot": "3",
								"type": "t_mapping(t_address,t_bool)"
							},
							{
								"astId": 16,
								"contract": "contracts/1_Storage.sol:CertificateManagement",
								"label": "changes",
								"offset": 0,
								"slot": "4",
								"type": "t_mapping(t_uint256,t_struct(Change)52_storage)"
							},
							{
								"astId": 18,
								"contract": "contracts/1_Storage.sol:CertificateManagement",
								"label": "changesCount",
								"offset": 0,
								"slot": "5",
								"type": "t_uint256"
							},
							{
								"astId": 20,
								"contract": "contracts/1_Storage.sol:CertificateManagement",
								"label": "data",
								"offset": 0,
								"slot": "6",
								"type": "t_string_storage"
							},
							{
								"astId": 22,
								"contract": "contracts/1_Storage.sol:CertificateManagement",
								"label": "isFinalized",
								"offset": 0,
								"slot": "7",
								"type": "t_bool"
							},
							{
								"astId": 26,
								"contract": "contracts/1_Storage.sol:CertificateManagement",
								"label": "approvals",
								"offset": 0,
								"slot": "8",
								"type": "t_mapping(t_address,t_bool)"
							},
							{
								"astId": 29,
								"contract": "contracts/1_Storage.sol:CertificateManagement",
								"label": "collaboratorIds",
								"offset": 0,
								"slot": "9",
								"type": "t_array(t_uint256)dyn_storage"
							},
							{
								"astId": 31,
								"contract": "contracts/1_Storage.sol:CertificateManagement",
								"label": "manufacturingDate",
								"offset": 0,
								"slot": "10",
								"type": "t_uint256"
							},
							{
								"astId": 33,
								"contract": "contracts/1_Storage.sol:CertificateManagement",
								"label": "expiryDate",
								"offset": 0,
								"slot": "11",
								"type": "t_uint256"
							}
						],
						"numberOfBytes": "384"
					},
					"t_struct(Change)52_storage": {
						"encoding": "inplace",
						"label": "struct CertificateManagement.Change",
						"members": [
							{
								"astId": 41,
								"contract": "contracts/1_Storage.sol:CertificateManagement",
								"label": "changeId",
								"offset": 0,
								"slot": "0",
								"type": "t_uint256"
							},
							{
								"astId": 43,
								"contract": "contracts/1_Storage.sol:CertificateManagement",
								"label": "initiator",
								"offset": 0,
								"slot": "1",
								"type": "t_address"
							},
							{
								"astId": 45,
								"contract": "contracts/1_Storage.sol:CertificateManagement",
								"label": "updatedData",
								"offset": 0,
								"slot": "2",
								"type": "t_string_storage"
							},
							{
								"astId": 49,
								"contract": "contracts/1_Storage.sol:CertificateManagement",
								"label": "approvals",
								"offset": 0,
								"slot": "3",
								"type": "t_mapping(t_address,t_bool)"
							},
							{
								"astId": 51,
								"contract": "contracts/1_Storage.sol:CertificateManagement",
								"label": "isApproved",
								"offset": 0,
								"slot": "4",
								"type": "t_bool"
							}
						],
						"numberOfBytes": "160"
					},
					"t_struct(Collaborator)39_storage": {
						"encoding": "inplace",
						"label": "struct CertificateManagement.Collaborator",
						"members": [
							{
								"astId": 36,
								"contract": "contracts/1_Storage.sol:CertificateManagement",
								"label": "hasViewAccess",
								"offset": 0,
								"slot": "0",
								"type": "t_bool"
							},
							{
								"astId": 38,
								"contract": "contracts/1_Storage.sol:CertificateManagement",
								"label": "hasOwnership",
								"offset": 1,
								"slot": "0",
								"type": "t_bool"
							}
						],
						"numberOfBytes": "32"
					},
					"t_uint256": {
						"encoding": "inplace",
						"label": "uint256",
						"numberOfBytes": "32"
					}
				}
			},
			"userdoc": {
				"kind": "user",
				"methods": {},
				"version": 1
			}
		}
	}
}